{
    "_format": "hh-sol-artifact-1",
    "contractName": "WarrentyNFT",
    "sourceName": "contracts/WarrentyNFT.sol",
    "abi": [
        {
            "inputs": [],
            "stateMutability": "nonpayable",
            "type": "constructor"
        },
        {
            "anonymous": false,
            "inputs": [
                {
                    "indexed": true,
                    "internalType": "address",
                    "name": "owner",
                    "type": "address"
                },
                {
                    "indexed": true,
                    "internalType": "address",
                    "name": "approved",
                    "type": "address"
                },
                {
                    "indexed": true,
                    "internalType": "uint256",
                    "name": "tokenId",
                    "type": "uint256"
                }
            ],
            "name": "Approval",
            "type": "event"
        },
        {
            "anonymous": false,
            "inputs": [
                {
                    "indexed": true,
                    "internalType": "address",
                    "name": "owner",
                    "type": "address"
                },
                {
                    "indexed": true,
                    "internalType": "address",
                    "name": "operator",
                    "type": "address"
                },
                {
                    "indexed": false,
                    "internalType": "bool",
                    "name": "approved",
                    "type": "bool"
                }
            ],
            "name": "ApprovalForAll",
            "type": "event"
        },
        {
            "anonymous": false,
            "inputs": [
                {
                    "indexed": true,
                    "internalType": "address",
                    "name": "from",
                    "type": "address"
                },
                {
                    "indexed": true,
                    "internalType": "address",
                    "name": "to",
                    "type": "address"
                },
                {
                    "indexed": true,
                    "internalType": "uint256",
                    "name": "tokenId",
                    "type": "uint256"
                }
            ],
            "name": "Transfer",
            "type": "event"
        },
        {
            "inputs": [
                {
                    "internalType": "address",
                    "name": "to",
                    "type": "address"
                },
                {
                    "internalType": "uint256",
                    "name": "tokenId",
                    "type": "uint256"
                }
            ],
            "name": "approve",
            "outputs": [],
            "stateMutability": "nonpayable",
            "type": "function"
        },
        {
            "inputs": [
                {
                    "internalType": "address",
                    "name": "owner",
                    "type": "address"
                }
            ],
            "name": "balanceOf",
            "outputs": [
                {
                    "internalType": "uint256",
                    "name": "",
                    "type": "uint256"
                }
            ],
            "stateMutability": "view",
            "type": "function"
        },
        {
            "inputs": [],
            "name": "generateCharacter",
            "outputs": [
                {
                    "internalType": "string",
                    "name": "",
                    "type": "string"
                }
            ],
            "stateMutability": "pure",
            "type": "function"
        },
        {
            "inputs": [
                {
                    "internalType": "uint256",
                    "name": "tokenId",
                    "type": "uint256"
                }
            ],
            "name": "getApproved",
            "outputs": [
                {
                    "internalType": "address",
                    "name": "",
                    "type": "address"
                }
            ],
            "stateMutability": "view",
            "type": "function"
        },
        {
            "inputs": [
                {
                    "internalType": "address",
                    "name": "owner",
                    "type": "address"
                },
                {
                    "internalType": "address",
                    "name": "operator",
                    "type": "address"
                }
            ],
            "name": "isApprovedForAll",
            "outputs": [
                {
                    "internalType": "bool",
                    "name": "",
                    "type": "bool"
                }
            ],
            "stateMutability": "view",
            "type": "function"
        },
        {
            "inputs": [
                {
                    "internalType": "string",
                    "name": "_name",
                    "type": "string"
                }
            ],
            "name": "mint",
            "outputs": [],
            "stateMutability": "nonpayable",
            "type": "function"
        },
        {
            "inputs": [],
            "name": "name",
            "outputs": [
                {
                    "internalType": "string",
                    "name": "",
                    "type": "string"
                }
            ],
            "stateMutability": "view",
            "type": "function"
        },
        {
            "inputs": [
                {
                    "internalType": "uint256",
                    "name": "tokenId",
                    "type": "uint256"
                }
            ],
            "name": "ownerOf",
            "outputs": [
                {
                    "internalType": "address",
                    "name": "",
                    "type": "address"
                }
            ],
            "stateMutability": "view",
            "type": "function"
        },
        {
            "inputs": [
                {
                    "internalType": "address",
                    "name": "from",
                    "type": "address"
                },
                {
                    "internalType": "address",
                    "name": "to",
                    "type": "address"
                },
                {
                    "internalType": "uint256",
                    "name": "tokenId",
                    "type": "uint256"
                }
            ],
            "name": "safeTransferFrom",
            "outputs": [],
            "stateMutability": "nonpayable",
            "type": "function"
        },
        {
            "inputs": [
                {
                    "internalType": "address",
                    "name": "from",
                    "type": "address"
                },
                {
                    "internalType": "address",
                    "name": "to",
                    "type": "address"
                },
                {
                    "internalType": "uint256",
                    "name": "tokenId",
                    "type": "uint256"
                },
                {
                    "internalType": "bytes",
                    "name": "data",
                    "type": "bytes"
                }
            ],
            "name": "safeTransferFrom",
            "outputs": [],
            "stateMutability": "nonpayable",
            "type": "function"
        },
        {
            "inputs": [
                {
                    "internalType": "address",
                    "name": "operator",
                    "type": "address"
                },
                {
                    "internalType": "bool",
                    "name": "approved",
                    "type": "bool"
                }
            ],
            "name": "setApprovalForAll",
            "outputs": [],
            "stateMutability": "nonpayable",
            "type": "function"
        },
        {
            "inputs": [
                {
                    "internalType": "bytes4",
                    "name": "interfaceId",
                    "type": "bytes4"
                }
            ],
            "name": "supportsInterface",
            "outputs": [
                {
                    "internalType": "bool",
                    "name": "",
                    "type": "bool"
                }
            ],
            "stateMutability": "view",
            "type": "function"
        },
        {
            "inputs": [],
            "name": "symbol",
            "outputs": [
                {
                    "internalType": "string",
                    "name": "",
                    "type": "string"
                }
            ],
            "stateMutability": "view",
            "type": "function"
        },
        {
            "inputs": [
                {
                    "internalType": "uint256",
                    "name": "tokenId",
                    "type": "uint256"
                }
            ],
            "name": "tokenURI",
            "outputs": [
                {
                    "internalType": "string",
                    "name": "",
                    "type": "string"
                }
            ],
            "stateMutability": "view",
            "type": "function"
        },
        {
            "inputs": [
                {
                    "internalType": "address",
                    "name": "from",
                    "type": "address"
                },
                {
                    "internalType": "address",
                    "name": "to",
                    "type": "address"
                },
                {
                    "internalType": "uint256",
                    "name": "tokenId",
                    "type": "uint256"
                }
            ],
            "name": "transferFrom",
            "outputs": [],
            "stateMutability": "nonpayable",
            "type": "function"
        }
    ],
    "bytecode": "0x60806040523480156200001157600080fd5b506040518060400160405280600881526020017f57617272656e74790000000000000000000000000000000000000000000000008152506040518060400160405280600481526020017f5752545900000000000000000000000000000000000000000000000000000000815250816000908051906020019062000096929190620000b8565b508060019080519060200190620000af929190620000b8565b505050620001cd565b828054620000c69062000197565b90600052602060002090601f016020900481019282620000ea576000855562000136565b82601f106200010557805160ff191683800117855562000136565b8280016001018555821562000136579182015b828111156200013557825182559160200191906001019062000118565b5b50905062000145919062000149565b5090565b5b80821115620001645760008160009055506001016200014a565b5090565b7f4e487b7100000000000000000000000000000000000000000000000000000000600052602260045260246000fd5b60006002820490506001821680620001b057607f821691505b60208210811415620001c757620001c662000168565b5b50919050565b6133d480620001dd6000396000f3fe608060405234801561001057600080fd5b50600436106100f55760003560e01c806370a0823111610097578063b88d4fde11610066578063b88d4fde14610284578063c87b56dd146102a0578063d85d3d27146102d0578063e985e9c5146102ec576100f5565b806370a08231146101fc57806395d89b411461022c578063a22cb4651461024a578063a561b7d414610266576100f5565b8063095ea7b3116100d3578063095ea7b31461017857806323b872dd1461019457806342842e0e146101b05780636352211e146101cc576100f5565b806301ffc9a7146100fa57806306fdde031461012a578063081812fc14610148575b600080fd5b610114600480360381019061010f9190611af6565b61031c565b6040516101219190611b3e565b60405180910390f35b6101326103fe565b60405161013f9190611bf2565b60405180910390f35b610162600480360381019061015d9190611c4a565b610490565b60405161016f9190611cb8565b60405180910390f35b610192600480360381019061018d9190611cff565b6104d6565b005b6101ae60048036038101906101a99190611d3f565b6105ee565b005b6101ca60048036038101906101c59190611d3f565b61064e565b005b6101e660048036038101906101e19190611c4a565b61066e565b6040516101f39190611cb8565b60405180910390f35b61021660048036038101906102119190611d92565b610720565b6040516102239190611dce565b60405180910390f35b6102346107d8565b6040516102419190611bf2565b60405180910390f35b610264600480360381019061025f9190611e15565b61086a565b005b61026e610880565b60405161027b9190611bf2565b60405180910390f35b61029e60048036038101906102999190611f8a565b6108d2565b005b6102ba60048036038101906102b59190611c4a565b610934565b6040516102c79190611bf2565b60405180910390f35b6102ea60048036038101906102e591906120ae565b610946565b005b610306600480360381019061030191906120f7565b61096b565b6040516103139190611b3e565b60405180910390f35b60007f80ac58cd000000000000000000000000000000000000000000000000000000007bffffffffffffffffffffffffffffffffffffffffffffffffffffffff1916827bffffffffffffffffffffffffffffffffffffffffffffffffffffffff191614806103e757507f5b5e139f000000000000000000000000000000000000000000000000000000007bffffffffffffffffffffffffffffffffffffffffffffffffffffffff1916827bffffffffffffffffffffffffffffffffffffffffffffffffffffffff1916145b806103f757506103f6826109ff565b5b9050919050565b60606000805461040d90612166565b80601f016020809104026020016040519081016040528092919081815260200182805461043990612166565b80156104865780601f1061045b57610100808354040283529160200191610486565b820191906000526020600020905b81548152906001019060200180831161046957829003601f168201915b5050505050905090565b600061049b82610a69565b6004600083815260200190815260200160002060009054906101000a900473ffffffffffffffffffffffffffffffffffffffff169050919050565b60006104e18261066e565b90508073ffffffffffffffffffffffffffffffffffffffff168373ffffffffffffffffffffffffffffffffffffffff161415610552576040517f08c379a00000000000000000000000000000000000000000000000000000000081526004016105499061220a565b60405180910390fd5b8073ffffffffffffffffffffffffffffffffffffffff16610571610ab4565b73ffffffffffffffffffffffffffffffffffffffff1614806105a0575061059f8161059a610ab4565b61096b565b5b6105df576040517f08c379a00000000000000000000000000000000000000000000000000000000081526004016105d69061229c565b60405180910390fd5b6105e98383610abc565b505050565b6105ff6105f9610ab4565b82610b75565b61063e576040517f08c379a00000000000000000000000000000000000000000000000000000000081526004016106359061232e565b60405180910390fd5b610649838383610c0a565b505050565b610669838383604051806020016040528060008152506108d2565b505050565b6000806002600084815260200190815260200160002060009054906101000a900473ffffffffffffffffffffffffffffffffffffffff169050600073ffffffffffffffffffffffffffffffffffffffff168173ffffffffffffffffffffffffffffffffffffffff161415610717576040517f08c379a000000000000000000000000000000000000000000000000000000000815260040161070e9061239a565b60405180910390fd5b80915050919050565b60008073ffffffffffffffffffffffffffffffffffffffff168273ffffffffffffffffffffffffffffffffffffffff161415610791576040517f08c379a00000000000000000000000000000000000000000000000000000000081526004016107889061242c565b60405180910390fd5b600360008373ffffffffffffffffffffffffffffffffffffffff1673ffffffffffffffffffffffffffffffffffffffff168152602001908152602001600020549050919050565b6060600180546107e790612166565b80601f016020809104026020016040519081016040528092919081815260200182805461081390612166565b80156108605780601f1061083557610100808354040283529160200191610860565b820191906000526020600020905b81548152906001019060200180831161084357829003601f168201915b5050505050905090565b61087c610875610ab4565b8383610e71565b5050565b606060006040516020016108939061287f565b60405160208183030381529060405290506108ad81610fde565b6040516020016108bd9190612974565b60405160208183030381529060405291505090565b6108e36108dd610ab4565b83610b75565b610922576040517f08c379a00000000000000000000000000000000000000000000000000000000081526004016109199061232e565b60405180910390fd5b61092e84848484611142565b50505050565b606061093f8261119e565b9050919050565b600042905061095533826112b1565b61096781610962846112cf565b61132e565b5050565b6000600560008473ffffffffffffffffffffffffffffffffffffffff1673ffffffffffffffffffffffffffffffffffffffff16815260200190815260200160002060008373ffffffffffffffffffffffffffffffffffffffff1673ffffffffffffffffffffffffffffffffffffffff16815260200190815260200160002060009054906101000a900460ff16905092915050565b60007f01ffc9a7000000000000000000000000000000000000000000000000000000007bffffffffffffffffffffffffffffffffffffffffffffffffffffffff1916827bffffffffffffffffffffffffffffffffffffffffffffffffffffffff1916149050919050565b610a72816113a2565b610ab1576040517f08c379a0000000000000000000000000000000000000000000000000000000008152600401610aa89061239a565b60405180910390fd5b50565b600033905090565b816004600083815260200190815260200160002060006101000a81548173ffffffffffffffffffffffffffffffffffffffff021916908373ffffffffffffffffffffffffffffffffffffffff160217905550808273ffffffffffffffffffffffffffffffffffffffff16610b2f8361066e565b73ffffffffffffffffffffffffffffffffffffffff167f8c5be1e5ebec7d5bd14f71427d1e84f3dd0314c0f7b2291e5b200ac8c7c3b92560405160405180910390a45050565b600080610b818361066e565b90508073ffffffffffffffffffffffffffffffffffffffff168473ffffffffffffffffffffffffffffffffffffffff161480610bc35750610bc2818561096b565b5b80610c0157508373ffffffffffffffffffffffffffffffffffffffff16610be984610490565b73ffffffffffffffffffffffffffffffffffffffff16145b91505092915050565b8273ffffffffffffffffffffffffffffffffffffffff16610c2a8261066e565b73ffffffffffffffffffffffffffffffffffffffff1614610c80576040517f08c379a0000000000000000000000000000000000000000000000000000000008152600401610c7790612a08565b60405180910390fd5b600073ffffffffffffffffffffffffffffffffffffffff168273ffffffffffffffffffffffffffffffffffffffff161415610cf0576040517f08c379a0000000000000000000000000000000000000000000000000000000008152600401610ce790612a9a565b60405180910390fd5b610cfb83838361140e565b610d06600082610abc565b6001600360008573ffffffffffffffffffffffffffffffffffffffff1673ffffffffffffffffffffffffffffffffffffffff1681526020019081526020016000206000828254610d569190612ae9565b925050819055506001600360008473ffffffffffffffffffffffffffffffffffffffff1673ffffffffffffffffffffffffffffffffffffffff1681526020019081526020016000206000828254610dad9190612b1d565b92505081905550816002600083815260200190815260200160002060006101000a81548173ffffffffffffffffffffffffffffffffffffffff021916908373ffffffffffffffffffffffffffffffffffffffff160217905550808273ffffffffffffffffffffffffffffffffffffffff168473ffffffffffffffffffffffffffffffffffffffff167fddf252ad1be2c89b69c2b068fc378daa952ba7f163c4a11628f55a4df523b3ef60405160405180910390a4610e6c838383611413565b505050565b8173ffffffffffffffffffffffffffffffffffffffff168373ffffffffffffffffffffffffffffffffffffffff161415610ee0576040517f08c379a0000000000000000000000000000000000000000000000000000000008152600401610ed790612bbf565b60405180910390fd5b80600560008573ffffffffffffffffffffffffffffffffffffffff1673ffffffffffffffffffffffffffffffffffffffff16815260200190815260200160002060008473ffffffffffffffffffffffffffffffffffffffff1673ffffffffffffffffffffffffffffffffffffffff16815260200190815260200160002060006101000a81548160ff0219169083151502179055508173ffffffffffffffffffffffffffffffffffffffff168373ffffffffffffffffffffffffffffffffffffffff167f17307eab39ab6107e8899845ad3d59bd9653f200f220920489ca2b5937696c3183604051610fd19190611b3e565b60405180910390a3505050565b60606000825114156110015760405180602001604052806000815250905061113d565b600060405180606001604052806040815260200161335f60409139905060006003600285516110309190612b1d565b61103a9190612c0e565b60046110469190612c3f565b67ffffffffffffffff81111561105f5761105e611e5f565b5b6040519080825280601f01601f1916602001820160405280156110915781602001600182028036833780820191505090505b509050600182016020820185865187015b808210156110fd576003820191508151603f8160121c168501518453600184019350603f81600c1c168501518453600184019350603f8160061c168501518453600184019350603f81168501518453600184019350506110a2565b5050600386510660018114611119576002811461112c57611134565b603d6001830353603d6002830353611134565b603d60018303535b50505080925050505b919050565b61114d848484610c0a565b61115984848484611418565b611198576040517f08c379a000000000000000000000000000000000000000000000000000000000815260040161118f90612d0b565b60405180910390fd5b50505050565b60606111a982610a69565b60006006600084815260200190815260200160002080546111c990612166565b80601f01602080910402602001604051908101604052809291908181526020018280546111f590612166565b80156112425780601f1061121757610100808354040283529160200191611242565b820191906000526020600020905b81548152906001019060200180831161122557829003601f168201915b5050505050905060006112536115af565b90506000815114156112695781925050506112ac565b60008251111561129e578082604051602001611286929190612d2b565b604051602081830303815290604052925050506112ac565b6112a7846115c6565b925050505b919050565b6112cb82826040518060200160405280600081525061162e565b5050565b60606000826112dc610880565b6040516020016112ed929190612f89565b604051602081830303815290604052905061130781610fde565b6040516020016113179190613046565b604051602081830303815290604052915050919050565b611337826113a2565b611376576040517f08c379a000000000000000000000000000000000000000000000000000000000815260040161136d906130da565b60405180910390fd5b8060066000848152602001908152602001600020908051906020019061139d9291906119e7565b505050565b60008073ffffffffffffffffffffffffffffffffffffffff166002600084815260200190815260200160002060009054906101000a900473ffffffffffffffffffffffffffffffffffffffff1673ffffffffffffffffffffffffffffffffffffffff1614159050919050565b505050565b505050565b60006114398473ffffffffffffffffffffffffffffffffffffffff16611689565b156115a2578373ffffffffffffffffffffffffffffffffffffffff1663150b7a02611462610ab4565b8786866040518563ffffffff1660e01b8152600401611484949392919061314f565b602060405180830381600087803b15801561149e57600080fd5b505af19250505080156114cf57506040513d601f19601f820116820180604052508101906114cc91906131b0565b60015b611552573d80600081146114ff576040519150601f19603f3d011682016040523d82523d6000602084013e611504565b606091505b5060008151141561154a576040517f08c379a000000000000000000000000000000000000000000000000000000000815260040161154190612d0b565b60405180910390fd5b805181602001fd5b63150b7a0260e01b7bffffffffffffffffffffffffffffffffffffffffffffffffffffffff1916817bffffffffffffffffffffffffffffffffffffffffffffffffffffffff1916149150506115a7565b600190505b949350505050565b606060405180602001604052806000815250905090565b60606115d182610a69565b60006115db6115af565b905060008151116115fb5760405180602001604052806000815250611626565b80611605846116ac565b604051602001611616929190612d2b565b6040516020818303038152906040525b915050919050565b611638838361180d565b6116456000848484611418565b611684576040517f08c379a000000000000000000000000000000000000000000000000000000000815260040161167b90612d0b565b60405180910390fd5b505050565b6000808273ffffffffffffffffffffffffffffffffffffffff163b119050919050565b606060008214156116f4576040518060400160405280600181526020017f30000000000000000000000000000000000000000000000000000000000000008152509050611808565b600082905060005b6000821461172657808061170f906131dd565b915050600a8261171f9190612c0e565b91506116fc565b60008167ffffffffffffffff81111561174257611741611e5f565b5b6040519080825280601f01601f1916602001820160405280156117745781602001600182028036833780820191505090505b5090505b600085146118015760018261178d9190612ae9565b9150600a8561179c9190613226565b60306117a89190612b1d565b60f81b8183815181106117be576117bd613257565b5b60200101907effffffffffffffffffffffffffffffffffffffffffffffffffffffffffffff1916908160001a905350600a856117fa9190612c0e565b9450611778565b8093505050505b919050565b600073ffffffffffffffffffffffffffffffffffffffff168273ffffffffffffffffffffffffffffffffffffffff16141561187d576040517f08c379a0000000000000000000000000000000000000000000000000000000008152600401611874906132d2565b60405180910390fd5b611886816113a2565b156118c6576040517f08c379a00000000000000000000000000000000000000000000000000000000081526004016118bd9061333e565b60405180910390fd5b6118d26000838361140e565b6001600360008473ffffffffffffffffffffffffffffffffffffffff1673ffffffffffffffffffffffffffffffffffffffff16815260200190815260200160002060008282546119229190612b1d565b92505081905550816002600083815260200190815260200160002060006101000a81548173ffffffffffffffffffffffffffffffffffffffff021916908373ffffffffffffffffffffffffffffffffffffffff160217905550808273ffffffffffffffffffffffffffffffffffffffff16600073ffffffffffffffffffffffffffffffffffffffff167fddf252ad1be2c89b69c2b068fc378daa952ba7f163c4a11628f55a4df523b3ef60405160405180910390a46119e360008383611413565b5050565b8280546119f390612166565b90600052602060002090601f016020900481019282611a155760008555611a5c565b82601f10611a2e57805160ff1916838001178555611a5c565b82800160010185558215611a5c579182015b82811115611a5b578251825591602001919060010190611a40565b5b509050611a699190611a6d565b5090565b5b80821115611a86576000816000905550600101611a6e565b5090565b6000604051905090565b600080fd5b600080fd5b60007fffffffff0000000000000000000000000000000000000000000000000000000082169050919050565b611ad381611a9e565b8114611ade57600080fd5b50565b600081359050611af081611aca565b92915050565b600060208284031215611b0c57611b0b611a94565b5b6000611b1a84828501611ae1565b91505092915050565b60008115159050919050565b611b3881611b23565b82525050565b6000602082019050611b536000830184611b2f565b92915050565b600081519050919050565b600082825260208201905092915050565b60005b83811015611b93578082015181840152602081019050611b78565b83811115611ba2576000848401525b50505050565b6000601f19601f8301169050919050565b6000611bc482611b59565b611bce8185611b64565b9350611bde818560208601611b75565b611be781611ba8565b840191505092915050565b60006020820190508181036000830152611c0c8184611bb9565b905092915050565b6000819050919050565b611c2781611c14565b8114611c3257600080fd5b50565b600081359050611c4481611c1e565b92915050565b600060208284031215611c6057611c5f611a94565b5b6000611c6e84828501611c35565b91505092915050565b600073ffffffffffffffffffffffffffffffffffffffff82169050919050565b6000611ca282611c77565b9050919050565b611cb281611c97565b82525050565b6000602082019050611ccd6000830184611ca9565b92915050565b611cdc81611c97565b8114611ce757600080fd5b50565b600081359050611cf981611cd3565b92915050565b60008060408385031215611d1657611d15611a94565b5b6000611d2485828601611cea565b9250506020611d3585828601611c35565b9150509250929050565b600080600060608486031215611d5857611d57611a94565b5b6000611d6686828701611cea565b9350506020611d7786828701611cea565b9250506040611d8886828701611c35565b9150509250925092565b600060208284031215611da857611da7611a94565b5b6000611db684828501611cea565b91505092915050565b611dc881611c14565b82525050565b6000602082019050611de36000830184611dbf565b92915050565b611df281611b23565b8114611dfd57600080fd5b50565b600081359050611e0f81611de9565b92915050565b60008060408385031215611e2c57611e2b611a94565b5b6000611e3a85828601611cea565b9250506020611e4b85828601611e00565b9150509250929050565b600080fd5b600080fd5b7f4e487b7100000000000000000000000000000000000000000000000000000000600052604160045260246000fd5b611e9782611ba8565b810181811067ffffffffffffffff82111715611eb657611eb5611e5f565b5b80604052505050565b6000611ec9611a8a565b9050611ed58282611e8e565b919050565b600067ffffffffffffffff821115611ef557611ef4611e5f565b5b611efe82611ba8565b9050602081019050919050565b82818337600083830152505050565b6000611f2d611f2884611eda565b611ebf565b905082815260208101848484011115611f4957611f48611e5a565b5b611f54848285611f0b565b509392505050565b600082601f830112611f7157611f70611e55565b5b8135611f81848260208601611f1a565b91505092915050565b60008060008060808587031215611fa457611fa3611a94565b5b6000611fb287828801611cea565b9450506020611fc387828801611cea565b9350506040611fd487828801611c35565b925050606085013567ffffffffffffffff811115611ff557611ff4611a99565b5b61200187828801611f5c565b91505092959194509250565b600067ffffffffffffffff82111561202857612027611e5f565b5b61203182611ba8565b9050602081019050919050565b600061205161204c8461200d565b611ebf565b90508281526020810184848401111561206d5761206c611e5a565b5b612078848285611f0b565b509392505050565b600082601f83011261209557612094611e55565b5b81356120a584826020860161203e565b91505092915050565b6000602082840312156120c4576120c3611a94565b5b600082013567ffffffffffffffff8111156120e2576120e1611a99565b5b6120ee84828501612080565b91505092915050565b6000806040838503121561210e5761210d611a94565b5b600061211c85828601611cea565b925050602061212d85828601611cea565b9150509250929050565b7f4e487b7100000000000000000000000000000000000000000000000000000000600052602260045260246000fd5b6000600282049050600182168061217e57607f821691505b6020821081141561219257612191612137565b5b50919050565b7f4552433732313a20617070726f76616c20746f2063757272656e74206f776e6560008201527f7200000000000000000000000000000000000000000000000000000000000000602082015250565b60006121f4602183611b64565b91506121ff82612198565b604082019050919050565b60006020820190508181036000830152612223816121e7565b9050919050565b7f4552433732313a20617070726f76652063616c6c6572206973206e6f7420746f60008201527f6b656e206f776e6572206e6f7220617070726f76656420666f7220616c6c0000602082015250565b6000612286603e83611b64565b91506122918261222a565b604082019050919050565b600060208201905081810360008301526122b581612279565b9050919050565b7f4552433732313a2063616c6c6572206973206e6f7420746f6b656e206f776e6560008201527f72206e6f7220617070726f766564000000000000000000000000000000000000602082015250565b6000612318602e83611b64565b9150612323826122bc565b604082019050919050565b600060208201905081810360008301526123478161230b565b9050919050565b7f4552433732313a20696e76616c696420746f6b656e2049440000000000000000600082015250565b6000612384601883611b64565b915061238f8261234e565b602082019050919050565b600060208201905081810360008301526123b381612377565b9050919050565b7f4552433732313a2061646472657373207a65726f206973206e6f74206120766160008201527f6c6964206f776e65720000000000000000000000000000000000000000000000602082015250565b6000612416602983611b64565b9150612421826123ba565b604082019050919050565b6000602082019050818103600083015261244581612409565b9050919050565b600081905092915050565b7f3c73766720786d6c6e733d22687474703a2f2f7777772e77332e6f72672f323060008201527f30302f73766722207072657365727665417370656374526174696f3d22784d6960208201527f6e594d696e206d656574222076696577426f783d22302030203335302033353060408201527f223e000000000000000000000000000000000000000000000000000000000000606082015250565b60006124ff60628361244c565b915061250a82612457565b606282019050919050565b7f3c7374796c653e2e62617365207b2066696c6c3a2077686974653b20666f6e7460008201527f2d66616d696c793a2073657269663b20666f6e742d73697a653a20313470783b60208201527f207d3c2f7374796c653e00000000000000000000000000000000000000000000604082015250565b6000612597604a8361244c565b91506125a282612515565b604a82019050919050565b7f3c726563742077696474683d223130302522206865696768743d22313030252260008201527f2066696c6c3d22626c61636b22202f3e00000000000000000000000000000000602082015250565b600061260960308361244c565b9150612614826125ad565b603082019050919050565b7f3c7465787420783d223530252220793d223430252220636c6173733d2262617360008201527f652220646f6d696e616e742d626173656c696e653d226d6964646c652220746560208201527f78742d616e63686f723d226d6964646c65223e00000000000000000000000000604082015250565b60006126a160538361244c565b91506126ac8261261f565b605382019050919050565b7f57617272656e7479204d696e7465720000000000000000000000000000000000600082015250565b60006126ed600f8361244c565b91506126f8826126b7565b600f82019050919050565b7f3c2f746578743e00000000000000000000000000000000000000000000000000600082015250565b600061273960078361244c565b915061274482612703565b600782019050919050565b7f3c7465787420783d223530252220793d223530252220636c6173733d2262617360008201527f652220646f6d696e616e742d626173656c696e653d226d6964646c652220746560208201527f78742d616e63686f723d226d6964646c65223e00000000000000000000000000604082015250565b60006127d160538361244c565b91506127dc8261274f565b605382019050919050565b7f4465736372697074696f6e204865726521000000000000000000000000000000600082015250565b600061281d60118361244c565b9150612828826127e7565b601182019050919050565b7f3c2f7376673e0000000000000000000000000000000000000000000000000000600082015250565b600061286960068361244c565b915061287482612833565b600682019050919050565b600061288a826124f2565b91506128958261258a565b91506128a0826125fc565b91506128ab82612694565b91506128b6826126e0565b91506128c18261272c565b91506128cc826127c4565b91506128d782612810565b91506128e28261272c565b91506128ed8261285c565b9150819050919050565b7f646174613a696d6167652f7376672b786d6c3b6261736536342c000000000000600082015250565b600061292d601a8361244c565b9150612938826128f7565b601a82019050919050565b600061294e82611b59565b612958818561244c565b9350612968818560208601611b75565b80840191505092915050565b600061297f82612920565b915061298b8284612943565b915081905092915050565b7f4552433732313a207472616e736665722066726f6d20696e636f72726563742060008201527f6f776e6572000000000000000000000000000000000000000000000000000000602082015250565b60006129f2602583611b64565b91506129fd82612996565b604082019050919050565b60006020820190508181036000830152612a21816129e5565b9050919050565b7f4552433732313a207472616e7366657220746f20746865207a65726f2061646460008201527f7265737300000000000000000000000000000000000000000000000000000000602082015250565b6000612a84602483611b64565b9150612a8f82612a28565b604082019050919050565b60006020820190508181036000830152612ab381612a77565b9050919050565b7f4e487b7100000000000000000000000000000000000000000000000000000000600052601160045260246000fd5b6000612af482611c14565b9150612aff83611c14565b925082821015612b1257612b11612aba565b5b828203905092915050565b6000612b2882611c14565b9150612b3383611c14565b9250827fffffffffffffffffffffffffffffffffffffffffffffffffffffffffffffffff03821115612b6857612b67612aba565b5b828201905092915050565b7f4552433732313a20617070726f766520746f2063616c6c657200000000000000600082015250565b6000612ba9601983611b64565b9150612bb482612b73565b602082019050919050565b60006020820190508181036000830152612bd881612b9c565b9050919050565b7f4e487b7100000000000000000000000000000000000000000000000000000000600052601260045260246000fd5b6000612c1982611c14565b9150612c2483611c14565b925082612c3457612c33612bdf565b5b828204905092915050565b6000612c4a82611c14565b9150612c5583611c14565b9250817fffffffffffffffffffffffffffffffffffffffffffffffffffffffffffffffff0483118215151615612c8e57612c8d612aba565b5b828202905092915050565b7f4552433732313a207472616e7366657220746f206e6f6e20455243373231526560008201527f63656976657220696d706c656d656e7465720000000000000000000000000000602082015250565b6000612cf5603283611b64565b9150612d0082612c99565b604082019050919050565b60006020820190508181036000830152612d2481612ce8565b9050919050565b6000612d378285612943565b9150612d438284612943565b91508190509392505050565b7f7b00000000000000000000000000000000000000000000000000000000000000600082015250565b6000612d8560018361244c565b9150612d9082612d4f565b600182019050919050565b7f226e616d65223a202257617272656e7479204f776e6572203a00000000000000600082015250565b6000612dd160198361244c565b9150612ddc82612d9b565b601982019050919050565b7f222c000000000000000000000000000000000000000000000000000000000000600082015250565b6000612e1d60028361244c565b9150612e2882612de7565b600282019050919050565b7f226465736372697074696f6e223a20225468697320697320796f75722077617260008201527f72656e74792063617264202121222c0000000000000000000000000000000000602082015250565b6000612e8f602f8361244c565b9150612e9a82612e33565b602f82019050919050565b7f22696d616765223a202200000000000000000000000000000000000000000000600082015250565b6000612edb600a8361244c565b9150612ee682612ea5565b600a82019050919050565b7f2200000000000000000000000000000000000000000000000000000000000000600082015250565b6000612f2760018361244c565b9150612f3282612ef1565b600182019050919050565b7f7d00000000000000000000000000000000000000000000000000000000000000600082015250565b6000612f7360018361244c565b9150612f7e82612f3d565b600182019050919050565b6000612f9482612d78565b9150612f9f82612dc4565b9150612fab8285612943565b9150612fb682612e10565b9150612fc182612e82565b9150612fcc82612ece565b9150612fd88284612943565b9150612fe382612f1a565b9150612fee82612f66565b91508190509392505050565b7f646174613a6170706c69636174696f6e2f6a736f6e3b6261736536342c000000600082015250565b6000613030601d8361244c565b915061303b82612ffa565b601d82019050919050565b600061305182613023565b915061305d8284612943565b915081905092915050565b7f45524337323155524953746f726167653a2055524920736574206f66206e6f6e60008201527f6578697374656e7420746f6b656e000000000000000000000000000000000000602082015250565b60006130c4602e83611b64565b91506130cf82613068565b604082019050919050565b600060208201905081810360008301526130f3816130b7565b9050919050565b600081519050919050565b600082825260208201905092915050565b6000613121826130fa565b61312b8185613105565b935061313b818560208601611b75565b61314481611ba8565b840191505092915050565b60006080820190506131646000830187611ca9565b6131716020830186611ca9565b61317e6040830185611dbf565b81810360608301526131908184613116565b905095945050505050565b6000815190506131aa81611aca565b92915050565b6000602082840312156131c6576131c5611a94565b5b60006131d48482850161319b565b91505092915050565b60006131e882611c14565b91507fffffffffffffffffffffffffffffffffffffffffffffffffffffffffffffffff82141561321b5761321a612aba565b5b600182019050919050565b600061323182611c14565b915061323c83611c14565b92508261324c5761324b612bdf565b5b828206905092915050565b7f4e487b7100000000000000000000000000000000000000000000000000000000600052603260045260246000fd5b7f4552433732313a206d696e7420746f20746865207a65726f2061646472657373600082015250565b60006132bc602083611b64565b91506132c782613286565b602082019050919050565b600060208201905081810360008301526132eb816132af565b9050919050565b7f4552433732313a20746f6b656e20616c7265616479206d696e74656400000000600082015250565b6000613328601c83611b64565b9150613333826132f2565b602082019050919050565b600060208201905081810360008301526133578161331b565b905091905056fe4142434445464748494a4b4c4d4e4f505152535455565758595a6162636465666768696a6b6c6d6e6f707172737475767778797a303132333435363738392b2fa2646970667358221220a7538fdad8eb13ecca6169f9178bfe3b74328973877daa1f57a368253b8283df64736f6c63430008090033",
    "linkReferences": {},
    "deployedLinkReferences": {}
}