{
  "_format": "hh-sol-artifact-1",
  "contractName": "WarrentyNFT",
  "sourceName": "contracts/WarrentyNFT.sol",
  "abi": [
    {
      "inputs": [],
      "stateMutability": "nonpayable",
      "type": "constructor"
    },
    {
      "anonymous": false,
      "inputs": [
        {
          "indexed": true,
          "internalType": "address",
          "name": "owner",
          "type": "address"
        },
        {
          "indexed": true,
          "internalType": "address",
          "name": "approved",
          "type": "address"
        },
        {
          "indexed": true,
          "internalType": "uint256",
          "name": "tokenId",
          "type": "uint256"
        }
      ],
      "name": "Approval",
      "type": "event"
    },
    {
      "anonymous": false,
      "inputs": [
        {
          "indexed": true,
          "internalType": "address",
          "name": "owner",
          "type": "address"
        },
        {
          "indexed": true,
          "internalType": "address",
          "name": "operator",
          "type": "address"
        },
        {
          "indexed": false,
          "internalType": "bool",
          "name": "approved",
          "type": "bool"
        }
      ],
      "name": "ApprovalForAll",
      "type": "event"
    },
    {
      "anonymous": false,
      "inputs": [
        {
          "indexed": true,
          "internalType": "address",
          "name": "previousOwner",
          "type": "address"
        },
        {
          "indexed": true,
          "internalType": "address",
          "name": "newOwner",
          "type": "address"
        }
      ],
      "name": "OwnershipTransferred",
      "type": "event"
    },
    {
      "anonymous": false,
      "inputs": [
        {
          "indexed": true,
          "internalType": "address",
          "name": "from",
          "type": "address"
        },
        {
          "indexed": true,
          "internalType": "address",
          "name": "to",
          "type": "address"
        },
        {
          "indexed": true,
          "internalType": "uint256",
          "name": "tokenId",
          "type": "uint256"
        }
      ],
      "name": "Transfer",
      "type": "event"
    },
    {
      "inputs": [
        {
          "internalType": "uint256",
          "name": "tokenId",
          "type": "uint256"
        }
      ],
      "name": "Burn",
      "outputs": [
        {
          "internalType": "string",
          "name": "",
          "type": "string"
        }
      ],
      "stateMutability": "payable",
      "type": "function"
    },
    {
      "inputs": [
        {
          "internalType": "uint256",
          "name": "tokenId",
          "type": "uint256"
        }
      ],
      "name": "DateOfPurchase",
      "outputs": [
        {
          "internalType": "uint256",
          "name": "",
          "type": "uint256"
        }
      ],
      "stateMutability": "view",
      "type": "function"
    },
    {
      "inputs": [
        {
          "internalType": "uint256",
          "name": "tokenId",
          "type": "uint256"
        }
      ],
      "name": "IsExpire",
      "outputs": [
        {
          "internalType": "string",
          "name": "",
          "type": "string"
        }
      ],
      "stateMutability": "view",
      "type": "function"
    },
    {
      "inputs": [
        {
          "internalType": "uint256",
          "name": "tokenId",
          "type": "uint256"
        }
      ],
      "name": "ItemType",
      "outputs": [
        {
          "internalType": "string",
          "name": "",
          "type": "string"
        }
      ],
      "stateMutability": "view",
      "type": "function"
    },
    {
      "inputs": [
        {
          "internalType": "uint256",
          "name": "tokenId",
          "type": "uint256"
        }
      ],
      "name": "Repairs",
      "outputs": [
        {
          "internalType": "uint256",
          "name": "",
          "type": "uint256"
        }
      ],
      "stateMutability": "view",
      "type": "function"
    },
    {
      "inputs": [
        {
          "internalType": "address",
          "name": "to",
          "type": "address"
        },
        {
          "internalType": "uint256",
          "name": "tokenId",
          "type": "uint256"
        }
      ],
      "name": "approve",
      "outputs": [],
      "stateMutability": "nonpayable",
      "type": "function"
    },
    {
      "inputs": [
        {
          "internalType": "address",
          "name": "owner",
          "type": "address"
        }
      ],
      "name": "balanceOf",
      "outputs": [
        {
          "internalType": "uint256",
          "name": "",
          "type": "uint256"
        }
      ],
      "stateMutability": "view",
      "type": "function"
    },
    {
      "inputs": [
        {
          "internalType": "uint256",
          "name": "tokenId",
          "type": "uint256"
        }
      ],
      "name": "generateCharacter",
      "outputs": [
        {
          "internalType": "string",
          "name": "",
          "type": "string"
        }
      ],
      "stateMutability": "view",
      "type": "function"
    },
    {
      "inputs": [
        {
          "internalType": "uint256",
          "name": "tokenId",
          "type": "uint256"
        }
      ],
      "name": "getApproved",
      "outputs": [
        {
          "internalType": "address",
          "name": "",
          "type": "address"
        }
      ],
      "stateMutability": "view",
      "type": "function"
    },
    {
      "inputs": [
        {
          "internalType": "address",
          "name": "owner",
          "type": "address"
        },
        {
          "internalType": "address",
          "name": "operator",
          "type": "address"
        }
      ],
      "name": "isApprovedForAll",
      "outputs": [
        {
          "internalType": "bool",
          "name": "",
          "type": "bool"
        }
      ],
      "stateMutability": "view",
      "type": "function"
    },
    {
      "inputs": [
        {
          "internalType": "string",
          "name": "_name",
          "type": "string"
        },
        {
          "internalType": "string",
          "name": "_product",
          "type": "string"
        },
        {
          "internalType": "string",
          "name": "_serial",
          "type": "string"
        },
        {
          "internalType": "address",
          "name": "cust",
          "type": "address"
        },
        {
          "internalType": "uint256",
          "name": "_month",
          "type": "uint256"
        }
      ],
      "name": "mint",
      "outputs": [],
      "stateMutability": "nonpayable",
      "type": "function"
    },
    {
      "inputs": [
        {
          "internalType": "uint256",
          "name": "tokenId",
          "type": "uint256"
        }
      ],
      "name": "monthOfExpiry",
      "outputs": [
        {
          "internalType": "uint256",
          "name": "",
          "type": "uint256"
        }
      ],
      "stateMutability": "view",
      "type": "function"
    },
    {
      "inputs": [],
      "name": "name",
      "outputs": [
        {
          "internalType": "string",
          "name": "",
          "type": "string"
        }
      ],
      "stateMutability": "view",
      "type": "function"
    },
    {
      "inputs": [],
      "name": "owner",
      "outputs": [
        {
          "internalType": "address",
          "name": "",
          "type": "address"
        }
      ],
      "stateMutability": "view",
      "type": "function"
    },
    {
      "inputs": [
        {
          "internalType": "uint256",
          "name": "tokenId",
          "type": "uint256"
        }
      ],
      "name": "ownerOf",
      "outputs": [
        {
          "internalType": "address",
          "name": "",
          "type": "address"
        }
      ],
      "stateMutability": "view",
      "type": "function"
    },
    {
      "inputs": [],
      "name": "renounceOwnership",
      "outputs": [],
      "stateMutability": "nonpayable",
      "type": "function"
    },
    {
      "inputs": [
        {
          "internalType": "address",
          "name": "from",
          "type": "address"
        },
        {
          "internalType": "address",
          "name": "to",
          "type": "address"
        },
        {
          "internalType": "uint256",
          "name": "tokenId",
          "type": "uint256"
        }
      ],
      "name": "safeTransferFrom",
      "outputs": [],
      "stateMutability": "nonpayable",
      "type": "function"
    },
    {
      "inputs": [
        {
          "internalType": "address",
          "name": "from",
          "type": "address"
        },
        {
          "internalType": "address",
          "name": "to",
          "type": "address"
        },
        {
          "internalType": "uint256",
          "name": "tokenId",
          "type": "uint256"
        },
        {
          "internalType": "bytes",
          "name": "data",
          "type": "bytes"
        }
      ],
      "name": "safeTransferFrom",
      "outputs": [],
      "stateMutability": "nonpayable",
      "type": "function"
    },
    {
      "inputs": [
        {
          "internalType": "address",
          "name": "operator",
          "type": "address"
        },
        {
          "internalType": "bool",
          "name": "approved",
          "type": "bool"
        }
      ],
      "name": "setApprovalForAll",
      "outputs": [],
      "stateMutability": "nonpayable",
      "type": "function"
    },
    {
      "inputs": [
        {
          "internalType": "uint256",
          "name": "tokenId",
          "type": "uint256"
        }
      ],
      "name": "setRepairs",
      "outputs": [],
      "stateMutability": "nonpayable",
      "type": "function"
    },
    {
      "inputs": [
        {
          "internalType": "bytes4",
          "name": "interfaceId",
          "type": "bytes4"
        }
      ],
      "name": "supportsInterface",
      "outputs": [
        {
          "internalType": "bool",
          "name": "",
          "type": "bool"
        }
      ],
      "stateMutability": "view",
      "type": "function"
    },
    {
      "inputs": [],
      "name": "symbol",
      "outputs": [
        {
          "internalType": "string",
          "name": "",
          "type": "string"
        }
      ],
      "stateMutability": "view",
      "type": "function"
    },
    {
      "inputs": [
        {
          "internalType": "uint256",
          "name": "tokenId",
          "type": "uint256"
        }
      ],
      "name": "tokenURI",
      "outputs": [
        {
          "internalType": "string",
          "name": "",
          "type": "string"
        }
      ],
      "stateMutability": "view",
      "type": "function"
    },
    {
      "inputs": [
        {
          "internalType": "address",
          "name": "from",
          "type": "address"
        },
        {
          "internalType": "address",
          "name": "to",
          "type": "address"
        },
        {
          "internalType": "uint256",
          "name": "tokenId",
          "type": "uint256"
        }
      ],
      "name": "transferFrom",
      "outputs": [],
      "stateMutability": "nonpayable",
      "type": "function"
    },
    {
      "inputs": [
        {
          "internalType": "address",
          "name": "newOwner",
          "type": "address"
        }
      ],
      "name": "transferOwnership",
      "outputs": [],
      "stateMutability": "nonpayable",
      "type": "function"
    }
  ],
  "bytecode": "0x60806040523480156200001157600080fd5b506040518060400160405280600881526020017f57617272656e74790000000000000000000000000000000000000000000000008152506040518060400160405280600481526020017f575254590000000000000000000000000000000000000000000000000000000081525081600090805190602001906200009692919062000220565b508060019080519060200190620000af92919062000220565b505050620000d2620000c66200012860201b60201c565b6200013060201b60201c565b620000e2620001f660201b60201c565b600860006101000a81548173ffffffffffffffffffffffffffffffffffffffff021916908373ffffffffffffffffffffffffffffffffffffffff16021790555062000335565b600033905090565b6000600760009054906101000a900473ffffffffffffffffffffffffffffffffffffffff16905081600760006101000a81548173ffffffffffffffffffffffffffffffffffffffff021916908373ffffffffffffffffffffffffffffffffffffffff1602179055508173ffffffffffffffffffffffffffffffffffffffff168173ffffffffffffffffffffffffffffffffffffffff167f8be0079c531659141344cd1fd0a4f28419497f9722a3daafe3b4186f6b6457e060405160405180910390a35050565b6000600760009054906101000a900473ffffffffffffffffffffffffffffffffffffffff16905090565b8280546200022e90620002ff565b90600052602060002090601f0160209004810192826200025257600085556200029e565b82601f106200026d57805160ff19168380011785556200029e565b828001600101855582156200029e579182015b828111156200029d57825182559160200191906001019062000280565b5b509050620002ad9190620002b1565b5090565b5b80821115620002cc576000816000905550600101620002b2565b5090565b7f4e487b7100000000000000000000000000000000000000000000000000000000600052602260045260246000fd5b600060028204905060018216806200031857607f821691505b602082108114156200032f576200032e620002d0565b5b50919050565b6143e780620003456000396000f3fe6080604052600436106101665760003560e01c8063715018a6116100d1578063b88d4fde1161008a578063c87e0f5511610064578063c87e0f5514610577578063ca775d2c146105b4578063e985e9c5146105f1578063f2fde38b1461062e57610166565b8063b88d4fde146104e1578063b90306ad1461050a578063c87b56dd1461053a57610166565b8063715018a6146103d157806371971798146103e85780638a6f0d82146104255780638da5cb5b1461046257806395d89b411461048d578063a22cb465146104b857610166565b806323b872dd1161012357806323b872dd1461029f57806342842e0e146102c85780635170c7e9146102f15780636352211e1461031a5780636528a7cf1461035757806370a082311461039457610166565b806301ffc9a71461016b57806306fdde03146101a8578063081812fc146101d3578063095ea7b3146102105780630daefed5146102395780632162240b14610276575b600080fd5b34801561017757600080fd5b50610192600480360381019061018d9190612739565b610657565b60405161019f9190612781565b60405180910390f35b3480156101b457600080fd5b506101bd610739565b6040516101ca9190612835565b60405180910390f35b3480156101df57600080fd5b506101fa60048036038101906101f5919061288d565b6107cb565b60405161020791906128fb565b60405180910390f35b34801561021c57600080fd5b5061023760048036038101906102329190612942565b610811565b005b34801561024557600080fd5b50610260600480360381019061025b919061288d565b610929565b60405161026d9190612835565b60405180910390f35b34801561028257600080fd5b5061029d60048036038101906102989190612ab7565b610994565b005b3480156102ab57600080fd5b506102c660048036038101906102c19190612b86565b610a81565b005b3480156102d457600080fd5b506102ef60048036038101906102ea9190612b86565b610ae1565b005b3480156102fd57600080fd5b506103186004803603810190610313919061288d565b610b01565b005b34801561032657600080fd5b50610341600480360381019061033c919061288d565b610b42565b60405161034e91906128fb565b60405180910390f35b34801561036357600080fd5b5061037e6004803603810190610379919061288d565b610bf4565b60405161038b9190612be8565b60405180910390f35b3480156103a057600080fd5b506103bb60048036038101906103b69190612c03565b610c14565b6040516103c89190612be8565b60405180910390f35b3480156103dd57600080fd5b506103e6610ccc565b005b3480156103f457600080fd5b5061040f600480360381019061040a919061288d565b610ce0565b60405161041c9190612835565b60405180910390f35b34801561043157600080fd5b5061044c6004803603810190610447919061288d565b610d88565b6040516104599190612835565b60405180910390f35b34801561046e57600080fd5b50610477610ef7565b60405161048491906128fb565b60405180910390f35b34801561049957600080fd5b506104a2610f21565b6040516104af9190612835565b60405180910390f35b3480156104c457600080fd5b506104df60048036038101906104da9190612c5c565b610fb3565b005b3480156104ed57600080fd5b5061050860048036038101906105039190612d3d565b610fc9565b005b610524600480360381019061051f919061288d565b61102b565b6040516105319190612835565b60405180910390f35b34801561054657600080fd5b50610561600480360381019061055c919061288d565b61110b565b60405161056e9190612835565b60405180910390f35b34801561058357600080fd5b5061059e6004803603810190610599919061288d565b61111d565b6040516105ab9190612be8565b60405180910390f35b3480156105c057600080fd5b506105db60048036038101906105d6919061288d565b61118d565b6040516105e89190612be8565b60405180910390f35b3480156105fd57600080fd5b5061061860048036038101906106139190612dc0565b6111fd565b6040516106259190612781565b60405180910390f35b34801561063a57600080fd5b5061065560048036038101906106509190612c03565b611291565b005b60007f80ac58cd000000000000000000000000000000000000000000000000000000007bffffffffffffffffffffffffffffffffffffffffffffffffffffffff1916827bffffffffffffffffffffffffffffffffffffffffffffffffffffffff1916148061072257507f5b5e139f000000000000000000000000000000000000000000000000000000007bffffffffffffffffffffffffffffffffffffffffffffffffffffffff1916827bffffffffffffffffffffffffffffffffffffffffffffffffffffffff1916145b80610732575061073182611315565b5b9050919050565b60606000805461074890612e2f565b80601f016020809104026020016040519081016040528092919081815260200182805461077490612e2f565b80156107c15780601f10610796576101008083540402835291602001916107c1565b820191906000526020600020905b8154815290600101906020018083116107a457829003601f168201915b5050505050905090565b60006107d68261137f565b6004600083815260200190815260200160002060009054906101000a900473ffffffffffffffffffffffffffffffffffffffff169050919050565b600061081c82610b42565b90508073ffffffffffffffffffffffffffffffffffffffff168373ffffffffffffffffffffffffffffffffffffffff16141561088d576040517f08c379a000000000000000000000000000000000000000000000000000000000815260040161088490612ed3565b60405180910390fd5b8073ffffffffffffffffffffffffffffffffffffffff166108ac6113ca565b73ffffffffffffffffffffffffffffffffffffffff1614806108db57506108da816108d56113ca565b6111fd565b5b61091a576040517f08c379a000000000000000000000000000000000000000000000000000000000815260040161091190612f65565b60405180910390fd5b61092483836113d2565b505050565b60606000600960008481526020019081526020016000206001016040516020016109539190613400565b604051602081830303815290604052905061096d8161148b565b60405160200161097d91906134f7565b604051602081830303815290604052915050919050565b60004290506040518060c0016040528087815260200186815260200185815260200142815260200160008152602001838152506009600083815260200190815260200160002060008201518160000190805190602001906109f69291906125ea565b506020820151816001019080519060200190610a139291906125ea565b506040820151816002019080519060200190610a309291906125ea565b50606082015181600301556080820151816004015560a08201518160050155905050610a5c33826115ef565b610a6e81610a698361160d565b611699565b610a79338483610a81565b505050505050565b610a92610a8c6113ca565b8261170d565b610ad1576040517f08c379a0000000000000000000000000000000000000000000000000000000008152600401610ac89061358b565b60405180910390fd5b610adc8383836117a2565b505050565b610afc83838360405180602001604052806000815250610fc9565b505050565b600960008281526020019081526020016000206004016000815480929190610b28906135da565b9190505550610b3f81610b3a8361160d565b611699565b50565b6000806002600084815260200190815260200160002060009054906101000a900473ffffffffffffffffffffffffffffffffffffffff169050600073ffffffffffffffffffffffffffffffffffffffff168173ffffffffffffffffffffffffffffffffffffffff161415610beb576040517f08c379a0000000000000000000000000000000000000000000000000000000008152600401610be29061366f565b60405180910390fd5b80915050919050565b600060096000838152602001908152602001600020600401549050919050565b60008073ffffffffffffffffffffffffffffffffffffffff168273ffffffffffffffffffffffffffffffffffffffff161415610c85576040517f08c379a0000000000000000000000000000000000000000000000000000000008152600401610c7c90613701565b60405180910390fd5b600360008373ffffffffffffffffffffffffffffffffffffffff1673ffffffffffffffffffffffffffffffffffffffff168152602001908152602001600020549050919050565b610cd4611a09565b610cde6000611a87565b565b6060600960008381526020019081526020016000206001018054610d0390612e2f565b80601f0160208091040260200160405190810160405280929190818152602001828054610d2f90612e2f565b8015610d7c5780601f10610d5157610100808354040283529160200191610d7c565b820191906000526020600020905b815481529060010190602001808311610d5f57829003601f168201915b50505050509050919050565b6060600660096000848152602001908152602001600020600501541415610e4f5762eff1006009600084815260200190815260200160002060030154610dce9190613721565b421115610e12576040518060400160405280600781526020017f45787069726564000000000000000000000000000000000000000000000000008152509050610ef2565b6040518060400160405280600b81526020017f4e6f7420457870697265640000000000000000000000000000000000000000008152509050610ef2565b6301e133806009600084815260200190815260200160002060030154610e759190613721565b421115610eb9576040518060400160405280600781526020017f45787069726564000000000000000000000000000000000000000000000000008152509050610ef2565b6040518060400160405280600b81526020017f4e6f74204578706972656400000000000000000000000000000000000000000081525090505b919050565b6000600760009054906101000a900473ffffffffffffffffffffffffffffffffffffffff16905090565b606060018054610f3090612e2f565b80601f0160208091040260200160405190810160405280929190818152602001828054610f5c90612e2f565b8015610fa95780601f10610f7e57610100808354040283529160200191610fa9565b820191906000526020600020905b815481529060010190602001808311610f8c57829003601f168201915b5050505050905090565b610fc5610fbe6113ca565b8383611b4d565b5050565b610fda610fd46113ca565b8361170d565b611019576040517f08c379a00000000000000000000000000000000000000000000000000000000081526004016110109061358b565b60405180910390fd5b61102584848484611cba565b50505050565b606060405160200161103c906137c3565b6040516020818303038152906040528051906020012061105b83610d88565b60405160200161106b91906137d8565b6040516020818303038152906040528051906020012014156110cd5761109082611d16565b6040518060400160405280600781526020017f53756363657373000000000000000000000000000000000000000000000000008152509050611106565b6040518060400160405280600b81526020017f4e6f74204578706972656400000000000000000000000000000000000000000081525090505b919050565b606061111682611d22565b9050919050565b600061113061112a6113ca565b8361170d565b61116f576040517f08c379a00000000000000000000000000000000000000000000000000000000081526004016111669061358b565b60405180910390fd5b60096000838152602001908152602001600020600301549050919050565b60006111a061119a6113ca565b8361170d565b6111df576040517f08c379a00000000000000000000000000000000000000000000000000000000081526004016111d69061358b565b60405180910390fd5b60096000838152602001908152602001600020600501549050919050565b6000600560008473ffffffffffffffffffffffffffffffffffffffff1673ffffffffffffffffffffffffffffffffffffffff16815260200190815260200160002060008373ffffffffffffffffffffffffffffffffffffffff1673ffffffffffffffffffffffffffffffffffffffff16815260200190815260200160002060009054906101000a900460ff16905092915050565b611299611a09565b600073ffffffffffffffffffffffffffffffffffffffff168173ffffffffffffffffffffffffffffffffffffffff161415611309576040517f08c379a000000000000000000000000000000000000000000000000000000000815260040161130090613861565b60405180910390fd5b61131281611a87565b50565b60007f01ffc9a7000000000000000000000000000000000000000000000000000000007bffffffffffffffffffffffffffffffffffffffffffffffffffffffff1916827bffffffffffffffffffffffffffffffffffffffffffffffffffffffff1916149050919050565b61138881611e35565b6113c7576040517f08c379a00000000000000000000000000000000000000000000000000000000081526004016113be9061366f565b60405180910390fd5b50565b600033905090565b816004600083815260200190815260200160002060006101000a81548173ffffffffffffffffffffffffffffffffffffffff021916908373ffffffffffffffffffffffffffffffffffffffff160217905550808273ffffffffffffffffffffffffffffffffffffffff1661144583610b42565b73ffffffffffffffffffffffffffffffffffffffff167f8c5be1e5ebec7d5bd14f71427d1e84f3dd0314c0f7b2291e5b200ac8c7c3b92560405160405180910390a45050565b60606000825114156114ae576040518060200160405280600081525090506115ea565b600060405180606001604052806040815260200161437260409139905060006003600285516114dd9190613721565b6114e791906138b0565b60046114f391906138e1565b67ffffffffffffffff81111561150c5761150b61298c565b5b6040519080825280601f01601f19166020018201604052801561153e5781602001600182028036833780820191505090505b509050600182016020820185865187015b808210156115aa576003820191508151603f8160121c168501518453600184019350603f81600c1c168501518453600184019350603f8160061c168501518453600184019350603f811685015184536001840193505061154f565b50506003865106600181146115c657600281146115d9576115e1565b603d6001830353603d60028303536115e1565b603d60018303535b50505080925050505b919050565b611609828260405180602001604052806000815250611ea1565b5050565b606060006009600084815260200190815260200160002060000161163084610929565b6009600086815260200190815260200160002060020160405160200161165893929190613ca5565b60405160208183030381529060405290506116728161148b565b6040516020016116829190613dbc565b604051602081830303815290604052915050919050565b6116a282611e35565b6116e1576040517f08c379a00000000000000000000000000000000000000000000000000000000081526004016116d890613e50565b60405180910390fd5b806006600084815260200190815260200160002090805190602001906117089291906125ea565b505050565b60008061171983610b42565b90508073ffffffffffffffffffffffffffffffffffffffff168473ffffffffffffffffffffffffffffffffffffffff16148061175b575061175a81856111fd565b5b8061179957508373ffffffffffffffffffffffffffffffffffffffff16611781846107cb565b73ffffffffffffffffffffffffffffffffffffffff16145b91505092915050565b8273ffffffffffffffffffffffffffffffffffffffff166117c282610b42565b73ffffffffffffffffffffffffffffffffffffffff1614611818576040517f08c379a000000000000000000000000000000000000000000000000000000000815260040161180f90613ee2565b60405180910390fd5b600073ffffffffffffffffffffffffffffffffffffffff168273ffffffffffffffffffffffffffffffffffffffff161415611888576040517f08c379a000000000000000000000000000000000000000000000000000000000815260040161187f90613f74565b60405180910390fd5b611893838383611efc565b61189e6000826113d2565b6001600360008573ffffffffffffffffffffffffffffffffffffffff1673ffffffffffffffffffffffffffffffffffffffff16815260200190815260200160002060008282546118ee9190613f94565b925050819055506001600360008473ffffffffffffffffffffffffffffffffffffffff1673ffffffffffffffffffffffffffffffffffffffff16815260200190815260200160002060008282546119459190613721565b92505081905550816002600083815260200190815260200160002060006101000a81548173ffffffffffffffffffffffffffffffffffffffff021916908373ffffffffffffffffffffffffffffffffffffffff160217905550808273ffffffffffffffffffffffffffffffffffffffff168473ffffffffffffffffffffffffffffffffffffffff167fddf252ad1be2c89b69c2b068fc378daa952ba7f163c4a11628f55a4df523b3ef60405160405180910390a4611a04838383611f01565b505050565b611a116113ca565b73ffffffffffffffffffffffffffffffffffffffff16611a2f610ef7565b73ffffffffffffffffffffffffffffffffffffffff1614611a85576040517f08c379a0000000000000000000000000000000000000000000000000000000008152600401611a7c90614014565b60405180910390fd5b565b6000600760009054906101000a900473ffffffffffffffffffffffffffffffffffffffff16905081600760006101000a81548173ffffffffffffffffffffffffffffffffffffffff021916908373ffffffffffffffffffffffffffffffffffffffff1602179055508173ffffffffffffffffffffffffffffffffffffffff168173ffffffffffffffffffffffffffffffffffffffff167f8be0079c531659141344cd1fd0a4f28419497f9722a3daafe3b4186f6b6457e060405160405180910390a35050565b8173ffffffffffffffffffffffffffffffffffffffff168373ffffffffffffffffffffffffffffffffffffffff161415611bbc576040517f08c379a0000000000000000000000000000000000000000000000000000000008152600401611bb390614080565b60405180910390fd5b80600560008573ffffffffffffffffffffffffffffffffffffffff1673ffffffffffffffffffffffffffffffffffffffff16815260200190815260200160002060008473ffffffffffffffffffffffffffffffffffffffff1673ffffffffffffffffffffffffffffffffffffffff16815260200190815260200160002060006101000a81548160ff0219169083151502179055508173ffffffffffffffffffffffffffffffffffffffff168373ffffffffffffffffffffffffffffffffffffffff167f17307eab39ab6107e8899845ad3d59bd9653f200f220920489ca2b5937696c3183604051611cad9190612781565b60405180910390a3505050565b611cc58484846117a2565b611cd184848484611f06565b611d10576040517f08c379a0000000000000000000000000000000000000000000000000000000008152600401611d0790614112565b60405180910390fd5b50505050565b611d1f8161209d565b50565b6060611d2d8261137f565b6000600660008481526020019081526020016000208054611d4d90612e2f565b80601f0160208091040260200160405190810160405280929190818152602001828054611d7990612e2f565b8015611dc65780601f10611d9b57610100808354040283529160200191611dc6565b820191906000526020600020905b815481529060010190602001808311611da957829003601f168201915b505050505090506000611dd76120f0565b9050600081511415611ded578192505050611e30565b600082511115611e22578082604051602001611e0a929190614132565b60405160208183030381529060405292505050611e30565b611e2b84612107565b925050505b919050565b60008073ffffffffffffffffffffffffffffffffffffffff166002600084815260200190815260200160002060009054906101000a900473ffffffffffffffffffffffffffffffffffffffff1673ffffffffffffffffffffffffffffffffffffffff1614159050919050565b611eab838361216f565b611eb86000848484611f06565b611ef7576040517f08c379a0000000000000000000000000000000000000000000000000000000008152600401611eee90614112565b60405180910390fd5b505050565b505050565b505050565b6000611f278473ffffffffffffffffffffffffffffffffffffffff16612349565b15612090578373ffffffffffffffffffffffffffffffffffffffff1663150b7a02611f506113ca565b8786866040518563ffffffff1660e01b8152600401611f7294939291906141ab565b602060405180830381600087803b158015611f8c57600080fd5b505af1925050508015611fbd57506040513d601f19601f82011682018060405250810190611fba919061420c565b60015b612040573d8060008114611fed576040519150601f19603f3d011682016040523d82523d6000602084013e611ff2565b606091505b50600081511415612038576040517f08c379a000000000000000000000000000000000000000000000000000000000815260040161202f90614112565b60405180910390fd5b805181602001fd5b63150b7a0260e01b7bffffffffffffffffffffffffffffffffffffffffffffffffffffffff1916817bffffffffffffffffffffffffffffffffffffffffffffffffffffffff191614915050612095565b600190505b949350505050565b6120a68161236c565b60006006600083815260200190815260200160002080546120c690612e2f565b9050146120ed576006600082815260200190815260200160002060006120ec9190612670565b5b50565b606060405180602001604052806000815250905090565b60606121128261137f565b600061211c6120f0565b9050600081511161213c5760405180602001604052806000815250612167565b8061214684612489565b604051602001612157929190614132565b6040516020818303038152906040525b915050919050565b600073ffffffffffffffffffffffffffffffffffffffff168273ffffffffffffffffffffffffffffffffffffffff1614156121df576040517f08c379a00000000000000000000000000000000000000000000000000000000081526004016121d690614285565b60405180910390fd5b6121e881611e35565b15612228576040517f08c379a000000000000000000000000000000000000000000000000000000000815260040161221f906142f1565b60405180910390fd5b61223460008383611efc565b6001600360008473ffffffffffffffffffffffffffffffffffffffff1673ffffffffffffffffffffffffffffffffffffffff16815260200190815260200160002060008282546122849190613721565b92505081905550816002600083815260200190815260200160002060006101000a81548173ffffffffffffffffffffffffffffffffffffffff021916908373ffffffffffffffffffffffffffffffffffffffff160217905550808273ffffffffffffffffffffffffffffffffffffffff16600073ffffffffffffffffffffffffffffffffffffffff167fddf252ad1be2c89b69c2b068fc378daa952ba7f163c4a11628f55a4df523b3ef60405160405180910390a461234560008383611f01565b5050565b6000808273ffffffffffffffffffffffffffffffffffffffff163b119050919050565b600061237782610b42565b905061238581600084611efc565b6123906000836113d2565b6001600360008373ffffffffffffffffffffffffffffffffffffffff1673ffffffffffffffffffffffffffffffffffffffff16815260200190815260200160002060008282546123e09190613f94565b925050819055506002600083815260200190815260200160002060006101000a81549073ffffffffffffffffffffffffffffffffffffffff021916905581600073ffffffffffffffffffffffffffffffffffffffff168273ffffffffffffffffffffffffffffffffffffffff167fddf252ad1be2c89b69c2b068fc378daa952ba7f163c4a11628f55a4df523b3ef60405160405180910390a461248581600084611f01565b5050565b606060008214156124d1576040518060400160405280600181526020017f300000000000000000000000000000000000000000000000000000000000000081525090506125e5565b600082905060005b600082146125035780806124ec906135da565b915050600a826124fc91906138b0565b91506124d9565b60008167ffffffffffffffff81111561251f5761251e61298c565b5b6040519080825280601f01601f1916602001820160405280156125515781602001600182028036833780820191505090505b5090505b600085146125de5760018261256a9190613f94565b9150600a856125799190614311565b60306125859190613721565b60f81b81838151811061259b5761259a614342565b5b60200101907effffffffffffffffffffffffffffffffffffffffffffffffffffffffffffff1916908160001a905350600a856125d791906138b0565b9450612555565b8093505050505b919050565b8280546125f690612e2f565b90600052602060002090601f016020900481019282612618576000855561265f565b82601f1061263157805160ff191683800117855561265f565b8280016001018555821561265f579182015b8281111561265e578251825591602001919060010190612643565b5b50905061266c91906126b0565b5090565b50805461267c90612e2f565b6000825580601f1061268e57506126ad565b601f0160209004906000526020600020908101906126ac91906126b0565b5b50565b5b808211156126c95760008160009055506001016126b1565b5090565b6000604051905090565b600080fd5b600080fd5b60007fffffffff0000000000000000000000000000000000000000000000000000000082169050919050565b612716816126e1565b811461272157600080fd5b50565b6000813590506127338161270d565b92915050565b60006020828403121561274f5761274e6126d7565b5b600061275d84828501612724565b91505092915050565b60008115159050919050565b61277b81612766565b82525050565b60006020820190506127966000830184612772565b92915050565b600081519050919050565b600082825260208201905092915050565b60005b838110156127d65780820151818401526020810190506127bb565b838111156127e5576000848401525b50505050565b6000601f19601f8301169050919050565b60006128078261279c565b61281181856127a7565b93506128218185602086016127b8565b61282a816127eb565b840191505092915050565b6000602082019050818103600083015261284f81846127fc565b905092915050565b6000819050919050565b61286a81612857565b811461287557600080fd5b50565b60008135905061288781612861565b92915050565b6000602082840312156128a3576128a26126d7565b5b60006128b184828501612878565b91505092915050565b600073ffffffffffffffffffffffffffffffffffffffff82169050919050565b60006128e5826128ba565b9050919050565b6128f5816128da565b82525050565b600060208201905061291060008301846128ec565b92915050565b61291f816128da565b811461292a57600080fd5b50565b60008135905061293c81612916565b92915050565b60008060408385031215612959576129586126d7565b5b60006129678582860161292d565b925050602061297885828601612878565b9150509250929050565b600080fd5b600080fd5b7f4e487b7100000000000000000000000000000000000000000000000000000000600052604160045260246000fd5b6129c4826127eb565b810181811067ffffffffffffffff821117156129e3576129e261298c565b5b80604052505050565b60006129f66126cd565b9050612a0282826129bb565b919050565b600067ffffffffffffffff821115612a2257612a2161298c565b5b612a2b826127eb565b9050602081019050919050565b82818337600083830152505050565b6000612a5a612a5584612a07565b6129ec565b905082815260208101848484011115612a7657612a75612987565b5b612a81848285612a38565b509392505050565b600082601f830112612a9e57612a9d612982565b5b8135612aae848260208601612a47565b91505092915050565b600080600080600060a08688031215612ad357612ad26126d7565b5b600086013567ffffffffffffffff811115612af157612af06126dc565b5b612afd88828901612a89565b955050602086013567ffffffffffffffff811115612b1e57612b1d6126dc565b5b612b2a88828901612a89565b945050604086013567ffffffffffffffff811115612b4b57612b4a6126dc565b5b612b5788828901612a89565b9350506060612b688882890161292d565b9250506080612b7988828901612878565b9150509295509295909350565b600080600060608486031215612b9f57612b9e6126d7565b5b6000612bad8682870161292d565b9350506020612bbe8682870161292d565b9250506040612bcf86828701612878565b9150509250925092565b612be281612857565b82525050565b6000602082019050612bfd6000830184612bd9565b92915050565b600060208284031215612c1957612c186126d7565b5b6000612c278482850161292d565b91505092915050565b612c3981612766565b8114612c4457600080fd5b50565b600081359050612c5681612c30565b92915050565b60008060408385031215612c7357612c726126d7565b5b6000612c818582860161292d565b9250506020612c9285828601612c47565b9150509250929050565b600067ffffffffffffffff821115612cb757612cb661298c565b5b612cc0826127eb565b9050602081019050919050565b6000612ce0612cdb84612c9c565b6129ec565b905082815260208101848484011115612cfc57612cfb612987565b5b612d07848285612a38565b509392505050565b600082601f830112612d2457612d23612982565b5b8135612d34848260208601612ccd565b91505092915050565b60008060008060808587031215612d5757612d566126d7565b5b6000612d658782880161292d565b9450506020612d768782880161292d565b9350506040612d8787828801612878565b925050606085013567ffffffffffffffff811115612da857612da76126dc565b5b612db487828801612d0f565b91505092959194509250565b60008060408385031215612dd757612dd66126d7565b5b6000612de58582860161292d565b9250506020612df68582860161292d565b9150509250929050565b7f4e487b7100000000000000000000000000000000000000000000000000000000600052602260045260246000fd5b60006002820490506001821680612e4757607f821691505b60208210811415612e5b57612e5a612e00565b5b50919050565b7f4552433732313a20617070726f76616c20746f2063757272656e74206f776e6560008201527f7200000000000000000000000000000000000000000000000000000000000000602082015250565b6000612ebd6021836127a7565b9150612ec882612e61565b604082019050919050565b60006020820190508181036000830152612eec81612eb0565b9050919050565b7f4552433732313a20617070726f76652063616c6c6572206973206e6f7420746f60008201527f6b656e206f776e6572206e6f7220617070726f76656420666f7220616c6c0000602082015250565b6000612f4f603e836127a7565b9150612f5a82612ef3565b604082019050919050565b60006020820190508181036000830152612f7e81612f42565b9050919050565b600081905092915050565b7f3c73766720786d6c6e733d22687474703a2f2f7777772e77332e6f72672f323060008201527f30302f73766722207072657365727665417370656374526174696f3d22784d6960208201527f6e594d696e206d656574222076696577426f783d22302030203335302033353060408201527f223e000000000000000000000000000000000000000000000000000000000000606082015250565b6000613038606283612f85565b915061304382612f90565b606282019050919050565b7f3c7374796c653e2e62617365207b2066696c6c3a20636f72616c3b20666f6e7460008201527f2d66616d696c793a2073657269663b20666f6e742d73697a653a20313470783b60208201527f207d3c2f7374796c653e00000000000000000000000000000000000000000000604082015250565b60006130d0604a83612f85565b91506130db8261304e565b604a82019050919050565b7f3c726563742077696474683d223130302522206865696768743d22313030252260008201527f2066696c6c3d22626c61636b22202f3e00000000000000000000000000000000602082015250565b6000613142603083612f85565b915061314d826130e6565b603082019050919050565b7f3c7465787420783d223530252220793d223430252220636c6173733d2262617360008201527f652220646f6d696e616e742d626173656c696e653d226d6964646c652220746560208201527f78742d616e63686f723d226d6964646c65223e00000000000000000000000000604082015250565b60006131da605383612f85565b91506131e582613158565b605382019050919050565b7f57617272656e7479204361726400000000000000000000000000000000000000600082015250565b6000613226600d83612f85565b9150613231826131f0565b600d82019050919050565b7f3c2f746578743e00000000000000000000000000000000000000000000000000600082015250565b6000613272600783612f85565b915061327d8261323c565b600782019050919050565b7f3c7465787420783d223530252220793d223530252220636c6173733d2262617360008201527f652220646f6d696e616e742d626173656c696e653d226d6964646c652220746560208201527f78742d616e63686f723d226d6964646c65223e00000000000000000000000000604082015250565b600061330a605383612f85565b915061331582613288565b605382019050919050565b60008190508160005260206000209050919050565b6000815461334281612e2f565b61334c8186612f85565b945060018216600081146133675760018114613378576133ab565b60ff198316865281860193506133ab565b61338185613320565b60005b838110156133a357815481890152600182019150602081019050613384565b838801955050505b50505092915050565b7f3c2f7376673e0000000000000000000000000000000000000000000000000000600082015250565b60006133ea600683612f85565b91506133f5826133b4565b600682019050919050565b600061340b8261302b565b9150613416826130c3565b915061342182613135565b915061342c826131cd565b915061343782613219565b915061344282613265565b915061344d826132fd565b91506134598284613335565b915061346482613265565b915061346f826133dd565b915081905092915050565b7f646174613a696d6167652f7376672b786d6c3b6261736536342c000000000000600082015250565b60006134b0601a83612f85565b91506134bb8261347a565b601a82019050919050565b60006134d18261279c565b6134db8185612f85565b93506134eb8185602086016127b8565b80840191505092915050565b6000613502826134a3565b915061350e82846134c6565b915081905092915050565b7f4552433732313a2063616c6c6572206973206e6f7420746f6b656e206f776e6560008201527f72206e6f7220617070726f766564000000000000000000000000000000000000602082015250565b6000613575602e836127a7565b915061358082613519565b604082019050919050565b600060208201905081810360008301526135a481613568565b9050919050565b7f4e487b7100000000000000000000000000000000000000000000000000000000600052601160045260246000fd5b60006135e582612857565b91507fffffffffffffffffffffffffffffffffffffffffffffffffffffffffffffffff821415613618576136176135ab565b5b600182019050919050565b7f4552433732313a20696e76616c696420746f6b656e2049440000000000000000600082015250565b60006136596018836127a7565b915061366482613623565b602082019050919050565b600060208201905081810360008301526136888161364c565b9050919050565b7f4552433732313a2061646472657373207a65726f206973206e6f74206120766160008201527f6c6964206f776e65720000000000000000000000000000000000000000000000602082015250565b60006136eb6029836127a7565b91506136f68261368f565b604082019050919050565b6000602082019050818103600083015261371a816136de565b9050919050565b600061372c82612857565b915061373783612857565b9250827fffffffffffffffffffffffffffffffffffffffffffffffffffffffffffffffff0382111561376c5761376b6135ab565b5b828201905092915050565b7f4578706972656400000000000000000000000000000000000000000000000000600082015250565b60006137ad600783612f85565b91506137b882613777565b600782019050919050565b60006137ce826137a0565b9150819050919050565b60006137e482846134c6565b915081905092915050565b7f4f776e61626c653a206e6577206f776e657220697320746865207a65726f206160008201527f6464726573730000000000000000000000000000000000000000000000000000602082015250565b600061384b6026836127a7565b9150613856826137ef565b604082019050919050565b6000602082019050818103600083015261387a8161383e565b9050919050565b7f4e487b7100000000000000000000000000000000000000000000000000000000600052601260045260246000fd5b60006138bb82612857565b91506138c683612857565b9250826138d6576138d5613881565b5b828204905092915050565b60006138ec82612857565b91506138f783612857565b9250817fffffffffffffffffffffffffffffffffffffffffffffffffffffffffffffffff04831182151516156139305761392f6135ab565b5b828202905092915050565b7f7b00000000000000000000000000000000000000000000000000000000000000600082015250565b6000613971600183612f85565b915061397c8261393b565b600182019050919050565b7f226e616d65223a202257617272656e7479204f776e6572203a00000000000000600082015250565b60006139bd601983612f85565b91506139c882613987565b601982019050919050565b7f222c000000000000000000000000000000000000000000000000000000000000600082015250565b6000613a09600283612f85565b9150613a14826139d3565b600282019050919050565b7f226465736372697074696f6e223a20225468697320697320796f75722077617260008201527f72656e74792063617264202121222c0000000000000000000000000000000000602082015250565b6000613a7b602f83612f85565b9150613a8682613a1f565b602f82019050919050565b7f22696d616765223a202200000000000000000000000000000000000000000000600082015250565b6000613ac7600a83612f85565b9150613ad282613a91565b600a82019050919050565b7f226174747269627574657322203a205b00000000000000000000000000000000600082015250565b6000613b13601083612f85565b9150613b1e82613add565b601082019050919050565b7f2274726169745f7479706522203a202253657269616c222c0000000000000000600082015250565b6000613b5f601883612f85565b9150613b6a82613b29565b601882019050919050565b7f2276616c756522203a2022000000000000000000000000000000000000000000600082015250565b6000613bab600b83612f85565b9150613bb682613b75565b600b82019050919050565b7f2200000000000000000000000000000000000000000000000000000000000000600082015250565b6000613bf7600183612f85565b9150613c0282613bc1565b600182019050919050565b7f7d00000000000000000000000000000000000000000000000000000000000000600082015250565b6000613c43600183612f85565b9150613c4e82613c0d565b600182019050919050565b7f5d00000000000000000000000000000000000000000000000000000000000000600082015250565b6000613c8f600183612f85565b9150613c9a82613c59565b600182019050919050565b6000613cb082613964565b9150613cbb826139b0565b9150613cc78286613335565b9150613cd2826139fc565b9150613cdd82613a6e565b9150613ce882613aba565b9150613cf482856134c6565b9150613cff826139fc565b9150613d0a82613b06565b9150613d1582613964565b9150613d2082613b52565b9150613d2b82613b9e565b9150613d378284613335565b9150613d4282613bea565b9150613d4d82613c36565b9150613d5882613c82565b9150613d6382613c36565b9150819050949350505050565b7f646174613a6170706c69636174696f6e2f6a736f6e3b6261736536342c000000600082015250565b6000613da6601d83612f85565b9150613db182613d70565b601d82019050919050565b6000613dc782613d99565b9150613dd382846134c6565b915081905092915050565b7f45524337323155524953746f726167653a2055524920736574206f66206e6f6e60008201527f6578697374656e7420746f6b656e000000000000000000000000000000000000602082015250565b6000613e3a602e836127a7565b9150613e4582613dde565b604082019050919050565b60006020820190508181036000830152613e6981613e2d565b9050919050565b7f4552433732313a207472616e736665722066726f6d20696e636f72726563742060008201527f6f776e6572000000000000000000000000000000000000000000000000000000602082015250565b6000613ecc6025836127a7565b9150613ed782613e70565b604082019050919050565b60006020820190508181036000830152613efb81613ebf565b9050919050565b7f4552433732313a207472616e7366657220746f20746865207a65726f2061646460008201527f7265737300000000000000000000000000000000000000000000000000000000602082015250565b6000613f5e6024836127a7565b9150613f6982613f02565b604082019050919050565b60006020820190508181036000830152613f8d81613f51565b9050919050565b6000613f9f82612857565b9150613faa83612857565b925082821015613fbd57613fbc6135ab565b5b828203905092915050565b7f4f776e61626c653a2063616c6c6572206973206e6f7420746865206f776e6572600082015250565b6000613ffe6020836127a7565b915061400982613fc8565b602082019050919050565b6000602082019050818103600083015261402d81613ff1565b9050919050565b7f4552433732313a20617070726f766520746f2063616c6c657200000000000000600082015250565b600061406a6019836127a7565b915061407582614034565b602082019050919050565b600060208201905081810360008301526140998161405d565b9050919050565b7f4552433732313a207472616e7366657220746f206e6f6e20455243373231526560008201527f63656976657220696d706c656d656e7465720000000000000000000000000000602082015250565b60006140fc6032836127a7565b9150614107826140a0565b604082019050919050565b6000602082019050818103600083015261412b816140ef565b9050919050565b600061413e82856134c6565b915061414a82846134c6565b91508190509392505050565b600081519050919050565b600082825260208201905092915050565b600061417d82614156565b6141878185614161565b93506141978185602086016127b8565b6141a0816127eb565b840191505092915050565b60006080820190506141c060008301876128ec565b6141cd60208301866128ec565b6141da6040830185612bd9565b81810360608301526141ec8184614172565b905095945050505050565b6000815190506142068161270d565b92915050565b600060208284031215614222576142216126d7565b5b6000614230848285016141f7565b91505092915050565b7f4552433732313a206d696e7420746f20746865207a65726f2061646472657373600082015250565b600061426f6020836127a7565b915061427a82614239565b602082019050919050565b6000602082019050818103600083015261429e81614262565b9050919050565b7f4552433732313a20746f6b656e20616c7265616479206d696e74656400000000600082015250565b60006142db601c836127a7565b91506142e6826142a5565b602082019050919050565b6000602082019050818103600083015261430a816142ce565b9050919050565b600061431c82612857565b915061432783612857565b92508261433757614336613881565b5b828206905092915050565b7f4e487b7100000000000000000000000000000000000000000000000000000000600052603260045260246000fdfe4142434445464748494a4b4c4d4e4f505152535455565758595a6162636465666768696a6b6c6d6e6f707172737475767778797a303132333435363738392b2fa2646970667358221220e7e23ea9a7417dddbf4496df725a29f3bc9f53f990504b2d695bbde03e3eaa0764736f6c63430008090033",
  "linkReferences": {},
  "deployedLinkReferences": {}
}