{
  "_format": "hh-sol-artifact-1",
  "contractName": "WarrentyNFT",
  "sourceName": "contracts/WarrentyNFT.sol",
  "abi": [
    {
      "inputs": [],
      "stateMutability": "nonpayable",
      "type": "constructor"
    },
    {
      "anonymous": false,
      "inputs": [
        {
          "indexed": true,
          "internalType": "address",
          "name": "owner",
          "type": "address"
        },
        {
          "indexed": true,
          "internalType": "address",
          "name": "approved",
          "type": "address"
        },
        {
          "indexed": true,
          "internalType": "uint256",
          "name": "tokenId",
          "type": "uint256"
        }
      ],
      "name": "Approval",
      "type": "event"
    },
    {
      "anonymous": false,
      "inputs": [
        {
          "indexed": true,
          "internalType": "address",
          "name": "owner",
          "type": "address"
        },
        {
          "indexed": true,
          "internalType": "address",
          "name": "operator",
          "type": "address"
        },
        {
          "indexed": false,
          "internalType": "bool",
          "name": "approved",
          "type": "bool"
        }
      ],
      "name": "ApprovalForAll",
      "type": "event"
    },
    {
      "anonymous": false,
      "inputs": [
        {
          "indexed": true,
          "internalType": "address",
          "name": "from",
          "type": "address"
        },
        {
          "indexed": true,
          "internalType": "address",
          "name": "to",
          "type": "address"
        },
        {
          "indexed": true,
          "internalType": "uint256",
          "name": "tokenId",
          "type": "uint256"
        }
      ],
      "name": "Transfer",
      "type": "event"
    },
    {
      "inputs": [
        {
          "internalType": "address",
          "name": "to",
          "type": "address"
        },
        {
          "internalType": "uint256",
          "name": "tokenId",
          "type": "uint256"
        }
      ],
      "name": "approve",
      "outputs": [],
      "stateMutability": "nonpayable",
      "type": "function"
    },
    {
      "inputs": [
        {
          "internalType": "address",
          "name": "owner",
          "type": "address"
        }
      ],
      "name": "balanceOf",
      "outputs": [
        {
          "internalType": "uint256",
          "name": "",
          "type": "uint256"
        }
      ],
      "stateMutability": "view",
      "type": "function"
    },
    {
      "inputs": [],
      "name": "generateCharacter",
      "outputs": [
        {
          "internalType": "string",
          "name": "",
          "type": "string"
        }
      ],
      "stateMutability": "pure",
      "type": "function"
    },
    {
      "inputs": [
        {
          "internalType": "uint256",
          "name": "tokenId",
          "type": "uint256"
        }
      ],
      "name": "getApproved",
      "outputs": [
        {
          "internalType": "address",
          "name": "",
          "type": "address"
        }
      ],
      "stateMutability": "view",
      "type": "function"
    },
    {
      "inputs": [
        {
          "internalType": "address",
          "name": "owner",
          "type": "address"
        },
        {
          "internalType": "address",
          "name": "operator",
          "type": "address"
        }
      ],
      "name": "isApprovedForAll",
      "outputs": [
        {
          "internalType": "bool",
          "name": "",
          "type": "bool"
        }
      ],
      "stateMutability": "view",
      "type": "function"
    },
    {
      "inputs": [
        {
          "internalType": "string",
          "name": "_name",
          "type": "string"
        },
        {
          "internalType": "string",
          "name": "_serial",
          "type": "string"
        }
      ],
      "name": "mint",
      "outputs": [],
      "stateMutability": "nonpayable",
      "type": "function"
    },
    {
      "inputs": [],
      "name": "name",
      "outputs": [
        {
          "internalType": "string",
          "name": "",
          "type": "string"
        }
      ],
      "stateMutability": "view",
      "type": "function"
    },
    {
      "inputs": [
        {
          "internalType": "uint256",
          "name": "tokenId",
          "type": "uint256"
        }
      ],
      "name": "ownerOf",
      "outputs": [
        {
          "internalType": "address",
          "name": "",
          "type": "address"
        }
      ],
      "stateMutability": "view",
      "type": "function"
    },
    {
      "inputs": [
        {
          "internalType": "address",
          "name": "from",
          "type": "address"
        },
        {
          "internalType": "address",
          "name": "to",
          "type": "address"
        },
        {
          "internalType": "uint256",
          "name": "tokenId",
          "type": "uint256"
        }
      ],
      "name": "safeTransferFrom",
      "outputs": [],
      "stateMutability": "nonpayable",
      "type": "function"
    },
    {
      "inputs": [
        {
          "internalType": "address",
          "name": "from",
          "type": "address"
        },
        {
          "internalType": "address",
          "name": "to",
          "type": "address"
        },
        {
          "internalType": "uint256",
          "name": "tokenId",
          "type": "uint256"
        },
        {
          "internalType": "bytes",
          "name": "data",
          "type": "bytes"
        }
      ],
      "name": "safeTransferFrom",
      "outputs": [],
      "stateMutability": "nonpayable",
      "type": "function"
    },
    {
      "inputs": [
        {
          "internalType": "address",
          "name": "operator",
          "type": "address"
        },
        {
          "internalType": "bool",
          "name": "approved",
          "type": "bool"
        }
      ],
      "name": "setApprovalForAll",
      "outputs": [],
      "stateMutability": "nonpayable",
      "type": "function"
    },
    {
      "inputs": [
        {
          "internalType": "bytes4",
          "name": "interfaceId",
          "type": "bytes4"
        }
      ],
      "name": "supportsInterface",
      "outputs": [
        {
          "internalType": "bool",
          "name": "",
          "type": "bool"
        }
      ],
      "stateMutability": "view",
      "type": "function"
    },
    {
      "inputs": [],
      "name": "symbol",
      "outputs": [
        {
          "internalType": "string",
          "name": "",
          "type": "string"
        }
      ],
      "stateMutability": "view",
      "type": "function"
    },
    {
      "inputs": [
        {
          "internalType": "uint256",
          "name": "tokenId",
          "type": "uint256"
        }
      ],
      "name": "tokenURI",
      "outputs": [
        {
          "internalType": "string",
          "name": "",
          "type": "string"
        }
      ],
      "stateMutability": "view",
      "type": "function"
    },
    {
      "inputs": [
        {
          "internalType": "address",
          "name": "from",
          "type": "address"
        },
        {
          "internalType": "address",
          "name": "to",
          "type": "address"
        },
        {
          "internalType": "uint256",
          "name": "tokenId",
          "type": "uint256"
        }
      ],
      "name": "transferFrom",
      "outputs": [],
      "stateMutability": "nonpayable",
      "type": "function"
    }
  ],
  "bytecode": "0x60806040523480156200001157600080fd5b506040518060400160405280600881526020017f57617272656e74790000000000000000000000000000000000000000000000008152506040518060400160405280600481526020017f5752545900000000000000000000000000000000000000000000000000000000815250816000908051906020019062000096929190620000b8565b508060019080519060200190620000af929190620000b8565b505050620001cd565b828054620000c69062000197565b90600052602060002090601f016020900481019282620000ea576000855562000136565b82601f106200010557805160ff191683800117855562000136565b8280016001018555821562000136579182015b828111156200013557825182559160200191906001019062000118565b5b50905062000145919062000149565b5090565b5b80821115620001645760008160009055506001016200014a565b5090565b7f4e487b7100000000000000000000000000000000000000000000000000000000600052602260045260246000fd5b60006002820490506001821680620001b057607f821691505b60208210811415620001c757620001c662000168565b5b50919050565b61366f80620001dd6000396000f3fe608060405234801561001057600080fd5b50600436106100f55760003560e01c806370a0823111610097578063a561b7d411610066578063a561b7d414610282578063b88d4fde146102a0578063c87b56dd146102bc578063e985e9c5146102ec576100f5565b806370a08231146101fc5780638aa0fdad1461022c57806395d89b4114610248578063a22cb46514610266576100f5565b8063095ea7b3116100d3578063095ea7b31461017857806323b872dd1461019457806342842e0e146101b05780636352211e146101cc576100f5565b806301ffc9a7146100fa57806306fdde031461012a578063081812fc14610148575b600080fd5b610114600480360381019061010f9190611afd565b61031c565b6040516101219190611b45565b60405180910390f35b6101326103fe565b60405161013f9190611bf9565b60405180910390f35b610162600480360381019061015d9190611c51565b610490565b60405161016f9190611cbf565b60405180910390f35b610192600480360381019061018d9190611d06565b6104d6565b005b6101ae60048036038101906101a99190611d46565b6105ee565b005b6101ca60048036038101906101c59190611d46565b61064e565b005b6101e660048036038101906101e19190611c51565b61066e565b6040516101f39190611cbf565b60405180910390f35b61021660048036038101906102119190611d99565b610720565b6040516102239190611dd5565b60405180910390f35b61024660048036038101906102419190611f25565b6107d8565b005b6102506107ff565b60405161025d9190611bf9565b60405180910390f35b610280600480360381019061027b9190611fc9565b610891565b005b61028a6108a7565b6040516102979190611bf9565b60405180910390f35b6102ba60048036038101906102b591906120aa565b6108f9565b005b6102d660048036038101906102d19190611c51565b61095b565b6040516102e39190611bf9565b60405180910390f35b6103066004803603810190610301919061212d565b61096d565b6040516103139190611b45565b60405180910390f35b60007f80ac58cd000000000000000000000000000000000000000000000000000000007bffffffffffffffffffffffffffffffffffffffffffffffffffffffff1916827bffffffffffffffffffffffffffffffffffffffffffffffffffffffff191614806103e757507f5b5e139f000000000000000000000000000000000000000000000000000000007bffffffffffffffffffffffffffffffffffffffffffffffffffffffff1916827bffffffffffffffffffffffffffffffffffffffffffffffffffffffff1916145b806103f757506103f682610a01565b5b9050919050565b60606000805461040d9061219c565b80601f01602080910402602001604051908101604052809291908181526020018280546104399061219c565b80156104865780601f1061045b57610100808354040283529160200191610486565b820191906000526020600020905b81548152906001019060200180831161046957829003601f168201915b5050505050905090565b600061049b82610a6b565b6004600083815260200190815260200160002060009054906101000a900473ffffffffffffffffffffffffffffffffffffffff169050919050565b60006104e18261066e565b90508073ffffffffffffffffffffffffffffffffffffffff168373ffffffffffffffffffffffffffffffffffffffff161415610552576040517f08c379a000000000000000000000000000000000000000000000000000000000815260040161054990612240565b60405180910390fd5b8073ffffffffffffffffffffffffffffffffffffffff16610571610ab6565b73ffffffffffffffffffffffffffffffffffffffff1614806105a0575061059f8161059a610ab6565b61096d565b5b6105df576040517f08c379a00000000000000000000000000000000000000000000000000000000081526004016105d6906122d2565b60405180910390fd5b6105e98383610abe565b505050565b6105ff6105f9610ab6565b82610b77565b61063e576040517f08c379a000000000000000000000000000000000000000000000000000000000815260040161063590612364565b60405180910390fd5b610649838383610c0c565b505050565b610669838383604051806020016040528060008152506108f9565b505050565b6000806002600084815260200190815260200160002060009054906101000a900473ffffffffffffffffffffffffffffffffffffffff169050600073ffffffffffffffffffffffffffffffffffffffff168173ffffffffffffffffffffffffffffffffffffffff161415610717576040517f08c379a000000000000000000000000000000000000000000000000000000000815260040161070e906123d0565b60405180910390fd5b80915050919050565b60008073ffffffffffffffffffffffffffffffffffffffff168273ffffffffffffffffffffffffffffffffffffffff161415610791576040517f08c379a000000000000000000000000000000000000000000000000000000000815260040161078890612462565b60405180910390fd5b600360008373ffffffffffffffffffffffffffffffffffffffff1673ffffffffffffffffffffffffffffffffffffffff168152602001908152602001600020549050919050565b60004290506107e73382610e73565b6107fa816107f58585610e91565b610ef5565b505050565b60606001805461080e9061219c565b80601f016020809104026020016040519081016040528092919081815260200182805461083a9061219c565b80156108875780601f1061085c57610100808354040283529160200191610887565b820191906000526020600020905b81548152906001019060200180831161086a57829003601f168201915b5050505050905090565b6108a361089c610ab6565b8383610f69565b5050565b606060006040516020016108ba906128b5565b60405160208183030381529060405290506108d4816110d6565b6040516020016108e491906129aa565b60405160208183030381529060405291505090565b61090a610904610ab6565b83610b77565b610949576040517f08c379a000000000000000000000000000000000000000000000000000000000815260040161094090612364565b60405180910390fd5b6109558484848461123a565b50505050565b606061096682611296565b9050919050565b6000600560008473ffffffffffffffffffffffffffffffffffffffff1673ffffffffffffffffffffffffffffffffffffffff16815260200190815260200160002060008373ffffffffffffffffffffffffffffffffffffffff1673ffffffffffffffffffffffffffffffffffffffff16815260200190815260200160002060009054906101000a900460ff16905092915050565b60007f01ffc9a7000000000000000000000000000000000000000000000000000000007bffffffffffffffffffffffffffffffffffffffffffffffffffffffff1916827bffffffffffffffffffffffffffffffffffffffffffffffffffffffff1916149050919050565b610a74816113a9565b610ab3576040517f08c379a0000000000000000000000000000000000000000000000000000000008152600401610aaa906123d0565b60405180910390fd5b50565b600033905090565b816004600083815260200190815260200160002060006101000a81548173ffffffffffffffffffffffffffffffffffffffff021916908373ffffffffffffffffffffffffffffffffffffffff160217905550808273ffffffffffffffffffffffffffffffffffffffff16610b318361066e565b73ffffffffffffffffffffffffffffffffffffffff167f8c5be1e5ebec7d5bd14f71427d1e84f3dd0314c0f7b2291e5b200ac8c7c3b92560405160405180910390a45050565b600080610b838361066e565b90508073ffffffffffffffffffffffffffffffffffffffff168473ffffffffffffffffffffffffffffffffffffffff161480610bc55750610bc4818561096d565b5b80610c0357508373ffffffffffffffffffffffffffffffffffffffff16610beb84610490565b73ffffffffffffffffffffffffffffffffffffffff16145b91505092915050565b8273ffffffffffffffffffffffffffffffffffffffff16610c2c8261066e565b73ffffffffffffffffffffffffffffffffffffffff1614610c82576040517f08c379a0000000000000000000000000000000000000000000000000000000008152600401610c7990612a3e565b60405180910390fd5b600073ffffffffffffffffffffffffffffffffffffffff168273ffffffffffffffffffffffffffffffffffffffff161415610cf2576040517f08c379a0000000000000000000000000000000000000000000000000000000008152600401610ce990612ad0565b60405180910390fd5b610cfd838383611415565b610d08600082610abe565b6001600360008573ffffffffffffffffffffffffffffffffffffffff1673ffffffffffffffffffffffffffffffffffffffff1681526020019081526020016000206000828254610d589190612b1f565b925050819055506001600360008473ffffffffffffffffffffffffffffffffffffffff1673ffffffffffffffffffffffffffffffffffffffff1681526020019081526020016000206000828254610daf9190612b53565b92505081905550816002600083815260200190815260200160002060006101000a81548173ffffffffffffffffffffffffffffffffffffffff021916908373ffffffffffffffffffffffffffffffffffffffff160217905550808273ffffffffffffffffffffffffffffffffffffffff168473ffffffffffffffffffffffffffffffffffffffff167fddf252ad1be2c89b69c2b068fc378daa952ba7f163c4a11628f55a4df523b3ef60405160405180910390a4610e6e83838361141a565b505050565b610e8d82826040518060200160405280600081525061141f565b5050565b6060600083610e9e6108a7565b4285604051602001610eb39493929190612fa6565b6040516020818303038152906040529050610ecd816110d6565b604051602001610edd9190613105565b60405160208183030381529060405291505092915050565b610efe826113a9565b610f3d576040517f08c379a0000000000000000000000000000000000000000000000000000000008152600401610f3490613199565b60405180910390fd5b80600660008481526020019081526020016000209080519060200190610f649291906119ee565b505050565b8173ffffffffffffffffffffffffffffffffffffffff168373ffffffffffffffffffffffffffffffffffffffff161415610fd8576040517f08c379a0000000000000000000000000000000000000000000000000000000008152600401610fcf90613205565b60405180910390fd5b80600560008573ffffffffffffffffffffffffffffffffffffffff1673ffffffffffffffffffffffffffffffffffffffff16815260200190815260200160002060008473ffffffffffffffffffffffffffffffffffffffff1673ffffffffffffffffffffffffffffffffffffffff16815260200190815260200160002060006101000a81548160ff0219169083151502179055508173ffffffffffffffffffffffffffffffffffffffff168373ffffffffffffffffffffffffffffffffffffffff167f17307eab39ab6107e8899845ad3d59bd9653f200f220920489ca2b5937696c31836040516110c99190611b45565b60405180910390a3505050565b60606000825114156110f957604051806020016040528060008152509050611235565b60006040518060600160405280604081526020016135fa60409139905060006003600285516111289190612b53565b6111329190613254565b600461113e9190613285565b67ffffffffffffffff81111561115757611156611dfa565b5b6040519080825280601f01601f1916602001820160405280156111895781602001600182028036833780820191505090505b509050600182016020820185865187015b808210156111f5576003820191508151603f8160121c168501518453600184019350603f81600c1c168501518453600184019350603f8160061c168501518453600184019350603f811685015184536001840193505061119a565b505060038651066001811461121157600281146112245761122c565b603d6001830353603d600283035361122c565b603d60018303535b50505080925050505b919050565b611245848484610c0c565b6112518484848461147a565b611290576040517f08c379a000000000000000000000000000000000000000000000000000000000815260040161128790613351565b60405180910390fd5b50505050565b60606112a182610a6b565b60006006600084815260200190815260200160002080546112c19061219c565b80601f01602080910402602001604051908101604052809291908181526020018280546112ed9061219c565b801561133a5780601f1061130f5761010080835404028352916020019161133a565b820191906000526020600020905b81548152906001019060200180831161131d57829003601f168201915b50505050509050600061134b611611565b90506000815114156113615781925050506113a4565b60008251111561139657808260405160200161137e929190613371565b604051602081830303815290604052925050506113a4565b61139f84611628565b925050505b919050565b60008073ffffffffffffffffffffffffffffffffffffffff166002600084815260200190815260200160002060009054906101000a900473ffffffffffffffffffffffffffffffffffffffff1673ffffffffffffffffffffffffffffffffffffffff1614159050919050565b505050565b505050565b6114298383611690565b611436600084848461147a565b611475576040517f08c379a000000000000000000000000000000000000000000000000000000000815260040161146c90613351565b60405180910390fd5b505050565b600061149b8473ffffffffffffffffffffffffffffffffffffffff1661186a565b15611604578373ffffffffffffffffffffffffffffffffffffffff1663150b7a026114c4610ab6565b8786866040518563ffffffff1660e01b81526004016114e694939291906133ea565b602060405180830381600087803b15801561150057600080fd5b505af192505050801561153157506040513d601f19601f8201168201806040525081019061152e919061344b565b60015b6115b4573d8060008114611561576040519150601f19603f3d011682016040523d82523d6000602084013e611566565b606091505b506000815114156115ac576040517f08c379a00000000000000000000000000000000000000000000000000000000081526004016115a390613351565b60405180910390fd5b805181602001fd5b63150b7a0260e01b7bffffffffffffffffffffffffffffffffffffffffffffffffffffffff1916817bffffffffffffffffffffffffffffffffffffffffffffffffffffffff191614915050611609565b600190505b949350505050565b606060405180602001604052806000815250905090565b606061163382610a6b565b600061163d611611565b9050600081511161165d5760405180602001604052806000815250611688565b806116678461188d565b604051602001611678929190613371565b6040516020818303038152906040525b915050919050565b600073ffffffffffffffffffffffffffffffffffffffff168273ffffffffffffffffffffffffffffffffffffffff161415611700576040517f08c379a00000000000000000000000000000000000000000000000000000000081526004016116f7906134c4565b60405180910390fd5b611709816113a9565b15611749576040517f08c379a000000000000000000000000000000000000000000000000000000000815260040161174090613530565b60405180910390fd5b61175560008383611415565b6001600360008473ffffffffffffffffffffffffffffffffffffffff1673ffffffffffffffffffffffffffffffffffffffff16815260200190815260200160002060008282546117a59190612b53565b92505081905550816002600083815260200190815260200160002060006101000a81548173ffffffffffffffffffffffffffffffffffffffff021916908373ffffffffffffffffffffffffffffffffffffffff160217905550808273ffffffffffffffffffffffffffffffffffffffff16600073ffffffffffffffffffffffffffffffffffffffff167fddf252ad1be2c89b69c2b068fc378daa952ba7f163c4a11628f55a4df523b3ef60405160405180910390a46118666000838361141a565b5050565b6000808273ffffffffffffffffffffffffffffffffffffffff163b119050919050565b606060008214156118d5576040518060400160405280600181526020017f300000000000000000000000000000000000000000000000000000000000000081525090506119e9565b600082905060005b600082146119075780806118f090613550565b915050600a826119009190613254565b91506118dd565b60008167ffffffffffffffff81111561192357611922611dfa565b5b6040519080825280601f01601f1916602001820160405280156119555781602001600182028036833780820191505090505b5090505b600085146119e25760018261196e9190612b1f565b9150600a8561197d9190613599565b60306119899190612b53565b60f81b81838151811061199f5761199e6135ca565b5b60200101907effffffffffffffffffffffffffffffffffffffffffffffffffffffffffffff1916908160001a905350600a856119db9190613254565b9450611959565b8093505050505b919050565b8280546119fa9061219c565b90600052602060002090601f016020900481019282611a1c5760008555611a63565b82601f10611a3557805160ff1916838001178555611a63565b82800160010185558215611a63579182015b82811115611a62578251825591602001919060010190611a47565b5b509050611a709190611a74565b5090565b5b80821115611a8d576000816000905550600101611a75565b5090565b6000604051905090565b600080fd5b600080fd5b60007fffffffff0000000000000000000000000000000000000000000000000000000082169050919050565b611ada81611aa5565b8114611ae557600080fd5b50565b600081359050611af781611ad1565b92915050565b600060208284031215611b1357611b12611a9b565b5b6000611b2184828501611ae8565b91505092915050565b60008115159050919050565b611b3f81611b2a565b82525050565b6000602082019050611b5a6000830184611b36565b92915050565b600081519050919050565b600082825260208201905092915050565b60005b83811015611b9a578082015181840152602081019050611b7f565b83811115611ba9576000848401525b50505050565b6000601f19601f8301169050919050565b6000611bcb82611b60565b611bd58185611b6b565b9350611be5818560208601611b7c565b611bee81611baf565b840191505092915050565b60006020820190508181036000830152611c138184611bc0565b905092915050565b6000819050919050565b611c2e81611c1b565b8114611c3957600080fd5b50565b600081359050611c4b81611c25565b92915050565b600060208284031215611c6757611c66611a9b565b5b6000611c7584828501611c3c565b91505092915050565b600073ffffffffffffffffffffffffffffffffffffffff82169050919050565b6000611ca982611c7e565b9050919050565b611cb981611c9e565b82525050565b6000602082019050611cd46000830184611cb0565b92915050565b611ce381611c9e565b8114611cee57600080fd5b50565b600081359050611d0081611cda565b92915050565b60008060408385031215611d1d57611d1c611a9b565b5b6000611d2b85828601611cf1565b9250506020611d3c85828601611c3c565b9150509250929050565b600080600060608486031215611d5f57611d5e611a9b565b5b6000611d6d86828701611cf1565b9350506020611d7e86828701611cf1565b9250506040611d8f86828701611c3c565b9150509250925092565b600060208284031215611daf57611dae611a9b565b5b6000611dbd84828501611cf1565b91505092915050565b611dcf81611c1b565b82525050565b6000602082019050611dea6000830184611dc6565b92915050565b600080fd5b600080fd5b7f4e487b7100000000000000000000000000000000000000000000000000000000600052604160045260246000fd5b611e3282611baf565b810181811067ffffffffffffffff82111715611e5157611e50611dfa565b5b80604052505050565b6000611e64611a91565b9050611e708282611e29565b919050565b600067ffffffffffffffff821115611e9057611e8f611dfa565b5b611e9982611baf565b9050602081019050919050565b82818337600083830152505050565b6000611ec8611ec384611e75565b611e5a565b905082815260208101848484011115611ee457611ee3611df5565b5b611eef848285611ea6565b509392505050565b600082601f830112611f0c57611f0b611df0565b5b8135611f1c848260208601611eb5565b91505092915050565b60008060408385031215611f3c57611f3b611a9b565b5b600083013567ffffffffffffffff811115611f5a57611f59611aa0565b5b611f6685828601611ef7565b925050602083013567ffffffffffffffff811115611f8757611f86611aa0565b5b611f9385828601611ef7565b9150509250929050565b611fa681611b2a565b8114611fb157600080fd5b50565b600081359050611fc381611f9d565b92915050565b60008060408385031215611fe057611fdf611a9b565b5b6000611fee85828601611cf1565b9250506020611fff85828601611fb4565b9150509250929050565b600067ffffffffffffffff82111561202457612023611dfa565b5b61202d82611baf565b9050602081019050919050565b600061204d61204884612009565b611e5a565b90508281526020810184848401111561206957612068611df5565b5b612074848285611ea6565b509392505050565b600082601f83011261209157612090611df0565b5b81356120a184826020860161203a565b91505092915050565b600080600080608085870312156120c4576120c3611a9b565b5b60006120d287828801611cf1565b94505060206120e387828801611cf1565b93505060406120f487828801611c3c565b925050606085013567ffffffffffffffff81111561211557612114611aa0565b5b6121218782880161207c565b91505092959194509250565b6000806040838503121561214457612143611a9b565b5b600061215285828601611cf1565b925050602061216385828601611cf1565b9150509250929050565b7f4e487b7100000000000000000000000000000000000000000000000000000000600052602260045260246000fd5b600060028204905060018216806121b457607f821691505b602082108114156121c8576121c761216d565b5b50919050565b7f4552433732313a20617070726f76616c20746f2063757272656e74206f776e6560008201527f7200000000000000000000000000000000000000000000000000000000000000602082015250565b600061222a602183611b6b565b9150612235826121ce565b604082019050919050565b600060208201905081810360008301526122598161221d565b9050919050565b7f4552433732313a20617070726f76652063616c6c6572206973206e6f7420746f60008201527f6b656e206f776e6572206e6f7220617070726f76656420666f7220616c6c0000602082015250565b60006122bc603e83611b6b565b91506122c782612260565b604082019050919050565b600060208201905081810360008301526122eb816122af565b9050919050565b7f4552433732313a2063616c6c6572206973206e6f7420746f6b656e206f776e6560008201527f72206e6f7220617070726f766564000000000000000000000000000000000000602082015250565b600061234e602e83611b6b565b9150612359826122f2565b604082019050919050565b6000602082019050818103600083015261237d81612341565b9050919050565b7f4552433732313a20696e76616c696420746f6b656e2049440000000000000000600082015250565b60006123ba601883611b6b565b91506123c582612384565b602082019050919050565b600060208201905081810360008301526123e9816123ad565b9050919050565b7f4552433732313a2061646472657373207a65726f206973206e6f74206120766160008201527f6c6964206f776e65720000000000000000000000000000000000000000000000602082015250565b600061244c602983611b6b565b9150612457826123f0565b604082019050919050565b6000602082019050818103600083015261247b8161243f565b9050919050565b600081905092915050565b7f3c73766720786d6c6e733d22687474703a2f2f7777772e77332e6f72672f323060008201527f30302f73766722207072657365727665417370656374526174696f3d22784d6960208201527f6e594d696e206d656574222076696577426f783d22302030203335302033353060408201527f223e000000000000000000000000000000000000000000000000000000000000606082015250565b6000612535606283612482565b91506125408261248d565b606282019050919050565b7f3c7374796c653e2e62617365207b2066696c6c3a20636f72616c3b20666f6e7460008201527f2d66616d696c793a2073657269663b20666f6e742d73697a653a20313470783b60208201527f207d3c2f7374796c653e00000000000000000000000000000000000000000000604082015250565b60006125cd604a83612482565b91506125d88261254b565b604a82019050919050565b7f3c726563742077696474683d223130302522206865696768743d22313030252260008201527f2066696c6c3d22626c61636b22202f3e00000000000000000000000000000000602082015250565b600061263f603083612482565b915061264a826125e3565b603082019050919050565b7f3c7465787420783d223530252220793d223430252220636c6173733d2262617360008201527f652220646f6d696e616e742d626173656c696e653d226d6964646c652220746560208201527f78742d616e63686f723d226d6964646c65223e00000000000000000000000000604082015250565b60006126d7605383612482565b91506126e282612655565b605382019050919050565b7f57617272656e7479204d696e7465720000000000000000000000000000000000600082015250565b6000612723600f83612482565b915061272e826126ed565b600f82019050919050565b7f3c2f746578743e00000000000000000000000000000000000000000000000000600082015250565b600061276f600783612482565b915061277a82612739565b600782019050919050565b7f3c7465787420783d223530252220793d223530252220636c6173733d2262617360008201527f652220646f6d696e616e742d626173656c696e653d226d6964646c652220746560208201527f78742d616e63686f723d226d6964646c65223e00000000000000000000000000604082015250565b6000612807605383612482565b915061281282612785565b605382019050919050565b7f4465736372697074696f6e204865726521000000000000000000000000000000600082015250565b6000612853601183612482565b915061285e8261281d565b601182019050919050565b7f3c2f7376673e0000000000000000000000000000000000000000000000000000600082015250565b600061289f600683612482565b91506128aa82612869565b600682019050919050565b60006128c082612528565b91506128cb826125c0565b91506128d682612632565b91506128e1826126ca565b91506128ec82612716565b91506128f782612762565b9150612902826127fa565b915061290d82612846565b915061291882612762565b915061292382612892565b9150819050919050565b7f646174613a696d6167652f7376672b786d6c3b6261736536342c000000000000600082015250565b6000612963601a83612482565b915061296e8261292d565b601a82019050919050565b600061298482611b60565b61298e8185612482565b935061299e818560208601611b7c565b80840191505092915050565b60006129b582612956565b91506129c18284612979565b915081905092915050565b7f4552433732313a207472616e736665722066726f6d20696e636f72726563742060008201527f6f776e6572000000000000000000000000000000000000000000000000000000602082015250565b6000612a28602583611b6b565b9150612a33826129cc565b604082019050919050565b60006020820190508181036000830152612a5781612a1b565b9050919050565b7f4552433732313a207472616e7366657220746f20746865207a65726f2061646460008201527f7265737300000000000000000000000000000000000000000000000000000000602082015250565b6000612aba602483611b6b565b9150612ac582612a5e565b604082019050919050565b60006020820190508181036000830152612ae981612aad565b9050919050565b7f4e487b7100000000000000000000000000000000000000000000000000000000600052601160045260246000fd5b6000612b2a82611c1b565b9150612b3583611c1b565b925082821015612b4857612b47612af0565b5b828203905092915050565b6000612b5e82611c1b565b9150612b6983611c1b565b9250827fffffffffffffffffffffffffffffffffffffffffffffffffffffffffffffffff03821115612b9e57612b9d612af0565b5b828201905092915050565b7f7b00000000000000000000000000000000000000000000000000000000000000600082015250565b6000612bdf600183612482565b9150612bea82612ba9565b600182019050919050565b7f226e616d65223a202257617272656e7479204f776e6572203a00000000000000600082015250565b6000612c2b601983612482565b9150612c3682612bf5565b601982019050919050565b7f222c000000000000000000000000000000000000000000000000000000000000600082015250565b6000612c77600283612482565b9150612c8282612c41565b600282019050919050565b7f226465736372697074696f6e223a20225468697320697320796f75722077617260008201527f72656e74792063617264202121222c0000000000000000000000000000000000602082015250565b6000612ce9602f83612482565b9150612cf482612c8d565b602f82019050919050565b7f22696d616765223a202200000000000000000000000000000000000000000000600082015250565b6000612d35600a83612482565b9150612d4082612cff565b600a82019050919050565b7f226174747269627574657322203a205b00000000000000000000000000000000600082015250565b6000612d81601083612482565b9150612d8c82612d4b565b601082019050919050565b7f2274726169745f7479706522203a202244617465206f6620507572636861736560008201527f222c000000000000000000000000000000000000000000000000000000000000602082015250565b6000612df3602283612482565b9150612dfe82612d97565b602282019050919050565b7f2276616c756522203a2022000000000000000000000000000000000000000000600082015250565b6000612e3f600b83612482565b9150612e4a82612e09565b600b82019050919050565b6000819050919050565b612e70612e6b82611c1b565b612e55565b82525050565b7f2200000000000000000000000000000000000000000000000000000000000000600082015250565b6000612eac600183612482565b9150612eb782612e76565b600182019050919050565b7f7d00000000000000000000000000000000000000000000000000000000000000600082015250565b6000612ef8600183612482565b9150612f0382612ec2565b600182019050919050565b7f2274726169745f7479706522203a202253657269616c204e756d626572222c00600082015250565b6000612f44601f83612482565b9150612f4f82612f0e565b601f82019050919050565b7f5d00000000000000000000000000000000000000000000000000000000000000600082015250565b6000612f90600183612482565b9150612f9b82612f5a565b600182019050919050565b6000612fb182612bd2565b9150612fbc82612c1e565b9150612fc88287612979565b9150612fd382612c6a565b9150612fde82612cdc565b9150612fe982612d28565b9150612ff58286612979565b915061300082612c6a565b915061300b82612d74565b915061301682612bd2565b915061302182612de6565b915061302c82612e32565b91506130388285612e5f565b60208201915061304782612e9f565b915061305282612eeb565b915061305d82612bd2565b915061306882612f37565b915061307382612e32565b915061307f8284612979565b915061308a82612e9f565b915061309582612eeb565b91506130a082612f83565b91506130ab82612eeb565b915081905095945050505050565b7f646174613a6170706c69636174696f6e2f6a736f6e3b6261736536342c000000600082015250565b60006130ef601d83612482565b91506130fa826130b9565b601d82019050919050565b6000613110826130e2565b915061311c8284612979565b915081905092915050565b7f45524337323155524953746f726167653a2055524920736574206f66206e6f6e60008201527f6578697374656e7420746f6b656e000000000000000000000000000000000000602082015250565b6000613183602e83611b6b565b915061318e82613127565b604082019050919050565b600060208201905081810360008301526131b281613176565b9050919050565b7f4552433732313a20617070726f766520746f2063616c6c657200000000000000600082015250565b60006131ef601983611b6b565b91506131fa826131b9565b602082019050919050565b6000602082019050818103600083015261321e816131e2565b9050919050565b7f4e487b7100000000000000000000000000000000000000000000000000000000600052601260045260246000fd5b600061325f82611c1b565b915061326a83611c1b565b92508261327a57613279613225565b5b828204905092915050565b600061329082611c1b565b915061329b83611c1b565b9250817fffffffffffffffffffffffffffffffffffffffffffffffffffffffffffffffff04831182151516156132d4576132d3612af0565b5b828202905092915050565b7f4552433732313a207472616e7366657220746f206e6f6e20455243373231526560008201527f63656976657220696d706c656d656e7465720000000000000000000000000000602082015250565b600061333b603283611b6b565b9150613346826132df565b604082019050919050565b6000602082019050818103600083015261336a8161332e565b9050919050565b600061337d8285612979565b91506133898284612979565b91508190509392505050565b600081519050919050565b600082825260208201905092915050565b60006133bc82613395565b6133c681856133a0565b93506133d6818560208601611b7c565b6133df81611baf565b840191505092915050565b60006080820190506133ff6000830187611cb0565b61340c6020830186611cb0565b6134196040830185611dc6565b818103606083015261342b81846133b1565b905095945050505050565b60008151905061344581611ad1565b92915050565b60006020828403121561346157613460611a9b565b5b600061346f84828501613436565b91505092915050565b7f4552433732313a206d696e7420746f20746865207a65726f2061646472657373600082015250565b60006134ae602083611b6b565b91506134b982613478565b602082019050919050565b600060208201905081810360008301526134dd816134a1565b9050919050565b7f4552433732313a20746f6b656e20616c7265616479206d696e74656400000000600082015250565b600061351a601c83611b6b565b9150613525826134e4565b602082019050919050565b600060208201905081810360008301526135498161350d565b9050919050565b600061355b82611c1b565b91507fffffffffffffffffffffffffffffffffffffffffffffffffffffffffffffffff82141561358e5761358d612af0565b5b600182019050919050565b60006135a482611c1b565b91506135af83611c1b565b9250826135bf576135be613225565b5b828206905092915050565b7f4e487b7100000000000000000000000000000000000000000000000000000000600052603260045260246000fdfe4142434445464748494a4b4c4d4e4f505152535455565758595a6162636465666768696a6b6c6d6e6f707172737475767778797a303132333435363738392b2fa26469706673582212201fc2c9c6c9a1cb88cf224e57b756ddb7eafdfccf8d8692b01ce7d6105938613064736f6c63430008090033",
  "linkReferences": {},
  "deployedLinkReferences": {}
}