{
  "_format": "hh-sol-artifact-1",
  "contractName": "WarrentyNFT",
  "sourceName": "contracts/WarrentyNFT.sol",
  "abi": [
    {
      "inputs": [],
      "stateMutability": "nonpayable",
      "type": "constructor"
    },
    {
      "anonymous": false,
      "inputs": [
        {
          "indexed": true,
          "internalType": "address",
          "name": "owner",
          "type": "address"
        },
        {
          "indexed": true,
          "internalType": "address",
          "name": "approved",
          "type": "address"
        },
        {
          "indexed": true,
          "internalType": "uint256",
          "name": "tokenId",
          "type": "uint256"
        }
      ],
      "name": "Approval",
      "type": "event"
    },
    {
      "anonymous": false,
      "inputs": [
        {
          "indexed": true,
          "internalType": "address",
          "name": "owner",
          "type": "address"
        },
        {
          "indexed": true,
          "internalType": "address",
          "name": "operator",
          "type": "address"
        },
        {
          "indexed": false,
          "internalType": "bool",
          "name": "approved",
          "type": "bool"
        }
      ],
      "name": "ApprovalForAll",
      "type": "event"
    },
    {
      "anonymous": false,
      "inputs": [
        {
          "indexed": true,
          "internalType": "address",
          "name": "previousOwner",
          "type": "address"
        },
        {
          "indexed": true,
          "internalType": "address",
          "name": "newOwner",
          "type": "address"
        }
      ],
      "name": "OwnershipTransferred",
      "type": "event"
    },
    {
      "anonymous": false,
      "inputs": [
        {
          "indexed": true,
          "internalType": "address",
          "name": "from",
          "type": "address"
        },
        {
          "indexed": true,
          "internalType": "address",
          "name": "to",
          "type": "address"
        },
        {
          "indexed": true,
          "internalType": "uint256",
          "name": "tokenId",
          "type": "uint256"
        }
      ],
      "name": "Transfer",
      "type": "event"
    },
    {
      "inputs": [
        {
          "internalType": "uint256",
          "name": "tokenId",
          "type": "uint256"
        }
      ],
      "name": "DateOfPurchase",
      "outputs": [
        {
          "internalType": "uint256",
          "name": "",
          "type": "uint256"
        }
      ],
      "stateMutability": "view",
      "type": "function"
    },
    {
      "inputs": [
        {
          "internalType": "uint256",
          "name": "tokenId",
          "type": "uint256"
        }
      ],
      "name": "ItemType",
      "outputs": [
        {
          "internalType": "string",
          "name": "",
          "type": "string"
        }
      ],
      "stateMutability": "view",
      "type": "function"
    },
    {
      "inputs": [
        {
          "internalType": "uint256",
          "name": "tokenId",
          "type": "uint256"
        }
      ],
      "name": "Repairs",
      "outputs": [
        {
          "internalType": "uint256",
          "name": "",
          "type": "uint256"
        }
      ],
      "stateMutability": "view",
      "type": "function"
    },
    {
      "inputs": [
        {
          "internalType": "address",
          "name": "to",
          "type": "address"
        },
        {
          "internalType": "uint256",
          "name": "tokenId",
          "type": "uint256"
        }
      ],
      "name": "approve",
      "outputs": [],
      "stateMutability": "nonpayable",
      "type": "function"
    },
    {
      "inputs": [
        {
          "internalType": "address",
          "name": "owner",
          "type": "address"
        }
      ],
      "name": "balanceOf",
      "outputs": [
        {
          "internalType": "uint256",
          "name": "",
          "type": "uint256"
        }
      ],
      "stateMutability": "view",
      "type": "function"
    },
    {
      "inputs": [
        {
          "internalType": "uint256",
          "name": "tokenId",
          "type": "uint256"
        }
      ],
      "name": "generateCharacter",
      "outputs": [
        {
          "internalType": "string",
          "name": "",
          "type": "string"
        }
      ],
      "stateMutability": "view",
      "type": "function"
    },
    {
      "inputs": [
        {
          "internalType": "uint256",
          "name": "tokenId",
          "type": "uint256"
        }
      ],
      "name": "getApproved",
      "outputs": [
        {
          "internalType": "address",
          "name": "",
          "type": "address"
        }
      ],
      "stateMutability": "view",
      "type": "function"
    },
    {
      "inputs": [
        {
          "internalType": "address",
          "name": "owner",
          "type": "address"
        },
        {
          "internalType": "address",
          "name": "operator",
          "type": "address"
        }
      ],
      "name": "isApprovedForAll",
      "outputs": [
        {
          "internalType": "bool",
          "name": "",
          "type": "bool"
        }
      ],
      "stateMutability": "view",
      "type": "function"
    },
    {
      "inputs": [
        {
          "internalType": "string",
          "name": "_name",
          "type": "string"
        },
        {
          "internalType": "string",
          "name": "_product",
          "type": "string"
        },
        {
          "internalType": "string",
          "name": "_serial",
          "type": "string"
        },
        {
          "internalType": "address",
          "name": "cust",
          "type": "address"
        },
        {
          "internalType": "uint256",
          "name": "_month",
          "type": "uint256"
        }
      ],
      "name": "mint",
      "outputs": [],
      "stateMutability": "nonpayable",
      "type": "function"
    },
    {
      "inputs": [
        {
          "internalType": "uint256",
          "name": "tokenId",
          "type": "uint256"
        }
      ],
      "name": "monthOfExpiry",
      "outputs": [
        {
          "internalType": "uint256",
          "name": "",
          "type": "uint256"
        }
      ],
      "stateMutability": "view",
      "type": "function"
    },
    {
      "inputs": [],
      "name": "name",
      "outputs": [
        {
          "internalType": "string",
          "name": "",
          "type": "string"
        }
      ],
      "stateMutability": "view",
      "type": "function"
    },
    {
      "inputs": [],
      "name": "owner",
      "outputs": [
        {
          "internalType": "address",
          "name": "",
          "type": "address"
        }
      ],
      "stateMutability": "view",
      "type": "function"
    },
    {
      "inputs": [
        {
          "internalType": "uint256",
          "name": "tokenId",
          "type": "uint256"
        }
      ],
      "name": "ownerOf",
      "outputs": [
        {
          "internalType": "address",
          "name": "",
          "type": "address"
        }
      ],
      "stateMutability": "view",
      "type": "function"
    },
    {
      "inputs": [],
      "name": "renounceOwnership",
      "outputs": [],
      "stateMutability": "nonpayable",
      "type": "function"
    },
    {
      "inputs": [
        {
          "internalType": "address",
          "name": "from",
          "type": "address"
        },
        {
          "internalType": "address",
          "name": "to",
          "type": "address"
        },
        {
          "internalType": "uint256",
          "name": "tokenId",
          "type": "uint256"
        }
      ],
      "name": "safeTransferFrom",
      "outputs": [],
      "stateMutability": "nonpayable",
      "type": "function"
    },
    {
      "inputs": [
        {
          "internalType": "address",
          "name": "from",
          "type": "address"
        },
        {
          "internalType": "address",
          "name": "to",
          "type": "address"
        },
        {
          "internalType": "uint256",
          "name": "tokenId",
          "type": "uint256"
        },
        {
          "internalType": "bytes",
          "name": "data",
          "type": "bytes"
        }
      ],
      "name": "safeTransferFrom",
      "outputs": [],
      "stateMutability": "nonpayable",
      "type": "function"
    },
    {
      "inputs": [
        {
          "internalType": "address",
          "name": "operator",
          "type": "address"
        },
        {
          "internalType": "bool",
          "name": "approved",
          "type": "bool"
        }
      ],
      "name": "setApprovalForAll",
      "outputs": [],
      "stateMutability": "nonpayable",
      "type": "function"
    },
    {
      "inputs": [
        {
          "internalType": "uint256",
          "name": "tokenId",
          "type": "uint256"
        }
      ],
      "name": "setRepairs",
      "outputs": [],
      "stateMutability": "nonpayable",
      "type": "function"
    },
    {
      "inputs": [
        {
          "internalType": "bytes4",
          "name": "interfaceId",
          "type": "bytes4"
        }
      ],
      "name": "supportsInterface",
      "outputs": [
        {
          "internalType": "bool",
          "name": "",
          "type": "bool"
        }
      ],
      "stateMutability": "view",
      "type": "function"
    },
    {
      "inputs": [],
      "name": "symbol",
      "outputs": [
        {
          "internalType": "string",
          "name": "",
          "type": "string"
        }
      ],
      "stateMutability": "view",
      "type": "function"
    },
    {
      "inputs": [
        {
          "internalType": "uint256",
          "name": "tokenId",
          "type": "uint256"
        }
      ],
      "name": "tokenURI",
      "outputs": [
        {
          "internalType": "string",
          "name": "",
          "type": "string"
        }
      ],
      "stateMutability": "view",
      "type": "function"
    },
    {
      "inputs": [
        {
          "internalType": "address",
          "name": "from",
          "type": "address"
        },
        {
          "internalType": "address",
          "name": "to",
          "type": "address"
        },
        {
          "internalType": "uint256",
          "name": "tokenId",
          "type": "uint256"
        }
      ],
      "name": "transferFrom",
      "outputs": [],
      "stateMutability": "nonpayable",
      "type": "function"
    },
    {
      "inputs": [
        {
          "internalType": "address",
          "name": "newOwner",
          "type": "address"
        }
      ],
      "name": "transferOwnership",
      "outputs": [],
      "stateMutability": "nonpayable",
      "type": "function"
    }
  ],
  "bytecode": "0x60806040523480156200001157600080fd5b506040518060400160405280600881526020017f57617272656e74790000000000000000000000000000000000000000000000008152506040518060400160405280600481526020017f575254590000000000000000000000000000000000000000000000000000000081525081600090805190602001906200009692919062000220565b508060019080519060200190620000af92919062000220565b505050620000d2620000c66200012860201b60201c565b6200013060201b60201c565b620000e2620001f660201b60201c565b600860006101000a81548173ffffffffffffffffffffffffffffffffffffffff021916908373ffffffffffffffffffffffffffffffffffffffff16021790555062000335565b600033905090565b6000600760009054906101000a900473ffffffffffffffffffffffffffffffffffffffff16905081600760006101000a81548173ffffffffffffffffffffffffffffffffffffffff021916908373ffffffffffffffffffffffffffffffffffffffff1602179055508173ffffffffffffffffffffffffffffffffffffffff168173ffffffffffffffffffffffffffffffffffffffff167f8be0079c531659141344cd1fd0a4f28419497f9722a3daafe3b4186f6b6457e060405160405180910390a35050565b6000600760009054906101000a900473ffffffffffffffffffffffffffffffffffffffff16905090565b8280546200022e90620002ff565b90600052602060002090601f0160209004810192826200025257600085556200029e565b82601f106200026d57805160ff19168380011785556200029e565b828001600101855582156200029e579182015b828111156200029d57825182559160200191906001019062000280565b5b509050620002ad9190620002b1565b5090565b5b80821115620002cc576000816000905550600101620002b2565b5090565b7f4e487b7100000000000000000000000000000000000000000000000000000000600052602260045260246000fd5b600060028204905060018216806200031857607f821691505b602082108114156200032f576200032e620002d0565b5b50919050565b613eaf80620003456000396000f3fe608060405234801561001057600080fd5b506004361061014d5760003560e01c806370a08231116100c3578063b88d4fde1161007c578063b88d4fde146103ae578063c87b56dd146103ca578063c87e0f55146103fa578063ca775d2c1461042a578063e985e9c51461045a578063f2fde38b1461048a5761014d565b806370a08231146102ec578063715018a61461031c57806371971798146103265780638da5cb5b1461035657806395d89b4114610374578063a22cb465146103925761014d565b80632162240b116101155780632162240b1461021c57806323b872dd1461023857806342842e0e146102545780635170c7e9146102705780636352211e1461028c5780636528a7cf146102bc5761014d565b806301ffc9a71461015257806306fdde0314610182578063081812fc146101a0578063095ea7b3146101d05780630daefed5146101ec575b600080fd5b61016c6004803603810190610167919061220d565b6104a6565b6040516101799190612255565b60405180910390f35b61018a610588565b6040516101979190612309565b60405180910390f35b6101ba60048036038101906101b59190612361565b61061a565b6040516101c791906123cf565b60405180910390f35b6101ea60048036038101906101e59190612416565b610660565b005b61020660048036038101906102019190612361565b610778565b6040516102139190612309565b60405180910390f35b6102366004803603810190610231919061258b565b6107e3565b005b610252600480360381019061024d919061265a565b6108d0565b005b61026e6004803603810190610269919061265a565b610930565b005b61028a60048036038101906102859190612361565b610950565b005b6102a660048036038101906102a19190612361565b610a21565b6040516102b391906123cf565b60405180910390f35b6102d660048036038101906102d19190612361565b610ad3565b6040516102e391906126bc565b60405180910390f35b610306600480360381019061030191906126d7565b610af3565b60405161031391906126bc565b60405180910390f35b610324610bab565b005b610340600480360381019061033b9190612361565b610bbf565b60405161034d9190612309565b60405180910390f35b61035e610c67565b60405161036b91906123cf565b60405180910390f35b61037c610c91565b6040516103899190612309565b60405180910390f35b6103ac60048036038101906103a79190612730565b610d23565b005b6103c860048036038101906103c39190612811565b610d39565b005b6103e460048036038101906103df9190612361565b610d9b565b6040516103f19190612309565b60405180910390f35b610414600480360381019061040f9190612361565b610dad565b60405161042191906126bc565b60405180910390f35b610444600480360381019061043f9190612361565b610e1d565b60405161045191906126bc565b60405180910390f35b610474600480360381019061046f9190612894565b610e8d565b6040516104819190612255565b60405180910390f35b6104a4600480360381019061049f91906126d7565b610f21565b005b60007f80ac58cd000000000000000000000000000000000000000000000000000000007bffffffffffffffffffffffffffffffffffffffffffffffffffffffff1916827bffffffffffffffffffffffffffffffffffffffffffffffffffffffff1916148061057157507f5b5e139f000000000000000000000000000000000000000000000000000000007bffffffffffffffffffffffffffffffffffffffffffffffffffffffff1916827bffffffffffffffffffffffffffffffffffffffffffffffffffffffff1916145b80610581575061058082610fa5565b5b9050919050565b60606000805461059790612903565b80601f01602080910402602001604051908101604052809291908181526020018280546105c390612903565b80156106105780601f106105e557610100808354040283529160200191610610565b820191906000526020600020905b8154815290600101906020018083116105f357829003601f168201915b5050505050905090565b60006106258261100f565b6004600083815260200190815260200160002060009054906101000a900473ffffffffffffffffffffffffffffffffffffffff169050919050565b600061066b82610a21565b90508073ffffffffffffffffffffffffffffffffffffffff168373ffffffffffffffffffffffffffffffffffffffff1614156106dc576040517f08c379a00000000000000000000000000000000000000000000000000000000081526004016106d3906129a7565b60405180910390fd5b8073ffffffffffffffffffffffffffffffffffffffff166106fb61105a565b73ffffffffffffffffffffffffffffffffffffffff16148061072a57506107298161072461105a565b610e8d565b5b610769576040517f08c379a000000000000000000000000000000000000000000000000000000000815260040161076090612a39565b60405180910390fd5b6107738383611062565b505050565b60606000600960008481526020019081526020016000206001016040516020016107a29190612ed4565b60405160208183030381529060405290506107bc8161111b565b6040516020016107cc9190612fcb565b604051602081830303815290604052915050919050565b60004290506040518060c0016040528087815260200186815260200185815260200142815260200160008152602001838152506009600083815260200190815260200160002060008201518160000190805190602001906108459291906120fe565b5060208201518160010190805190602001906108629291906120fe565b50604082015181600201908051906020019061087f9291906120fe565b50606082015181600301556080820151816004015560a082015181600501559050506108ab338261127f565b6108bd816108b88361129d565b611329565b6108c83384836108d0565b505050505050565b6108e16108db61105a565b8261139d565b610920576040517f08c379a00000000000000000000000000000000000000000000000000000000081526004016109179061305f565b60405180910390fd5b61092b838383611432565b505050565b61094b83838360405180602001604052806000815250610d39565b505050565b600860009054906101000a900473ffffffffffffffffffffffffffffffffffffffff1673ffffffffffffffffffffffffffffffffffffffff163373ffffffffffffffffffffffffffffffffffffffff16146109e0576040517f08c379a00000000000000000000000000000000000000000000000000000000081526004016109d7906130cb565b60405180910390fd5b600960008281526020019081526020016000206004016000815480929190610a079061311a565b9190505550610a1e81610a198361129d565b611329565b50565b6000806002600084815260200190815260200160002060009054906101000a900473ffffffffffffffffffffffffffffffffffffffff169050600073ffffffffffffffffffffffffffffffffffffffff168173ffffffffffffffffffffffffffffffffffffffff161415610aca576040517f08c379a0000000000000000000000000000000000000000000000000000000008152600401610ac1906131af565b60405180910390fd5b80915050919050565b600060096000838152602001908152602001600020600401549050919050565b60008073ffffffffffffffffffffffffffffffffffffffff168273ffffffffffffffffffffffffffffffffffffffff161415610b64576040517f08c379a0000000000000000000000000000000000000000000000000000000008152600401610b5b90613241565b60405180910390fd5b600360008373ffffffffffffffffffffffffffffffffffffffff1673ffffffffffffffffffffffffffffffffffffffff168152602001908152602001600020549050919050565b610bb3611699565b610bbd6000611717565b565b6060600960008381526020019081526020016000206001018054610be290612903565b80601f0160208091040260200160405190810160405280929190818152602001828054610c0e90612903565b8015610c5b5780601f10610c3057610100808354040283529160200191610c5b565b820191906000526020600020905b815481529060010190602001808311610c3e57829003601f168201915b50505050509050919050565b6000600760009054906101000a900473ffffffffffffffffffffffffffffffffffffffff16905090565b606060018054610ca090612903565b80601f0160208091040260200160405190810160405280929190818152602001828054610ccc90612903565b8015610d195780601f10610cee57610100808354040283529160200191610d19565b820191906000526020600020905b815481529060010190602001808311610cfc57829003601f168201915b5050505050905090565b610d35610d2e61105a565b83836117dd565b5050565b610d4a610d4461105a565b8361139d565b610d89576040517f08c379a0000000000000000000000000000000000000000000000000000000008152600401610d809061305f565b60405180910390fd5b610d958484848461194a565b50505050565b6060610da6826119a6565b9050919050565b6000610dc0610dba61105a565b8361139d565b610dff576040517f08c379a0000000000000000000000000000000000000000000000000000000008152600401610df69061305f565b60405180910390fd5b60096000838152602001908152602001600020600301549050919050565b6000610e30610e2a61105a565b8361139d565b610e6f576040517f08c379a0000000000000000000000000000000000000000000000000000000008152600401610e669061305f565b60405180910390fd5b60096000838152602001908152602001600020600501549050919050565b6000600560008473ffffffffffffffffffffffffffffffffffffffff1673ffffffffffffffffffffffffffffffffffffffff16815260200190815260200160002060008373ffffffffffffffffffffffffffffffffffffffff1673ffffffffffffffffffffffffffffffffffffffff16815260200190815260200160002060009054906101000a900460ff16905092915050565b610f29611699565b600073ffffffffffffffffffffffffffffffffffffffff168173ffffffffffffffffffffffffffffffffffffffff161415610f99576040517f08c379a0000000000000000000000000000000000000000000000000000000008152600401610f90906132d3565b60405180910390fd5b610fa281611717565b50565b60007f01ffc9a7000000000000000000000000000000000000000000000000000000007bffffffffffffffffffffffffffffffffffffffffffffffffffffffff1916827bffffffffffffffffffffffffffffffffffffffffffffffffffffffff1916149050919050565b61101881611ab9565b611057576040517f08c379a000000000000000000000000000000000000000000000000000000000815260040161104e906131af565b60405180910390fd5b50565b600033905090565b816004600083815260200190815260200160002060006101000a81548173ffffffffffffffffffffffffffffffffffffffff021916908373ffffffffffffffffffffffffffffffffffffffff160217905550808273ffffffffffffffffffffffffffffffffffffffff166110d583610a21565b73ffffffffffffffffffffffffffffffffffffffff167f8c5be1e5ebec7d5bd14f71427d1e84f3dd0314c0f7b2291e5b200ac8c7c3b92560405160405180910390a45050565b606060008251141561113e5760405180602001604052806000815250905061127a565b6000604051806060016040528060408152602001613e3a604091399050600060036002855161116d91906132f3565b6111779190613378565b600461118391906133a9565b67ffffffffffffffff81111561119c5761119b612460565b5b6040519080825280601f01601f1916602001820160405280156111ce5781602001600182028036833780820191505090505b509050600182016020820185865187015b8082101561123a576003820191508151603f8160121c168501518453600184019350603f81600c1c168501518453600184019350603f8160061c168501518453600184019350603f81168501518453600184019350506111df565b5050600386510660018114611256576002811461126957611271565b603d6001830353603d6002830353611271565b603d60018303535b50505080925050505b919050565b611299828260405180602001604052806000815250611b25565b5050565b60606000600960008481526020019081526020016000206000016112c084610778565b600960008681526020019081526020016000206002016040516020016112e89392919061376d565b60405160208183030381529060405290506113028161111b565b6040516020016113129190613884565b604051602081830303815290604052915050919050565b61133282611ab9565b611371576040517f08c379a000000000000000000000000000000000000000000000000000000000815260040161136890613918565b60405180910390fd5b806006600084815260200190815260200160002090805190602001906113989291906120fe565b505050565b6000806113a983610a21565b90508073ffffffffffffffffffffffffffffffffffffffff168473ffffffffffffffffffffffffffffffffffffffff1614806113eb57506113ea8185610e8d565b5b8061142957508373ffffffffffffffffffffffffffffffffffffffff166114118461061a565b73ffffffffffffffffffffffffffffffffffffffff16145b91505092915050565b8273ffffffffffffffffffffffffffffffffffffffff1661145282610a21565b73ffffffffffffffffffffffffffffffffffffffff16146114a8576040517f08c379a000000000000000000000000000000000000000000000000000000000815260040161149f906139aa565b60405180910390fd5b600073ffffffffffffffffffffffffffffffffffffffff168273ffffffffffffffffffffffffffffffffffffffff161415611518576040517f08c379a000000000000000000000000000000000000000000000000000000000815260040161150f90613a3c565b60405180910390fd5b611523838383611b80565b61152e600082611062565b6001600360008573ffffffffffffffffffffffffffffffffffffffff1673ffffffffffffffffffffffffffffffffffffffff168152602001908152602001600020600082825461157e9190613a5c565b925050819055506001600360008473ffffffffffffffffffffffffffffffffffffffff1673ffffffffffffffffffffffffffffffffffffffff16815260200190815260200160002060008282546115d591906132f3565b92505081905550816002600083815260200190815260200160002060006101000a81548173ffffffffffffffffffffffffffffffffffffffff021916908373ffffffffffffffffffffffffffffffffffffffff160217905550808273ffffffffffffffffffffffffffffffffffffffff168473ffffffffffffffffffffffffffffffffffffffff167fddf252ad1be2c89b69c2b068fc378daa952ba7f163c4a11628f55a4df523b3ef60405160405180910390a4611694838383611b85565b505050565b6116a161105a565b73ffffffffffffffffffffffffffffffffffffffff166116bf610c67565b73ffffffffffffffffffffffffffffffffffffffff1614611715576040517f08c379a000000000000000000000000000000000000000000000000000000000815260040161170c90613adc565b60405180910390fd5b565b6000600760009054906101000a900473ffffffffffffffffffffffffffffffffffffffff16905081600760006101000a81548173ffffffffffffffffffffffffffffffffffffffff021916908373ffffffffffffffffffffffffffffffffffffffff1602179055508173ffffffffffffffffffffffffffffffffffffffff168173ffffffffffffffffffffffffffffffffffffffff167f8be0079c531659141344cd1fd0a4f28419497f9722a3daafe3b4186f6b6457e060405160405180910390a35050565b8173ffffffffffffffffffffffffffffffffffffffff168373ffffffffffffffffffffffffffffffffffffffff16141561184c576040517f08c379a000000000000000000000000000000000000000000000000000000000815260040161184390613b48565b60405180910390fd5b80600560008573ffffffffffffffffffffffffffffffffffffffff1673ffffffffffffffffffffffffffffffffffffffff16815260200190815260200160002060008473ffffffffffffffffffffffffffffffffffffffff1673ffffffffffffffffffffffffffffffffffffffff16815260200190815260200160002060006101000a81548160ff0219169083151502179055508173ffffffffffffffffffffffffffffffffffffffff168373ffffffffffffffffffffffffffffffffffffffff167f17307eab39ab6107e8899845ad3d59bd9653f200f220920489ca2b5937696c318360405161193d9190612255565b60405180910390a3505050565b611955848484611432565b61196184848484611b8a565b6119a0576040517f08c379a000000000000000000000000000000000000000000000000000000000815260040161199790613bda565b60405180910390fd5b50505050565b60606119b18261100f565b60006006600084815260200190815260200160002080546119d190612903565b80601f01602080910402602001604051908101604052809291908181526020018280546119fd90612903565b8015611a4a5780601f10611a1f57610100808354040283529160200191611a4a565b820191906000526020600020905b815481529060010190602001808311611a2d57829003601f168201915b505050505090506000611a5b611d21565b9050600081511415611a71578192505050611ab4565b600082511115611aa6578082604051602001611a8e929190613bfa565b60405160208183030381529060405292505050611ab4565b611aaf84611d38565b925050505b919050565b60008073ffffffffffffffffffffffffffffffffffffffff166002600084815260200190815260200160002060009054906101000a900473ffffffffffffffffffffffffffffffffffffffff1673ffffffffffffffffffffffffffffffffffffffff1614159050919050565b611b2f8383611da0565b611b3c6000848484611b8a565b611b7b576040517f08c379a0000000000000000000000000000000000000000000000000000000008152600401611b7290613bda565b60405180910390fd5b505050565b505050565b505050565b6000611bab8473ffffffffffffffffffffffffffffffffffffffff16611f7a565b15611d14578373ffffffffffffffffffffffffffffffffffffffff1663150b7a02611bd461105a565b8786866040518563ffffffff1660e01b8152600401611bf69493929190613c73565b602060405180830381600087803b158015611c1057600080fd5b505af1925050508015611c4157506040513d601f19601f82011682018060405250810190611c3e9190613cd4565b60015b611cc4573d8060008114611c71576040519150601f19603f3d011682016040523d82523d6000602084013e611c76565b606091505b50600081511415611cbc576040517f08c379a0000000000000000000000000000000000000000000000000000000008152600401611cb390613bda565b60405180910390fd5b805181602001fd5b63150b7a0260e01b7bffffffffffffffffffffffffffffffffffffffffffffffffffffffff1916817bffffffffffffffffffffffffffffffffffffffffffffffffffffffff191614915050611d19565b600190505b949350505050565b606060405180602001604052806000815250905090565b6060611d438261100f565b6000611d4d611d21565b90506000815111611d6d5760405180602001604052806000815250611d98565b80611d7784611f9d565b604051602001611d88929190613bfa565b6040516020818303038152906040525b915050919050565b600073ffffffffffffffffffffffffffffffffffffffff168273ffffffffffffffffffffffffffffffffffffffff161415611e10576040517f08c379a0000000000000000000000000000000000000000000000000000000008152600401611e0790613d4d565b60405180910390fd5b611e1981611ab9565b15611e59576040517f08c379a0000000000000000000000000000000000000000000000000000000008152600401611e5090613db9565b60405180910390fd5b611e6560008383611b80565b6001600360008473ffffffffffffffffffffffffffffffffffffffff1673ffffffffffffffffffffffffffffffffffffffff1681526020019081526020016000206000828254611eb591906132f3565b92505081905550816002600083815260200190815260200160002060006101000a81548173ffffffffffffffffffffffffffffffffffffffff021916908373ffffffffffffffffffffffffffffffffffffffff160217905550808273ffffffffffffffffffffffffffffffffffffffff16600073ffffffffffffffffffffffffffffffffffffffff167fddf252ad1be2c89b69c2b068fc378daa952ba7f163c4a11628f55a4df523b3ef60405160405180910390a4611f7660008383611b85565b5050565b6000808273ffffffffffffffffffffffffffffffffffffffff163b119050919050565b60606000821415611fe5576040518060400160405280600181526020017f300000000000000000000000000000000000000000000000000000000000000081525090506120f9565b600082905060005b600082146120175780806120009061311a565b915050600a826120109190613378565b9150611fed565b60008167ffffffffffffffff81111561203357612032612460565b5b6040519080825280601f01601f1916602001820160405280156120655781602001600182028036833780820191505090505b5090505b600085146120f25760018261207e9190613a5c565b9150600a8561208d9190613dd9565b603061209991906132f3565b60f81b8183815181106120af576120ae613e0a565b5b60200101907effffffffffffffffffffffffffffffffffffffffffffffffffffffffffffff1916908160001a905350600a856120eb9190613378565b9450612069565b8093505050505b919050565b82805461210a90612903565b90600052602060002090601f01602090048101928261212c5760008555612173565b82601f1061214557805160ff1916838001178555612173565b82800160010185558215612173579182015b82811115612172578251825591602001919060010190612157565b5b5090506121809190612184565b5090565b5b8082111561219d576000816000905550600101612185565b5090565b6000604051905090565b600080fd5b600080fd5b60007fffffffff0000000000000000000000000000000000000000000000000000000082169050919050565b6121ea816121b5565b81146121f557600080fd5b50565b600081359050612207816121e1565b92915050565b600060208284031215612223576122226121ab565b5b6000612231848285016121f8565b91505092915050565b60008115159050919050565b61224f8161223a565b82525050565b600060208201905061226a6000830184612246565b92915050565b600081519050919050565b600082825260208201905092915050565b60005b838110156122aa57808201518184015260208101905061228f565b838111156122b9576000848401525b50505050565b6000601f19601f8301169050919050565b60006122db82612270565b6122e5818561227b565b93506122f581856020860161228c565b6122fe816122bf565b840191505092915050565b6000602082019050818103600083015261232381846122d0565b905092915050565b6000819050919050565b61233e8161232b565b811461234957600080fd5b50565b60008135905061235b81612335565b92915050565b600060208284031215612377576123766121ab565b5b60006123858482850161234c565b91505092915050565b600073ffffffffffffffffffffffffffffffffffffffff82169050919050565b60006123b98261238e565b9050919050565b6123c9816123ae565b82525050565b60006020820190506123e460008301846123c0565b92915050565b6123f3816123ae565b81146123fe57600080fd5b50565b600081359050612410816123ea565b92915050565b6000806040838503121561242d5761242c6121ab565b5b600061243b85828601612401565b925050602061244c8582860161234c565b9150509250929050565b600080fd5b600080fd5b7f4e487b7100000000000000000000000000000000000000000000000000000000600052604160045260246000fd5b612498826122bf565b810181811067ffffffffffffffff821117156124b7576124b6612460565b5b80604052505050565b60006124ca6121a1565b90506124d6828261248f565b919050565b600067ffffffffffffffff8211156124f6576124f5612460565b5b6124ff826122bf565b9050602081019050919050565b82818337600083830152505050565b600061252e612529846124db565b6124c0565b90508281526020810184848401111561254a5761254961245b565b5b61255584828561250c565b509392505050565b600082601f83011261257257612571612456565b5b813561258284826020860161251b565b91505092915050565b600080600080600060a086880312156125a7576125a66121ab565b5b600086013567ffffffffffffffff8111156125c5576125c46121b0565b5b6125d18882890161255d565b955050602086013567ffffffffffffffff8111156125f2576125f16121b0565b5b6125fe8882890161255d565b945050604086013567ffffffffffffffff81111561261f5761261e6121b0565b5b61262b8882890161255d565b935050606061263c88828901612401565b925050608061264d8882890161234c565b9150509295509295909350565b600080600060608486031215612673576126726121ab565b5b600061268186828701612401565b935050602061269286828701612401565b92505060406126a38682870161234c565b9150509250925092565b6126b68161232b565b82525050565b60006020820190506126d160008301846126ad565b92915050565b6000602082840312156126ed576126ec6121ab565b5b60006126fb84828501612401565b91505092915050565b61270d8161223a565b811461271857600080fd5b50565b60008135905061272a81612704565b92915050565b60008060408385031215612747576127466121ab565b5b600061275585828601612401565b92505060206127668582860161271b565b9150509250929050565b600067ffffffffffffffff82111561278b5761278a612460565b5b612794826122bf565b9050602081019050919050565b60006127b46127af84612770565b6124c0565b9050828152602081018484840111156127d0576127cf61245b565b5b6127db84828561250c565b509392505050565b600082601f8301126127f8576127f7612456565b5b81356128088482602086016127a1565b91505092915050565b6000806000806080858703121561282b5761282a6121ab565b5b600061283987828801612401565b945050602061284a87828801612401565b935050604061285b8782880161234c565b925050606085013567ffffffffffffffff81111561287c5761287b6121b0565b5b612888878288016127e3565b91505092959194509250565b600080604083850312156128ab576128aa6121ab565b5b60006128b985828601612401565b92505060206128ca85828601612401565b9150509250929050565b7f4e487b7100000000000000000000000000000000000000000000000000000000600052602260045260246000fd5b6000600282049050600182168061291b57607f821691505b6020821081141561292f5761292e6128d4565b5b50919050565b7f4552433732313a20617070726f76616c20746f2063757272656e74206f776e6560008201527f7200000000000000000000000000000000000000000000000000000000000000602082015250565b600061299160218361227b565b915061299c82612935565b604082019050919050565b600060208201905081810360008301526129c081612984565b9050919050565b7f4552433732313a20617070726f76652063616c6c6572206973206e6f7420746f60008201527f6b656e206f776e6572206e6f7220617070726f76656420666f7220616c6c0000602082015250565b6000612a23603e8361227b565b9150612a2e826129c7565b604082019050919050565b60006020820190508181036000830152612a5281612a16565b9050919050565b600081905092915050565b7f3c73766720786d6c6e733d22687474703a2f2f7777772e77332e6f72672f323060008201527f30302f73766722207072657365727665417370656374526174696f3d22784d6960208201527f6e594d696e206d656574222076696577426f783d22302030203335302033353060408201527f223e000000000000000000000000000000000000000000000000000000000000606082015250565b6000612b0c606283612a59565b9150612b1782612a64565b606282019050919050565b7f3c7374796c653e2e62617365207b2066696c6c3a20636f72616c3b20666f6e7460008201527f2d66616d696c793a2073657269663b20666f6e742d73697a653a20313470783b60208201527f207d3c2f7374796c653e00000000000000000000000000000000000000000000604082015250565b6000612ba4604a83612a59565b9150612baf82612b22565b604a82019050919050565b7f3c726563742077696474683d223130302522206865696768743d22313030252260008201527f2066696c6c3d22626c61636b22202f3e00000000000000000000000000000000602082015250565b6000612c16603083612a59565b9150612c2182612bba565b603082019050919050565b7f3c7465787420783d223530252220793d223430252220636c6173733d2262617360008201527f652220646f6d696e616e742d626173656c696e653d226d6964646c652220746560208201527f78742d616e63686f723d226d6964646c65223e00000000000000000000000000604082015250565b6000612cae605383612a59565b9150612cb982612c2c565b605382019050919050565b7f57617272656e7479204361726400000000000000000000000000000000000000600082015250565b6000612cfa600d83612a59565b9150612d0582612cc4565b600d82019050919050565b7f3c2f746578743e00000000000000000000000000000000000000000000000000600082015250565b6000612d46600783612a59565b9150612d5182612d10565b600782019050919050565b7f3c7465787420783d223530252220793d223530252220636c6173733d2262617360008201527f652220646f6d696e616e742d626173656c696e653d226d6964646c652220746560208201527f78742d616e63686f723d226d6964646c65223e00000000000000000000000000604082015250565b6000612dde605383612a59565b9150612de982612d5c565b605382019050919050565b60008190508160005260206000209050919050565b60008154612e1681612903565b612e208186612a59565b94506001821660008114612e3b5760018114612e4c57612e7f565b60ff19831686528186019350612e7f565b612e5585612df4565b60005b83811015612e7757815481890152600182019150602081019050612e58565b838801955050505b50505092915050565b7f3c2f7376673e0000000000000000000000000000000000000000000000000000600082015250565b6000612ebe600683612a59565b9150612ec982612e88565b600682019050919050565b6000612edf82612aff565b9150612eea82612b97565b9150612ef582612c09565b9150612f0082612ca1565b9150612f0b82612ced565b9150612f1682612d39565b9150612f2182612dd1565b9150612f2d8284612e09565b9150612f3882612d39565b9150612f4382612eb1565b915081905092915050565b7f646174613a696d6167652f7376672b786d6c3b6261736536342c000000000000600082015250565b6000612f84601a83612a59565b9150612f8f82612f4e565b601a82019050919050565b6000612fa582612270565b612faf8185612a59565b9350612fbf81856020860161228c565b80840191505092915050565b6000612fd682612f77565b9150612fe28284612f9a565b915081905092915050565b7f4552433732313a2063616c6c6572206973206e6f7420746f6b656e206f776e6560008201527f72206e6f7220617070726f766564000000000000000000000000000000000000602082015250565b6000613049602e8361227b565b915061305482612fed565b604082019050919050565b600060208201905081810360008301526130788161303c565b9050919050565b7f4e6f7420616e206f776e65722021210000000000000000000000000000000000600082015250565b60006130b5600f8361227b565b91506130c08261307f565b602082019050919050565b600060208201905081810360008301526130e4816130a8565b9050919050565b7f4e487b7100000000000000000000000000000000000000000000000000000000600052601160045260246000fd5b60006131258261232b565b91507fffffffffffffffffffffffffffffffffffffffffffffffffffffffffffffffff821415613158576131576130eb565b5b600182019050919050565b7f4552433732313a20696e76616c696420746f6b656e2049440000000000000000600082015250565b600061319960188361227b565b91506131a482613163565b602082019050919050565b600060208201905081810360008301526131c88161318c565b9050919050565b7f4552433732313a2061646472657373207a65726f206973206e6f74206120766160008201527f6c6964206f776e65720000000000000000000000000000000000000000000000602082015250565b600061322b60298361227b565b9150613236826131cf565b604082019050919050565b6000602082019050818103600083015261325a8161321e565b9050919050565b7f4f776e61626c653a206e6577206f776e657220697320746865207a65726f206160008201527f6464726573730000000000000000000000000000000000000000000000000000602082015250565b60006132bd60268361227b565b91506132c882613261565b604082019050919050565b600060208201905081810360008301526132ec816132b0565b9050919050565b60006132fe8261232b565b91506133098361232b565b9250827fffffffffffffffffffffffffffffffffffffffffffffffffffffffffffffffff0382111561333e5761333d6130eb565b5b828201905092915050565b7f4e487b7100000000000000000000000000000000000000000000000000000000600052601260045260246000fd5b60006133838261232b565b915061338e8361232b565b92508261339e5761339d613349565b5b828204905092915050565b60006133b48261232b565b91506133bf8361232b565b9250817fffffffffffffffffffffffffffffffffffffffffffffffffffffffffffffffff04831182151516156133f8576133f76130eb565b5b828202905092915050565b7f7b00000000000000000000000000000000000000000000000000000000000000600082015250565b6000613439600183612a59565b915061344482613403565b600182019050919050565b7f226e616d65223a202257617272656e7479204f776e6572203a00000000000000600082015250565b6000613485601983612a59565b91506134908261344f565b601982019050919050565b7f222c000000000000000000000000000000000000000000000000000000000000600082015250565b60006134d1600283612a59565b91506134dc8261349b565b600282019050919050565b7f226465736372697074696f6e223a20225468697320697320796f75722077617260008201527f72656e74792063617264202121222c0000000000000000000000000000000000602082015250565b6000613543602f83612a59565b915061354e826134e7565b602f82019050919050565b7f22696d616765223a202200000000000000000000000000000000000000000000600082015250565b600061358f600a83612a59565b915061359a82613559565b600a82019050919050565b7f226174747269627574657322203a205b00000000000000000000000000000000600082015250565b60006135db601083612a59565b91506135e6826135a5565b601082019050919050565b7f2274726169745f7479706522203a202253657269616c222c0000000000000000600082015250565b6000613627601883612a59565b9150613632826135f1565b601882019050919050565b7f2276616c756522203a2022000000000000000000000000000000000000000000600082015250565b6000613673600b83612a59565b915061367e8261363d565b600b82019050919050565b7f2200000000000000000000000000000000000000000000000000000000000000600082015250565b60006136bf600183612a59565b91506136ca82613689565b600182019050919050565b7f7d00000000000000000000000000000000000000000000000000000000000000600082015250565b600061370b600183612a59565b9150613716826136d5565b600182019050919050565b7f5d00000000000000000000000000000000000000000000000000000000000000600082015250565b6000613757600183612a59565b915061376282613721565b600182019050919050565b60006137788261342c565b915061378382613478565b915061378f8286612e09565b915061379a826134c4565b91506137a582613536565b91506137b082613582565b91506137bc8285612f9a565b91506137c7826134c4565b91506137d2826135ce565b91506137dd8261342c565b91506137e88261361a565b91506137f382613666565b91506137ff8284612e09565b915061380a826136b2565b9150613815826136fe565b91506138208261374a565b915061382b826136fe565b9150819050949350505050565b7f646174613a6170706c69636174696f6e2f6a736f6e3b6261736536342c000000600082015250565b600061386e601d83612a59565b915061387982613838565b601d82019050919050565b600061388f82613861565b915061389b8284612f9a565b915081905092915050565b7f45524337323155524953746f726167653a2055524920736574206f66206e6f6e60008201527f6578697374656e7420746f6b656e000000000000000000000000000000000000602082015250565b6000613902602e8361227b565b915061390d826138a6565b604082019050919050565b60006020820190508181036000830152613931816138f5565b9050919050565b7f4552433732313a207472616e736665722066726f6d20696e636f72726563742060008201527f6f776e6572000000000000000000000000000000000000000000000000000000602082015250565b600061399460258361227b565b915061399f82613938565b604082019050919050565b600060208201905081810360008301526139c381613987565b9050919050565b7f4552433732313a207472616e7366657220746f20746865207a65726f2061646460008201527f7265737300000000000000000000000000000000000000000000000000000000602082015250565b6000613a2660248361227b565b9150613a31826139ca565b604082019050919050565b60006020820190508181036000830152613a5581613a19565b9050919050565b6000613a678261232b565b9150613a728361232b565b925082821015613a8557613a846130eb565b5b828203905092915050565b7f4f776e61626c653a2063616c6c6572206973206e6f7420746865206f776e6572600082015250565b6000613ac660208361227b565b9150613ad182613a90565b602082019050919050565b60006020820190508181036000830152613af581613ab9565b9050919050565b7f4552433732313a20617070726f766520746f2063616c6c657200000000000000600082015250565b6000613b3260198361227b565b9150613b3d82613afc565b602082019050919050565b60006020820190508181036000830152613b6181613b25565b9050919050565b7f4552433732313a207472616e7366657220746f206e6f6e20455243373231526560008201527f63656976657220696d706c656d656e7465720000000000000000000000000000602082015250565b6000613bc460328361227b565b9150613bcf82613b68565b604082019050919050565b60006020820190508181036000830152613bf381613bb7565b9050919050565b6000613c068285612f9a565b9150613c128284612f9a565b91508190509392505050565b600081519050919050565b600082825260208201905092915050565b6000613c4582613c1e565b613c4f8185613c29565b9350613c5f81856020860161228c565b613c68816122bf565b840191505092915050565b6000608082019050613c8860008301876123c0565b613c9560208301866123c0565b613ca260408301856126ad565b8181036060830152613cb48184613c3a565b905095945050505050565b600081519050613cce816121e1565b92915050565b600060208284031215613cea57613ce96121ab565b5b6000613cf884828501613cbf565b91505092915050565b7f4552433732313a206d696e7420746f20746865207a65726f2061646472657373600082015250565b6000613d3760208361227b565b9150613d4282613d01565b602082019050919050565b60006020820190508181036000830152613d6681613d2a565b9050919050565b7f4552433732313a20746f6b656e20616c7265616479206d696e74656400000000600082015250565b6000613da3601c8361227b565b9150613dae82613d6d565b602082019050919050565b60006020820190508181036000830152613dd281613d96565b9050919050565b6000613de48261232b565b9150613def8361232b565b925082613dff57613dfe613349565b5b828206905092915050565b7f4e487b7100000000000000000000000000000000000000000000000000000000600052603260045260246000fdfe4142434445464748494a4b4c4d4e4f505152535455565758595a6162636465666768696a6b6c6d6e6f707172737475767778797a303132333435363738392b2fa26469706673582212205de0fba58dd7133931697b0310ad9467904d046e34781b77453858809c7551b864736f6c63430008090033",
  "linkReferences": {},
  "deployedLinkReferences": {}
}