{
  "_format": "hh-sol-artifact-1",
  "contractName": "WarrentyNFT",
  "sourceName": "contracts/WarrentyNFT.sol",
  "abi": [
    {
      "inputs": [],
      "stateMutability": "nonpayable",
      "type": "constructor"
    },
    {
      "anonymous": false,
      "inputs": [
        {
          "indexed": true,
          "internalType": "address",
          "name": "owner",
          "type": "address"
        },
        {
          "indexed": true,
          "internalType": "address",
          "name": "approved",
          "type": "address"
        },
        {
          "indexed": true,
          "internalType": "uint256",
          "name": "tokenId",
          "type": "uint256"
        }
      ],
      "name": "Approval",
      "type": "event"
    },
    {
      "anonymous": false,
      "inputs": [
        {
          "indexed": true,
          "internalType": "address",
          "name": "owner",
          "type": "address"
        },
        {
          "indexed": true,
          "internalType": "address",
          "name": "operator",
          "type": "address"
        },
        {
          "indexed": false,
          "internalType": "bool",
          "name": "approved",
          "type": "bool"
        }
      ],
      "name": "ApprovalForAll",
      "type": "event"
    },
    {
      "anonymous": false,
      "inputs": [
        {
          "indexed": true,
          "internalType": "address",
          "name": "previousOwner",
          "type": "address"
        },
        {
          "indexed": true,
          "internalType": "address",
          "name": "newOwner",
          "type": "address"
        }
      ],
      "name": "OwnershipTransferred",
      "type": "event"
    },
    {
      "anonymous": false,
      "inputs": [
        {
          "indexed": true,
          "internalType": "address",
          "name": "from",
          "type": "address"
        },
        {
          "indexed": true,
          "internalType": "address",
          "name": "to",
          "type": "address"
        },
        {
          "indexed": true,
          "internalType": "uint256",
          "name": "tokenId",
          "type": "uint256"
        }
      ],
      "name": "Transfer",
      "type": "event"
    },
    {
      "inputs": [
        {
          "internalType": "uint256",
          "name": "tokenId",
          "type": "uint256"
        }
      ],
      "name": "Burn",
      "outputs": [],
      "stateMutability": "payable",
      "type": "function"
    },
    {
      "inputs": [
        {
          "internalType": "uint256",
          "name": "tokenId",
          "type": "uint256"
        }
      ],
      "name": "DateOfPurchase",
      "outputs": [
        {
          "internalType": "uint256",
          "name": "",
          "type": "uint256"
        }
      ],
      "stateMutability": "view",
      "type": "function"
    },
    {
      "inputs": [
        {
          "internalType": "uint256",
          "name": "tokenId",
          "type": "uint256"
        }
      ],
      "name": "ItemType",
      "outputs": [
        {
          "internalType": "string",
          "name": "",
          "type": "string"
        }
      ],
      "stateMutability": "view",
      "type": "function"
    },
    {
      "inputs": [
        {
          "internalType": "uint256",
          "name": "tokenId",
          "type": "uint256"
        }
      ],
      "name": "Repairs",
      "outputs": [
        {
          "internalType": "uint256",
          "name": "",
          "type": "uint256"
        }
      ],
      "stateMutability": "view",
      "type": "function"
    },
    {
      "inputs": [
        {
          "internalType": "address",
          "name": "to",
          "type": "address"
        },
        {
          "internalType": "uint256",
          "name": "tokenId",
          "type": "uint256"
        }
      ],
      "name": "approve",
      "outputs": [],
      "stateMutability": "nonpayable",
      "type": "function"
    },
    {
      "inputs": [
        {
          "internalType": "address",
          "name": "owner",
          "type": "address"
        }
      ],
      "name": "balanceOf",
      "outputs": [
        {
          "internalType": "uint256",
          "name": "",
          "type": "uint256"
        }
      ],
      "stateMutability": "view",
      "type": "function"
    },
    {
      "inputs": [
        {
          "internalType": "uint256",
          "name": "tokenId",
          "type": "uint256"
        }
      ],
      "name": "generateCharacter",
      "outputs": [
        {
          "internalType": "string",
          "name": "",
          "type": "string"
        }
      ],
      "stateMutability": "view",
      "type": "function"
    },
    {
      "inputs": [
        {
          "internalType": "uint256",
          "name": "tokenId",
          "type": "uint256"
        }
      ],
      "name": "getApproved",
      "outputs": [
        {
          "internalType": "address",
          "name": "",
          "type": "address"
        }
      ],
      "stateMutability": "view",
      "type": "function"
    },
    {
      "inputs": [
        {
          "internalType": "address",
          "name": "owner",
          "type": "address"
        },
        {
          "internalType": "address",
          "name": "operator",
          "type": "address"
        }
      ],
      "name": "isApprovedForAll",
      "outputs": [
        {
          "internalType": "bool",
          "name": "",
          "type": "bool"
        }
      ],
      "stateMutability": "view",
      "type": "function"
    },
    {
      "inputs": [
        {
          "internalType": "string",
          "name": "_name",
          "type": "string"
        },
        {
          "internalType": "string",
          "name": "_product",
          "type": "string"
        },
        {
          "internalType": "string",
          "name": "_serial",
          "type": "string"
        },
        {
          "internalType": "address",
          "name": "cust",
          "type": "address"
        },
        {
          "internalType": "uint256",
          "name": "_month",
          "type": "uint256"
        }
      ],
      "name": "mint",
      "outputs": [],
      "stateMutability": "nonpayable",
      "type": "function"
    },
    {
      "inputs": [
        {
          "internalType": "uint256",
          "name": "tokenId",
          "type": "uint256"
        }
      ],
      "name": "monthOfExpiry",
      "outputs": [
        {
          "internalType": "uint256",
          "name": "",
          "type": "uint256"
        }
      ],
      "stateMutability": "view",
      "type": "function"
    },
    {
      "inputs": [],
      "name": "name",
      "outputs": [
        {
          "internalType": "string",
          "name": "",
          "type": "string"
        }
      ],
      "stateMutability": "view",
      "type": "function"
    },
    {
      "inputs": [],
      "name": "owner",
      "outputs": [
        {
          "internalType": "address",
          "name": "",
          "type": "address"
        }
      ],
      "stateMutability": "view",
      "type": "function"
    },
    {
      "inputs": [
        {
          "internalType": "uint256",
          "name": "tokenId",
          "type": "uint256"
        }
      ],
      "name": "ownerOf",
      "outputs": [
        {
          "internalType": "address",
          "name": "",
          "type": "address"
        }
      ],
      "stateMutability": "view",
      "type": "function"
    },
    {
      "inputs": [],
      "name": "renounceOwnership",
      "outputs": [],
      "stateMutability": "nonpayable",
      "type": "function"
    },
    {
      "inputs": [
        {
          "internalType": "address",
          "name": "from",
          "type": "address"
        },
        {
          "internalType": "address",
          "name": "to",
          "type": "address"
        },
        {
          "internalType": "uint256",
          "name": "tokenId",
          "type": "uint256"
        }
      ],
      "name": "safeTransferFrom",
      "outputs": [],
      "stateMutability": "nonpayable",
      "type": "function"
    },
    {
      "inputs": [
        {
          "internalType": "address",
          "name": "from",
          "type": "address"
        },
        {
          "internalType": "address",
          "name": "to",
          "type": "address"
        },
        {
          "internalType": "uint256",
          "name": "tokenId",
          "type": "uint256"
        },
        {
          "internalType": "bytes",
          "name": "data",
          "type": "bytes"
        }
      ],
      "name": "safeTransferFrom",
      "outputs": [],
      "stateMutability": "nonpayable",
      "type": "function"
    },
    {
      "inputs": [
        {
          "internalType": "address",
          "name": "operator",
          "type": "address"
        },
        {
          "internalType": "bool",
          "name": "approved",
          "type": "bool"
        }
      ],
      "name": "setApprovalForAll",
      "outputs": [],
      "stateMutability": "nonpayable",
      "type": "function"
    },
    {
      "inputs": [
        {
          "internalType": "uint256",
          "name": "tokenId",
          "type": "uint256"
        }
      ],
      "name": "setRepairs",
      "outputs": [],
      "stateMutability": "nonpayable",
      "type": "function"
    },
    {
      "inputs": [
        {
          "internalType": "bytes4",
          "name": "interfaceId",
          "type": "bytes4"
        }
      ],
      "name": "supportsInterface",
      "outputs": [
        {
          "internalType": "bool",
          "name": "",
          "type": "bool"
        }
      ],
      "stateMutability": "view",
      "type": "function"
    },
    {
      "inputs": [],
      "name": "symbol",
      "outputs": [
        {
          "internalType": "string",
          "name": "",
          "type": "string"
        }
      ],
      "stateMutability": "view",
      "type": "function"
    },
    {
      "inputs": [
        {
          "internalType": "uint256",
          "name": "tokenId",
          "type": "uint256"
        }
      ],
      "name": "tokenURI",
      "outputs": [
        {
          "internalType": "string",
          "name": "",
          "type": "string"
        }
      ],
      "stateMutability": "view",
      "type": "function"
    },
    {
      "inputs": [
        {
          "internalType": "address",
          "name": "from",
          "type": "address"
        },
        {
          "internalType": "address",
          "name": "to",
          "type": "address"
        },
        {
          "internalType": "uint256",
          "name": "tokenId",
          "type": "uint256"
        }
      ],
      "name": "transferFrom",
      "outputs": [],
      "stateMutability": "nonpayable",
      "type": "function"
    },
    {
      "inputs": [
        {
          "internalType": "address",
          "name": "newOwner",
          "type": "address"
        }
      ],
      "name": "transferOwnership",
      "outputs": [],
      "stateMutability": "nonpayable",
      "type": "function"
    }
  ],
  "bytecode": "0x60806040523480156200001157600080fd5b506040518060400160405280600881526020017f57617272656e74790000000000000000000000000000000000000000000000008152506040518060400160405280600481526020017f575254590000000000000000000000000000000000000000000000000000000081525081600090805190602001906200009692919062000220565b508060019080519060200190620000af92919062000220565b505050620000d2620000c66200012860201b60201c565b6200013060201b60201c565b620000e2620001f660201b60201c565b600860006101000a81548173ffffffffffffffffffffffffffffffffffffffff021916908373ffffffffffffffffffffffffffffffffffffffff16021790555062000335565b600033905090565b6000600760009054906101000a900473ffffffffffffffffffffffffffffffffffffffff16905081600760006101000a81548173ffffffffffffffffffffffffffffffffffffffff021916908373ffffffffffffffffffffffffffffffffffffffff1602179055508173ffffffffffffffffffffffffffffffffffffffff168173ffffffffffffffffffffffffffffffffffffffff167f8be0079c531659141344cd1fd0a4f28419497f9722a3daafe3b4186f6b6457e060405160405180910390a35050565b6000600760009054906101000a900473ffffffffffffffffffffffffffffffffffffffff16905090565b8280546200022e90620002ff565b90600052602060002090601f0160209004810192826200025257600085556200029e565b82601f106200026d57805160ff19168380011785556200029e565b828001600101855582156200029e579182015b828111156200029d57825182559160200191906001019062000280565b5b509050620002ad9190620002b1565b5090565b5b80821115620002cc576000816000905550600101620002b2565b5090565b7f4e487b7100000000000000000000000000000000000000000000000000000000600052602260045260246000fd5b600060028204905060018216806200031857607f821691505b602082108114156200032f576200032e620002d0565b5b50919050565b6140c080620003456000396000f3fe60806040526004361061014b5760003560e01c8063715018a6116100b6578063b90306ad1161006f578063b90306ad146104b2578063c87b56dd146104ce578063c87e0f551461050b578063ca775d2c14610548578063e985e9c514610585578063f2fde38b146105c25761014b565b8063715018a6146103b657806371971798146103cd5780638da5cb5b1461040a57806395d89b4114610435578063a22cb46514610460578063b88d4fde146104895761014b565b806323b872dd1161010857806323b872dd1461028457806342842e0e146102ad5780635170c7e9146102d65780636352211e146102ff5780636528a7cf1461033c57806370a08231146103795761014b565b806301ffc9a71461015057806306fdde031461018d578063081812fc146101b8578063095ea7b3146101f55780630daefed51461021e5780632162240b1461025b575b600080fd5b34801561015c57600080fd5b506101776004803603810190610172919061248a565b6105eb565b60405161018491906124d2565b60405180910390f35b34801561019957600080fd5b506101a26106cd565b6040516101af9190612586565b60405180910390f35b3480156101c457600080fd5b506101df60048036038101906101da91906125de565b61075f565b6040516101ec919061264c565b60405180910390f35b34801561020157600080fd5b5061021c60048036038101906102179190612693565b6107a5565b005b34801561022a57600080fd5b50610245600480360381019061024091906125de565b6108bd565b6040516102529190612586565b60405180910390f35b34801561026757600080fd5b50610282600480360381019061027d9190612808565b610928565b005b34801561029057600080fd5b506102ab60048036038101906102a691906128d7565b610a15565b005b3480156102b957600080fd5b506102d460048036038101906102cf91906128d7565b610a75565b005b3480156102e257600080fd5b506102fd60048036038101906102f891906125de565b610a95565b005b34801561030b57600080fd5b50610326600480360381019061032191906125de565b610ad6565b604051610333919061264c565b60405180910390f35b34801561034857600080fd5b50610363600480360381019061035e91906125de565b610b88565b6040516103709190612939565b60405180910390f35b34801561038557600080fd5b506103a0600480360381019061039b9190612954565b610ba8565b6040516103ad9190612939565b60405180910390f35b3480156103c257600080fd5b506103cb610c60565b005b3480156103d957600080fd5b506103f460048036038101906103ef91906125de565b610c74565b6040516104019190612586565b60405180910390f35b34801561041657600080fd5b5061041f610d1c565b60405161042c919061264c565b60405180910390f35b34801561044157600080fd5b5061044a610d46565b6040516104579190612586565b60405180910390f35b34801561046c57600080fd5b50610487600480360381019061048291906129ad565b610dd8565b005b34801561049557600080fd5b506104b060048036038101906104ab9190612a8e565b610dee565b005b6104cc60048036038101906104c791906125de565b610e50565b005b3480156104da57600080fd5b506104f560048036038101906104f091906125de565b610e5c565b6040516105029190612586565b60405180910390f35b34801561051757600080fd5b50610532600480360381019061052d91906125de565b610e6e565b60405161053f9190612939565b60405180910390f35b34801561055457600080fd5b5061056f600480360381019061056a91906125de565b610ede565b60405161057c9190612939565b60405180910390f35b34801561059157600080fd5b506105ac60048036038101906105a79190612b11565b610f4e565b6040516105b991906124d2565b60405180910390f35b3480156105ce57600080fd5b506105e960048036038101906105e49190612954565b610fe2565b005b60007f80ac58cd000000000000000000000000000000000000000000000000000000007bffffffffffffffffffffffffffffffffffffffffffffffffffffffff1916827bffffffffffffffffffffffffffffffffffffffffffffffffffffffff191614806106b657507f5b5e139f000000000000000000000000000000000000000000000000000000007bffffffffffffffffffffffffffffffffffffffffffffffffffffffff1916827bffffffffffffffffffffffffffffffffffffffffffffffffffffffff1916145b806106c657506106c582611066565b5b9050919050565b6060600080546106dc90612b80565b80601f016020809104026020016040519081016040528092919081815260200182805461070890612b80565b80156107555780601f1061072a57610100808354040283529160200191610755565b820191906000526020600020905b81548152906001019060200180831161073857829003601f168201915b5050505050905090565b600061076a826110d0565b6004600083815260200190815260200160002060009054906101000a900473ffffffffffffffffffffffffffffffffffffffff169050919050565b60006107b082610ad6565b90508073ffffffffffffffffffffffffffffffffffffffff168373ffffffffffffffffffffffffffffffffffffffff161415610821576040517f08c379a000000000000000000000000000000000000000000000000000000000815260040161081890612c24565b60405180910390fd5b8073ffffffffffffffffffffffffffffffffffffffff1661084061111b565b73ffffffffffffffffffffffffffffffffffffffff16148061086f575061086e8161086961111b565b610f4e565b5b6108ae576040517f08c379a00000000000000000000000000000000000000000000000000000000081526004016108a590612cb6565b60405180910390fd5b6108b88383611123565b505050565b60606000600960008481526020019081526020016000206001016040516020016108e79190613151565b6040516020818303038152906040529050610901816111dc565b6040516020016109119190613248565b604051602081830303815290604052915050919050565b60004290506040518060c00160405280878152602001868152602001858152602001428152602001600081526020018381525060096000838152602001908152602001600020600082015181600001908051906020019061098a92919061233b565b5060208201518160010190805190602001906109a792919061233b565b5060408201518160020190805190602001906109c492919061233b565b50606082015181600301556080820151816004015560a082015181600501559050506109f03382611340565b610a02816109fd8361135e565b6113ea565b610a0d338483610a15565b505050505050565b610a26610a2061111b565b8261145e565b610a65576040517f08c379a0000000000000000000000000000000000000000000000000000000008152600401610a5c906132dc565b60405180910390fd5b610a708383836114f3565b505050565b610a9083838360405180602001604052806000815250610dee565b505050565b600960008281526020019081526020016000206004016000815480929190610abc9061332b565b9190505550610ad381610ace8361135e565b6113ea565b50565b6000806002600084815260200190815260200160002060009054906101000a900473ffffffffffffffffffffffffffffffffffffffff169050600073ffffffffffffffffffffffffffffffffffffffff168173ffffffffffffffffffffffffffffffffffffffff161415610b7f576040517f08c379a0000000000000000000000000000000000000000000000000000000008152600401610b76906133c0565b60405180910390fd5b80915050919050565b600060096000838152602001908152602001600020600401549050919050565b60008073ffffffffffffffffffffffffffffffffffffffff168273ffffffffffffffffffffffffffffffffffffffff161415610c19576040517f08c379a0000000000000000000000000000000000000000000000000000000008152600401610c1090613452565b60405180910390fd5b600360008373ffffffffffffffffffffffffffffffffffffffff1673ffffffffffffffffffffffffffffffffffffffff168152602001908152602001600020549050919050565b610c6861175a565b610c7260006117d8565b565b6060600960008381526020019081526020016000206001018054610c9790612b80565b80601f0160208091040260200160405190810160405280929190818152602001828054610cc390612b80565b8015610d105780601f10610ce557610100808354040283529160200191610d10565b820191906000526020600020905b815481529060010190602001808311610cf357829003601f168201915b50505050509050919050565b6000600760009054906101000a900473ffffffffffffffffffffffffffffffffffffffff16905090565b606060018054610d5590612b80565b80601f0160208091040260200160405190810160405280929190818152602001828054610d8190612b80565b8015610dce5780601f10610da357610100808354040283529160200191610dce565b820191906000526020600020905b815481529060010190602001808311610db157829003601f168201915b5050505050905090565b610dea610de361111b565b838361189e565b5050565b610dff610df961111b565b8361145e565b610e3e576040517f08c379a0000000000000000000000000000000000000000000000000000000008152600401610e35906132dc565b60405180910390fd5b610e4a84848484611a0b565b50505050565b610e5981611a67565b50565b6060610e6782611a73565b9050919050565b6000610e81610e7b61111b565b8361145e565b610ec0576040517f08c379a0000000000000000000000000000000000000000000000000000000008152600401610eb7906132dc565b60405180910390fd5b60096000838152602001908152602001600020600301549050919050565b6000610ef1610eeb61111b565b8361145e565b610f30576040517f08c379a0000000000000000000000000000000000000000000000000000000008152600401610f27906132dc565b60405180910390fd5b60096000838152602001908152602001600020600501549050919050565b6000600560008473ffffffffffffffffffffffffffffffffffffffff1673ffffffffffffffffffffffffffffffffffffffff16815260200190815260200160002060008373ffffffffffffffffffffffffffffffffffffffff1673ffffffffffffffffffffffffffffffffffffffff16815260200190815260200160002060009054906101000a900460ff16905092915050565b610fea61175a565b600073ffffffffffffffffffffffffffffffffffffffff168173ffffffffffffffffffffffffffffffffffffffff16141561105a576040517f08c379a0000000000000000000000000000000000000000000000000000000008152600401611051906134e4565b60405180910390fd5b611063816117d8565b50565b60007f01ffc9a7000000000000000000000000000000000000000000000000000000007bffffffffffffffffffffffffffffffffffffffffffffffffffffffff1916827bffffffffffffffffffffffffffffffffffffffffffffffffffffffff1916149050919050565b6110d981611b86565b611118576040517f08c379a000000000000000000000000000000000000000000000000000000000815260040161110f906133c0565b60405180910390fd5b50565b600033905090565b816004600083815260200190815260200160002060006101000a81548173ffffffffffffffffffffffffffffffffffffffff021916908373ffffffffffffffffffffffffffffffffffffffff160217905550808273ffffffffffffffffffffffffffffffffffffffff1661119683610ad6565b73ffffffffffffffffffffffffffffffffffffffff167f8c5be1e5ebec7d5bd14f71427d1e84f3dd0314c0f7b2291e5b200ac8c7c3b92560405160405180910390a45050565b60606000825114156111ff5760405180602001604052806000815250905061133b565b600060405180606001604052806040815260200161404b604091399050600060036002855161122e9190613504565b6112389190613589565b600461124491906135ba565b67ffffffffffffffff81111561125d5761125c6126dd565b5b6040519080825280601f01601f19166020018201604052801561128f5781602001600182028036833780820191505090505b509050600182016020820185865187015b808210156112fb576003820191508151603f8160121c168501518453600184019350603f81600c1c168501518453600184019350603f8160061c168501518453600184019350603f81168501518453600184019350506112a0565b5050600386510660018114611317576002811461132a57611332565b603d6001830353603d6002830353611332565b603d60018303535b50505080925050505b919050565b61135a828260405180602001604052806000815250611bf2565b5050565b6060600060096000848152602001908152602001600020600001611381846108bd565b600960008681526020019081526020016000206002016040516020016113a99392919061397e565b60405160208183030381529060405290506113c3816111dc565b6040516020016113d39190613a95565b604051602081830303815290604052915050919050565b6113f382611b86565b611432576040517f08c379a000000000000000000000000000000000000000000000000000000000815260040161142990613b29565b60405180910390fd5b8060066000848152602001908152602001600020908051906020019061145992919061233b565b505050565b60008061146a83610ad6565b90508073ffffffffffffffffffffffffffffffffffffffff168473ffffffffffffffffffffffffffffffffffffffff1614806114ac57506114ab8185610f4e565b5b806114ea57508373ffffffffffffffffffffffffffffffffffffffff166114d28461075f565b73ffffffffffffffffffffffffffffffffffffffff16145b91505092915050565b8273ffffffffffffffffffffffffffffffffffffffff1661151382610ad6565b73ffffffffffffffffffffffffffffffffffffffff1614611569576040517f08c379a000000000000000000000000000000000000000000000000000000000815260040161156090613bbb565b60405180910390fd5b600073ffffffffffffffffffffffffffffffffffffffff168273ffffffffffffffffffffffffffffffffffffffff1614156115d9576040517f08c379a00000000000000000000000000000000000000000000000000000000081526004016115d090613c4d565b60405180910390fd5b6115e4838383611c4d565b6115ef600082611123565b6001600360008573ffffffffffffffffffffffffffffffffffffffff1673ffffffffffffffffffffffffffffffffffffffff168152602001908152602001600020600082825461163f9190613c6d565b925050819055506001600360008473ffffffffffffffffffffffffffffffffffffffff1673ffffffffffffffffffffffffffffffffffffffff16815260200190815260200160002060008282546116969190613504565b92505081905550816002600083815260200190815260200160002060006101000a81548173ffffffffffffffffffffffffffffffffffffffff021916908373ffffffffffffffffffffffffffffffffffffffff160217905550808273ffffffffffffffffffffffffffffffffffffffff168473ffffffffffffffffffffffffffffffffffffffff167fddf252ad1be2c89b69c2b068fc378daa952ba7f163c4a11628f55a4df523b3ef60405160405180910390a4611755838383611c52565b505050565b61176261111b565b73ffffffffffffffffffffffffffffffffffffffff16611780610d1c565b73ffffffffffffffffffffffffffffffffffffffff16146117d6576040517f08c379a00000000000000000000000000000000000000000000000000000000081526004016117cd90613ced565b60405180910390fd5b565b6000600760009054906101000a900473ffffffffffffffffffffffffffffffffffffffff16905081600760006101000a81548173ffffffffffffffffffffffffffffffffffffffff021916908373ffffffffffffffffffffffffffffffffffffffff1602179055508173ffffffffffffffffffffffffffffffffffffffff168173ffffffffffffffffffffffffffffffffffffffff167f8be0079c531659141344cd1fd0a4f28419497f9722a3daafe3b4186f6b6457e060405160405180910390a35050565b8173ffffffffffffffffffffffffffffffffffffffff168373ffffffffffffffffffffffffffffffffffffffff16141561190d576040517f08c379a000000000000000000000000000000000000000000000000000000000815260040161190490613d59565b60405180910390fd5b80600560008573ffffffffffffffffffffffffffffffffffffffff1673ffffffffffffffffffffffffffffffffffffffff16815260200190815260200160002060008473ffffffffffffffffffffffffffffffffffffffff1673ffffffffffffffffffffffffffffffffffffffff16815260200190815260200160002060006101000a81548160ff0219169083151502179055508173ffffffffffffffffffffffffffffffffffffffff168373ffffffffffffffffffffffffffffffffffffffff167f17307eab39ab6107e8899845ad3d59bd9653f200f220920489ca2b5937696c31836040516119fe91906124d2565b60405180910390a3505050565b611a168484846114f3565b611a2284848484611c57565b611a61576040517f08c379a0000000000000000000000000000000000000000000000000000000008152600401611a5890613deb565b60405180910390fd5b50505050565b611a7081611dee565b50565b6060611a7e826110d0565b6000600660008481526020019081526020016000208054611a9e90612b80565b80601f0160208091040260200160405190810160405280929190818152602001828054611aca90612b80565b8015611b175780601f10611aec57610100808354040283529160200191611b17565b820191906000526020600020905b815481529060010190602001808311611afa57829003601f168201915b505050505090506000611b28611e41565b9050600081511415611b3e578192505050611b81565b600082511115611b73578082604051602001611b5b929190613e0b565b60405160208183030381529060405292505050611b81565b611b7c84611e58565b925050505b919050565b60008073ffffffffffffffffffffffffffffffffffffffff166002600084815260200190815260200160002060009054906101000a900473ffffffffffffffffffffffffffffffffffffffff1673ffffffffffffffffffffffffffffffffffffffff1614159050919050565b611bfc8383611ec0565b611c096000848484611c57565b611c48576040517f08c379a0000000000000000000000000000000000000000000000000000000008152600401611c3f90613deb565b60405180910390fd5b505050565b505050565b505050565b6000611c788473ffffffffffffffffffffffffffffffffffffffff1661209a565b15611de1578373ffffffffffffffffffffffffffffffffffffffff1663150b7a02611ca161111b565b8786866040518563ffffffff1660e01b8152600401611cc39493929190613e84565b602060405180830381600087803b158015611cdd57600080fd5b505af1925050508015611d0e57506040513d601f19601f82011682018060405250810190611d0b9190613ee5565b60015b611d91573d8060008114611d3e576040519150601f19603f3d011682016040523d82523d6000602084013e611d43565b606091505b50600081511415611d89576040517f08c379a0000000000000000000000000000000000000000000000000000000008152600401611d8090613deb565b60405180910390fd5b805181602001fd5b63150b7a0260e01b7bffffffffffffffffffffffffffffffffffffffffffffffffffffffff1916817bffffffffffffffffffffffffffffffffffffffffffffffffffffffff191614915050611de6565b600190505b949350505050565b611df7816120bd565b6000600660008381526020019081526020016000208054611e1790612b80565b905014611e3e57600660008281526020019081526020016000206000611e3d91906123c1565b5b50565b606060405180602001604052806000815250905090565b6060611e63826110d0565b6000611e6d611e41565b90506000815111611e8d5760405180602001604052806000815250611eb8565b80611e97846121da565b604051602001611ea8929190613e0b565b6040516020818303038152906040525b915050919050565b600073ffffffffffffffffffffffffffffffffffffffff168273ffffffffffffffffffffffffffffffffffffffff161415611f30576040517f08c379a0000000000000000000000000000000000000000000000000000000008152600401611f2790613f5e565b60405180910390fd5b611f3981611b86565b15611f79576040517f08c379a0000000000000000000000000000000000000000000000000000000008152600401611f7090613fca565b60405180910390fd5b611f8560008383611c4d565b6001600360008473ffffffffffffffffffffffffffffffffffffffff1673ffffffffffffffffffffffffffffffffffffffff1681526020019081526020016000206000828254611fd59190613504565b92505081905550816002600083815260200190815260200160002060006101000a81548173ffffffffffffffffffffffffffffffffffffffff021916908373ffffffffffffffffffffffffffffffffffffffff160217905550808273ffffffffffffffffffffffffffffffffffffffff16600073ffffffffffffffffffffffffffffffffffffffff167fddf252ad1be2c89b69c2b068fc378daa952ba7f163c4a11628f55a4df523b3ef60405160405180910390a461209660008383611c52565b5050565b6000808273ffffffffffffffffffffffffffffffffffffffff163b119050919050565b60006120c882610ad6565b90506120d681600084611c4d565b6120e1600083611123565b6001600360008373ffffffffffffffffffffffffffffffffffffffff1673ffffffffffffffffffffffffffffffffffffffff16815260200190815260200160002060008282546121319190613c6d565b925050819055506002600083815260200190815260200160002060006101000a81549073ffffffffffffffffffffffffffffffffffffffff021916905581600073ffffffffffffffffffffffffffffffffffffffff168273ffffffffffffffffffffffffffffffffffffffff167fddf252ad1be2c89b69c2b068fc378daa952ba7f163c4a11628f55a4df523b3ef60405160405180910390a46121d681600084611c52565b5050565b60606000821415612222576040518060400160405280600181526020017f30000000000000000000000000000000000000000000000000000000000000008152509050612336565b600082905060005b6000821461225457808061223d9061332b565b915050600a8261224d9190613589565b915061222a565b60008167ffffffffffffffff8111156122705761226f6126dd565b5b6040519080825280601f01601f1916602001820160405280156122a25781602001600182028036833780820191505090505b5090505b6000851461232f576001826122bb9190613c6d565b9150600a856122ca9190613fea565b60306122d69190613504565b60f81b8183815181106122ec576122eb61401b565b5b60200101907effffffffffffffffffffffffffffffffffffffffffffffffffffffffffffff1916908160001a905350600a856123289190613589565b94506122a6565b8093505050505b919050565b82805461234790612b80565b90600052602060002090601f01602090048101928261236957600085556123b0565b82601f1061238257805160ff19168380011785556123b0565b828001600101855582156123b0579182015b828111156123af578251825591602001919060010190612394565b5b5090506123bd9190612401565b5090565b5080546123cd90612b80565b6000825580601f106123df57506123fe565b601f0160209004906000526020600020908101906123fd9190612401565b5b50565b5b8082111561241a576000816000905550600101612402565b5090565b6000604051905090565b600080fd5b600080fd5b60007fffffffff0000000000000000000000000000000000000000000000000000000082169050919050565b61246781612432565b811461247257600080fd5b50565b6000813590506124848161245e565b92915050565b6000602082840312156124a05761249f612428565b5b60006124ae84828501612475565b91505092915050565b60008115159050919050565b6124cc816124b7565b82525050565b60006020820190506124e760008301846124c3565b92915050565b600081519050919050565b600082825260208201905092915050565b60005b8381101561252757808201518184015260208101905061250c565b83811115612536576000848401525b50505050565b6000601f19601f8301169050919050565b6000612558826124ed565b61256281856124f8565b9350612572818560208601612509565b61257b8161253c565b840191505092915050565b600060208201905081810360008301526125a0818461254d565b905092915050565b6000819050919050565b6125bb816125a8565b81146125c657600080fd5b50565b6000813590506125d8816125b2565b92915050565b6000602082840312156125f4576125f3612428565b5b6000612602848285016125c9565b91505092915050565b600073ffffffffffffffffffffffffffffffffffffffff82169050919050565b60006126368261260b565b9050919050565b6126468161262b565b82525050565b6000602082019050612661600083018461263d565b92915050565b6126708161262b565b811461267b57600080fd5b50565b60008135905061268d81612667565b92915050565b600080604083850312156126aa576126a9612428565b5b60006126b88582860161267e565b92505060206126c9858286016125c9565b9150509250929050565b600080fd5b600080fd5b7f4e487b7100000000000000000000000000000000000000000000000000000000600052604160045260246000fd5b6127158261253c565b810181811067ffffffffffffffff82111715612734576127336126dd565b5b80604052505050565b600061274761241e565b9050612753828261270c565b919050565b600067ffffffffffffffff821115612773576127726126dd565b5b61277c8261253c565b9050602081019050919050565b82818337600083830152505050565b60006127ab6127a684612758565b61273d565b9050828152602081018484840111156127c7576127c66126d8565b5b6127d2848285612789565b509392505050565b600082601f8301126127ef576127ee6126d3565b5b81356127ff848260208601612798565b91505092915050565b600080600080600060a0868803121561282457612823612428565b5b600086013567ffffffffffffffff8111156128425761284161242d565b5b61284e888289016127da565b955050602086013567ffffffffffffffff81111561286f5761286e61242d565b5b61287b888289016127da565b945050604086013567ffffffffffffffff81111561289c5761289b61242d565b5b6128a8888289016127da565b93505060606128b98882890161267e565b92505060806128ca888289016125c9565b9150509295509295909350565b6000806000606084860312156128f0576128ef612428565b5b60006128fe8682870161267e565b935050602061290f8682870161267e565b9250506040612920868287016125c9565b9150509250925092565b612933816125a8565b82525050565b600060208201905061294e600083018461292a565b92915050565b60006020828403121561296a57612969612428565b5b60006129788482850161267e565b91505092915050565b61298a816124b7565b811461299557600080fd5b50565b6000813590506129a781612981565b92915050565b600080604083850312156129c4576129c3612428565b5b60006129d28582860161267e565b92505060206129e385828601612998565b9150509250929050565b600067ffffffffffffffff821115612a0857612a076126dd565b5b612a118261253c565b9050602081019050919050565b6000612a31612a2c846129ed565b61273d565b905082815260208101848484011115612a4d57612a4c6126d8565b5b612a58848285612789565b509392505050565b600082601f830112612a7557612a746126d3565b5b8135612a85848260208601612a1e565b91505092915050565b60008060008060808587031215612aa857612aa7612428565b5b6000612ab68782880161267e565b9450506020612ac78782880161267e565b9350506040612ad8878288016125c9565b925050606085013567ffffffffffffffff811115612af957612af861242d565b5b612b0587828801612a60565b91505092959194509250565b60008060408385031215612b2857612b27612428565b5b6000612b368582860161267e565b9250506020612b478582860161267e565b9150509250929050565b7f4e487b7100000000000000000000000000000000000000000000000000000000600052602260045260246000fd5b60006002820490506001821680612b9857607f821691505b60208210811415612bac57612bab612b51565b5b50919050565b7f4552433732313a20617070726f76616c20746f2063757272656e74206f776e6560008201527f7200000000000000000000000000000000000000000000000000000000000000602082015250565b6000612c0e6021836124f8565b9150612c1982612bb2565b604082019050919050565b60006020820190508181036000830152612c3d81612c01565b9050919050565b7f4552433732313a20617070726f76652063616c6c6572206973206e6f7420746f60008201527f6b656e206f776e6572206e6f7220617070726f76656420666f7220616c6c0000602082015250565b6000612ca0603e836124f8565b9150612cab82612c44565b604082019050919050565b60006020820190508181036000830152612ccf81612c93565b9050919050565b600081905092915050565b7f3c73766720786d6c6e733d22687474703a2f2f7777772e77332e6f72672f323060008201527f30302f73766722207072657365727665417370656374526174696f3d22784d6960208201527f6e594d696e206d656574222076696577426f783d22302030203335302033353060408201527f223e000000000000000000000000000000000000000000000000000000000000606082015250565b6000612d89606283612cd6565b9150612d9482612ce1565b606282019050919050565b7f3c7374796c653e2e62617365207b2066696c6c3a20636f72616c3b20666f6e7460008201527f2d66616d696c793a2073657269663b20666f6e742d73697a653a20313470783b60208201527f207d3c2f7374796c653e00000000000000000000000000000000000000000000604082015250565b6000612e21604a83612cd6565b9150612e2c82612d9f565b604a82019050919050565b7f3c726563742077696474683d223130302522206865696768743d22313030252260008201527f2066696c6c3d22626c61636b22202f3e00000000000000000000000000000000602082015250565b6000612e93603083612cd6565b9150612e9e82612e37565b603082019050919050565b7f3c7465787420783d223530252220793d223430252220636c6173733d2262617360008201527f652220646f6d696e616e742d626173656c696e653d226d6964646c652220746560208201527f78742d616e63686f723d226d6964646c65223e00000000000000000000000000604082015250565b6000612f2b605383612cd6565b9150612f3682612ea9565b605382019050919050565b7f57617272656e7479204361726400000000000000000000000000000000000000600082015250565b6000612f77600d83612cd6565b9150612f8282612f41565b600d82019050919050565b7f3c2f746578743e00000000000000000000000000000000000000000000000000600082015250565b6000612fc3600783612cd6565b9150612fce82612f8d565b600782019050919050565b7f3c7465787420783d223530252220793d223530252220636c6173733d2262617360008201527f652220646f6d696e616e742d626173656c696e653d226d6964646c652220746560208201527f78742d616e63686f723d226d6964646c65223e00000000000000000000000000604082015250565b600061305b605383612cd6565b915061306682612fd9565b605382019050919050565b60008190508160005260206000209050919050565b6000815461309381612b80565b61309d8186612cd6565b945060018216600081146130b857600181146130c9576130fc565b60ff198316865281860193506130fc565b6130d285613071565b60005b838110156130f4578154818901526001820191506020810190506130d5565b838801955050505b50505092915050565b7f3c2f7376673e0000000000000000000000000000000000000000000000000000600082015250565b600061313b600683612cd6565b915061314682613105565b600682019050919050565b600061315c82612d7c565b915061316782612e14565b915061317282612e86565b915061317d82612f1e565b915061318882612f6a565b915061319382612fb6565b915061319e8261304e565b91506131aa8284613086565b91506131b582612fb6565b91506131c08261312e565b915081905092915050565b7f646174613a696d6167652f7376672b786d6c3b6261736536342c000000000000600082015250565b6000613201601a83612cd6565b915061320c826131cb565b601a82019050919050565b6000613222826124ed565b61322c8185612cd6565b935061323c818560208601612509565b80840191505092915050565b6000613253826131f4565b915061325f8284613217565b915081905092915050565b7f4552433732313a2063616c6c6572206973206e6f7420746f6b656e206f776e6560008201527f72206e6f7220617070726f766564000000000000000000000000000000000000602082015250565b60006132c6602e836124f8565b91506132d18261326a565b604082019050919050565b600060208201905081810360008301526132f5816132b9565b9050919050565b7f4e487b7100000000000000000000000000000000000000000000000000000000600052601160045260246000fd5b6000613336826125a8565b91507fffffffffffffffffffffffffffffffffffffffffffffffffffffffffffffffff821415613369576133686132fc565b5b600182019050919050565b7f4552433732313a20696e76616c696420746f6b656e2049440000000000000000600082015250565b60006133aa6018836124f8565b91506133b582613374565b602082019050919050565b600060208201905081810360008301526133d98161339d565b9050919050565b7f4552433732313a2061646472657373207a65726f206973206e6f74206120766160008201527f6c6964206f776e65720000000000000000000000000000000000000000000000602082015250565b600061343c6029836124f8565b9150613447826133e0565b604082019050919050565b6000602082019050818103600083015261346b8161342f565b9050919050565b7f4f776e61626c653a206e6577206f776e657220697320746865207a65726f206160008201527f6464726573730000000000000000000000000000000000000000000000000000602082015250565b60006134ce6026836124f8565b91506134d982613472565b604082019050919050565b600060208201905081810360008301526134fd816134c1565b9050919050565b600061350f826125a8565b915061351a836125a8565b9250827fffffffffffffffffffffffffffffffffffffffffffffffffffffffffffffffff0382111561354f5761354e6132fc565b5b828201905092915050565b7f4e487b7100000000000000000000000000000000000000000000000000000000600052601260045260246000fd5b6000613594826125a8565b915061359f836125a8565b9250826135af576135ae61355a565b5b828204905092915050565b60006135c5826125a8565b91506135d0836125a8565b9250817fffffffffffffffffffffffffffffffffffffffffffffffffffffffffffffffff0483118215151615613609576136086132fc565b5b828202905092915050565b7f7b00000000000000000000000000000000000000000000000000000000000000600082015250565b600061364a600183612cd6565b915061365582613614565b600182019050919050565b7f226e616d65223a202257617272656e7479204f776e6572203a00000000000000600082015250565b6000613696601983612cd6565b91506136a182613660565b601982019050919050565b7f222c000000000000000000000000000000000000000000000000000000000000600082015250565b60006136e2600283612cd6565b91506136ed826136ac565b600282019050919050565b7f226465736372697074696f6e223a20225468697320697320796f75722077617260008201527f72656e74792063617264202121222c0000000000000000000000000000000000602082015250565b6000613754602f83612cd6565b915061375f826136f8565b602f82019050919050565b7f22696d616765223a202200000000000000000000000000000000000000000000600082015250565b60006137a0600a83612cd6565b91506137ab8261376a565b600a82019050919050565b7f226174747269627574657322203a205b00000000000000000000000000000000600082015250565b60006137ec601083612cd6565b91506137f7826137b6565b601082019050919050565b7f2274726169745f7479706522203a202253657269616c222c0000000000000000600082015250565b6000613838601883612cd6565b915061384382613802565b601882019050919050565b7f2276616c756522203a2022000000000000000000000000000000000000000000600082015250565b6000613884600b83612cd6565b915061388f8261384e565b600b82019050919050565b7f2200000000000000000000000000000000000000000000000000000000000000600082015250565b60006138d0600183612cd6565b91506138db8261389a565b600182019050919050565b7f7d00000000000000000000000000000000000000000000000000000000000000600082015250565b600061391c600183612cd6565b9150613927826138e6565b600182019050919050565b7f5d00000000000000000000000000000000000000000000000000000000000000600082015250565b6000613968600183612cd6565b915061397382613932565b600182019050919050565b60006139898261363d565b915061399482613689565b91506139a08286613086565b91506139ab826136d5565b91506139b682613747565b91506139c182613793565b91506139cd8285613217565b91506139d8826136d5565b91506139e3826137df565b91506139ee8261363d565b91506139f98261382b565b9150613a0482613877565b9150613a108284613086565b9150613a1b826138c3565b9150613a268261390f565b9150613a318261395b565b9150613a3c8261390f565b9150819050949350505050565b7f646174613a6170706c69636174696f6e2f6a736f6e3b6261736536342c000000600082015250565b6000613a7f601d83612cd6565b9150613a8a82613a49565b601d82019050919050565b6000613aa082613a72565b9150613aac8284613217565b915081905092915050565b7f45524337323155524953746f726167653a2055524920736574206f66206e6f6e60008201527f6578697374656e7420746f6b656e000000000000000000000000000000000000602082015250565b6000613b13602e836124f8565b9150613b1e82613ab7565b604082019050919050565b60006020820190508181036000830152613b4281613b06565b9050919050565b7f4552433732313a207472616e736665722066726f6d20696e636f72726563742060008201527f6f776e6572000000000000000000000000000000000000000000000000000000602082015250565b6000613ba56025836124f8565b9150613bb082613b49565b604082019050919050565b60006020820190508181036000830152613bd481613b98565b9050919050565b7f4552433732313a207472616e7366657220746f20746865207a65726f2061646460008201527f7265737300000000000000000000000000000000000000000000000000000000602082015250565b6000613c376024836124f8565b9150613c4282613bdb565b604082019050919050565b60006020820190508181036000830152613c6681613c2a565b9050919050565b6000613c78826125a8565b9150613c83836125a8565b925082821015613c9657613c956132fc565b5b828203905092915050565b7f4f776e61626c653a2063616c6c6572206973206e6f7420746865206f776e6572600082015250565b6000613cd76020836124f8565b9150613ce282613ca1565b602082019050919050565b60006020820190508181036000830152613d0681613cca565b9050919050565b7f4552433732313a20617070726f766520746f2063616c6c657200000000000000600082015250565b6000613d436019836124f8565b9150613d4e82613d0d565b602082019050919050565b60006020820190508181036000830152613d7281613d36565b9050919050565b7f4552433732313a207472616e7366657220746f206e6f6e20455243373231526560008201527f63656976657220696d706c656d656e7465720000000000000000000000000000602082015250565b6000613dd56032836124f8565b9150613de082613d79565b604082019050919050565b60006020820190508181036000830152613e0481613dc8565b9050919050565b6000613e178285613217565b9150613e238284613217565b91508190509392505050565b600081519050919050565b600082825260208201905092915050565b6000613e5682613e2f565b613e608185613e3a565b9350613e70818560208601612509565b613e798161253c565b840191505092915050565b6000608082019050613e99600083018761263d565b613ea6602083018661263d565b613eb3604083018561292a565b8181036060830152613ec58184613e4b565b905095945050505050565b600081519050613edf8161245e565b92915050565b600060208284031215613efb57613efa612428565b5b6000613f0984828501613ed0565b91505092915050565b7f4552433732313a206d696e7420746f20746865207a65726f2061646472657373600082015250565b6000613f486020836124f8565b9150613f5382613f12565b602082019050919050565b60006020820190508181036000830152613f7781613f3b565b9050919050565b7f4552433732313a20746f6b656e20616c7265616479206d696e74656400000000600082015250565b6000613fb4601c836124f8565b9150613fbf82613f7e565b602082019050919050565b60006020820190508181036000830152613fe381613fa7565b9050919050565b6000613ff5826125a8565b9150614000836125a8565b9250826140105761400f61355a565b5b828206905092915050565b7f4e487b7100000000000000000000000000000000000000000000000000000000600052603260045260246000fdfe4142434445464748494a4b4c4d4e4f505152535455565758595a6162636465666768696a6b6c6d6e6f707172737475767778797a303132333435363738392b2fa2646970667358221220bb44d9006ff81b72649a257dd072faa419a9d77f87503f3309c1dd706a8af14e64736f6c63430008090033",
  "linkReferences": {},
  "deployedLinkReferences": {}
}