{
  "_format": "hh-sol-artifact-1",
  "contractName": "WarrentyNFT",
  "sourceName": "contracts/WarrentyNFT.sol",
  "abi": [
    {
      "inputs": [],
      "stateMutability": "nonpayable",
      "type": "constructor"
    },
    {
      "anonymous": false,
      "inputs": [
        {
          "indexed": true,
          "internalType": "address",
          "name": "owner",
          "type": "address"
        },
        {
          "indexed": true,
          "internalType": "address",
          "name": "approved",
          "type": "address"
        },
        {
          "indexed": true,
          "internalType": "uint256",
          "name": "tokenId",
          "type": "uint256"
        }
      ],
      "name": "Approval",
      "type": "event"
    },
    {
      "anonymous": false,
      "inputs": [
        {
          "indexed": true,
          "internalType": "address",
          "name": "owner",
          "type": "address"
        },
        {
          "indexed": true,
          "internalType": "address",
          "name": "operator",
          "type": "address"
        },
        {
          "indexed": false,
          "internalType": "bool",
          "name": "approved",
          "type": "bool"
        }
      ],
      "name": "ApprovalForAll",
      "type": "event"
    },
    {
      "anonymous": false,
      "inputs": [
        {
          "indexed": true,
          "internalType": "address",
          "name": "previousOwner",
          "type": "address"
        },
        {
          "indexed": true,
          "internalType": "address",
          "name": "newOwner",
          "type": "address"
        }
      ],
      "name": "OwnershipTransferred",
      "type": "event"
    },
    {
      "anonymous": false,
      "inputs": [
        {
          "indexed": true,
          "internalType": "address",
          "name": "from",
          "type": "address"
        },
        {
          "indexed": true,
          "internalType": "address",
          "name": "to",
          "type": "address"
        },
        {
          "indexed": true,
          "internalType": "uint256",
          "name": "tokenId",
          "type": "uint256"
        }
      ],
      "name": "Transfer",
      "type": "event"
    },
    {
      "inputs": [
        {
          "internalType": "address",
          "name": "to",
          "type": "address"
        },
        {
          "internalType": "uint256",
          "name": "tokenId",
          "type": "uint256"
        }
      ],
      "name": "approve",
      "outputs": [],
      "stateMutability": "nonpayable",
      "type": "function"
    },
    {
      "inputs": [
        {
          "internalType": "address",
          "name": "owner",
          "type": "address"
        }
      ],
      "name": "balanceOf",
      "outputs": [
        {
          "internalType": "uint256",
          "name": "",
          "type": "uint256"
        }
      ],
      "stateMutability": "view",
      "type": "function"
    },
    {
      "inputs": [
        {
          "internalType": "uint256",
          "name": "tokenId",
          "type": "uint256"
        }
      ],
      "name": "getApproved",
      "outputs": [
        {
          "internalType": "address",
          "name": "",
          "type": "address"
        }
      ],
      "stateMutability": "view",
      "type": "function"
    },
    {
      "inputs": [
        {
          "internalType": "address",
          "name": "owner",
          "type": "address"
        },
        {
          "internalType": "address",
          "name": "operator",
          "type": "address"
        }
      ],
      "name": "isApprovedForAll",
      "outputs": [
        {
          "internalType": "bool",
          "name": "",
          "type": "bool"
        }
      ],
      "stateMutability": "view",
      "type": "function"
    },
    {
      "inputs": [
        {
          "internalType": "string",
          "name": "_name",
          "type": "string"
        },
        {
          "internalType": "string",
          "name": "_product",
          "type": "string"
        },
        {
          "internalType": "string",
          "name": "_serial",
          "type": "string"
        },
        {
          "internalType": "address",
          "name": "cust",
          "type": "address"
        }
      ],
      "name": "mint",
      "outputs": [],
      "stateMutability": "nonpayable",
      "type": "function"
    },
    {
      "inputs": [],
      "name": "name",
      "outputs": [
        {
          "internalType": "string",
          "name": "",
          "type": "string"
        }
      ],
      "stateMutability": "view",
      "type": "function"
    },
    {
      "inputs": [],
      "name": "owner",
      "outputs": [
        {
          "internalType": "address",
          "name": "",
          "type": "address"
        }
      ],
      "stateMutability": "view",
      "type": "function"
    },
    {
      "inputs": [
        {
          "internalType": "uint256",
          "name": "tokenId",
          "type": "uint256"
        }
      ],
      "name": "ownerOf",
      "outputs": [
        {
          "internalType": "address",
          "name": "",
          "type": "address"
        }
      ],
      "stateMutability": "view",
      "type": "function"
    },
    {
      "inputs": [],
      "name": "renounceOwnership",
      "outputs": [],
      "stateMutability": "nonpayable",
      "type": "function"
    },
    {
      "inputs": [
        {
          "internalType": "address",
          "name": "from",
          "type": "address"
        },
        {
          "internalType": "address",
          "name": "to",
          "type": "address"
        },
        {
          "internalType": "uint256",
          "name": "tokenId",
          "type": "uint256"
        }
      ],
      "name": "safeTransferFrom",
      "outputs": [],
      "stateMutability": "nonpayable",
      "type": "function"
    },
    {
      "inputs": [
        {
          "internalType": "address",
          "name": "from",
          "type": "address"
        },
        {
          "internalType": "address",
          "name": "to",
          "type": "address"
        },
        {
          "internalType": "uint256",
          "name": "tokenId",
          "type": "uint256"
        },
        {
          "internalType": "bytes",
          "name": "data",
          "type": "bytes"
        }
      ],
      "name": "safeTransferFrom",
      "outputs": [],
      "stateMutability": "nonpayable",
      "type": "function"
    },
    {
      "inputs": [
        {
          "internalType": "address",
          "name": "operator",
          "type": "address"
        },
        {
          "internalType": "bool",
          "name": "approved",
          "type": "bool"
        }
      ],
      "name": "setApprovalForAll",
      "outputs": [],
      "stateMutability": "nonpayable",
      "type": "function"
    },
    {
      "inputs": [
        {
          "internalType": "uint256",
          "name": "tokenId",
          "type": "uint256"
        }
      ],
      "name": "setRepairs",
      "outputs": [],
      "stateMutability": "nonpayable",
      "type": "function"
    },
    {
      "inputs": [
        {
          "internalType": "bytes4",
          "name": "interfaceId",
          "type": "bytes4"
        }
      ],
      "name": "supportsInterface",
      "outputs": [
        {
          "internalType": "bool",
          "name": "",
          "type": "bool"
        }
      ],
      "stateMutability": "view",
      "type": "function"
    },
    {
      "inputs": [],
      "name": "symbol",
      "outputs": [
        {
          "internalType": "string",
          "name": "",
          "type": "string"
        }
      ],
      "stateMutability": "view",
      "type": "function"
    },
    {
      "inputs": [
        {
          "internalType": "uint256",
          "name": "tokenId",
          "type": "uint256"
        }
      ],
      "name": "tokenURI",
      "outputs": [
        {
          "internalType": "string",
          "name": "",
          "type": "string"
        }
      ],
      "stateMutability": "view",
      "type": "function"
    },
    {
      "inputs": [
        {
          "internalType": "address",
          "name": "from",
          "type": "address"
        },
        {
          "internalType": "address",
          "name": "to",
          "type": "address"
        },
        {
          "internalType": "uint256",
          "name": "tokenId",
          "type": "uint256"
        }
      ],
      "name": "transferFrom",
      "outputs": [],
      "stateMutability": "nonpayable",
      "type": "function"
    },
    {
      "inputs": [
        {
          "internalType": "address",
          "name": "newOwner",
          "type": "address"
        }
      ],
      "name": "transferOwnership",
      "outputs": [],
      "stateMutability": "nonpayable",
      "type": "function"
    }
  ],
  "bytecode": "0x60806040523480156200001157600080fd5b506040518060400160405280600881526020017f57617272656e74790000000000000000000000000000000000000000000000008152506040518060400160405280600481526020017f575254590000000000000000000000000000000000000000000000000000000081525081600090805190602001906200009692919062000220565b508060019080519060200190620000af92919062000220565b505050620000d2620000c66200012860201b60201c565b6200013060201b60201c565b620000e2620001f660201b60201c565b600860006101000a81548173ffffffffffffffffffffffffffffffffffffffff021916908373ffffffffffffffffffffffffffffffffffffffff16021790555062000335565b600033905090565b6000600760009054906101000a900473ffffffffffffffffffffffffffffffffffffffff16905081600760006101000a81548173ffffffffffffffffffffffffffffffffffffffff021916908373ffffffffffffffffffffffffffffffffffffffff1602179055508173ffffffffffffffffffffffffffffffffffffffff168173ffffffffffffffffffffffffffffffffffffffff167f8be0079c531659141344cd1fd0a4f28419497f9722a3daafe3b4186f6b6457e060405160405180910390a35050565b6000600760009054906101000a900473ffffffffffffffffffffffffffffffffffffffff16905090565b8280546200022e90620002ff565b90600052602060002090601f0160209004810192826200025257600085556200029e565b82601f106200026d57805160ff19168380011785556200029e565b828001600101855582156200029e579182015b828111156200029d57825182559160200191906001019062000280565b5b509050620002ad9190620002b1565b5090565b5b80821115620002cc576000816000905550600101620002b2565b5090565b7f4e487b7100000000000000000000000000000000000000000000000000000000600052602260045260246000fd5b600060028204905060018216806200031857607f821691505b602082108114156200032f576200032e620002d0565b5b50919050565b613c1b80620003456000396000f3fe608060405234801561001057600080fd5b50600436106101165760003560e01c806370a08231116100a2578063a22cb46511610071578063a22cb465146102cb578063b88d4fde146102e7578063c87b56dd14610303578063e985e9c514610333578063f2fde38b1461036357610116565b806370a0823114610255578063715018a6146102855780638da5cb5b1461028f57806395d89b41146102ad57610116565b806323b872dd116100e957806323b872dd146101b55780632aedc3f9146101d157806342842e0e146101ed5780635170c7e9146102095780636352211e1461022557610116565b806301ffc9a71461011b57806306fdde031461014b578063081812fc14610169578063095ea7b314610199575b600080fd5b61013560048036038101906101309190611f72565b61037f565b6040516101429190611fba565b60405180910390f35b610153610461565b604051610160919061206e565b60405180910390f35b610183600480360381019061017e91906120c6565b6104f3565b6040516101909190612134565b60405180910390f35b6101b360048036038101906101ae919061217b565b610539565b005b6101cf60048036038101906101ca91906121bb565b610651565b005b6101eb60048036038101906101e69190612343565b6106b1565b005b610207600480360381019061020291906121bb565b61078d565b005b610223600480360381019061021e91906120c6565b6107ad565b005b61023f600480360381019061023a91906120c6565b61087e565b60405161024c9190612134565b60405180910390f35b61026f600480360381019061026a91906123fe565b610930565b60405161027c919061243a565b60405180910390f35b61028d6109e8565b005b6102976109fc565b6040516102a49190612134565b60405180910390f35b6102b5610a26565b6040516102c2919061206e565b60405180910390f35b6102e560048036038101906102e09190612481565b610ab8565b005b61030160048036038101906102fc9190612562565b610ace565b005b61031d600480360381019061031891906120c6565b610b30565b60405161032a919061206e565b60405180910390f35b61034d600480360381019061034891906125e5565b610b42565b60405161035a9190611fba565b60405180910390f35b61037d600480360381019061037891906123fe565b610bd6565b005b60007f80ac58cd000000000000000000000000000000000000000000000000000000007bffffffffffffffffffffffffffffffffffffffffffffffffffffffff1916827bffffffffffffffffffffffffffffffffffffffffffffffffffffffff1916148061044a57507f5b5e139f000000000000000000000000000000000000000000000000000000007bffffffffffffffffffffffffffffffffffffffffffffffffffffffff1916827bffffffffffffffffffffffffffffffffffffffffffffffffffffffff1916145b8061045a575061045982610c5a565b5b9050919050565b60606000805461047090612654565b80601f016020809104026020016040519081016040528092919081815260200182805461049c90612654565b80156104e95780601f106104be576101008083540402835291602001916104e9565b820191906000526020600020905b8154815290600101906020018083116104cc57829003601f168201915b5050505050905090565b60006104fe82610cc4565b6004600083815260200190815260200160002060009054906101000a900473ffffffffffffffffffffffffffffffffffffffff169050919050565b60006105448261087e565b90508073ffffffffffffffffffffffffffffffffffffffff168373ffffffffffffffffffffffffffffffffffffffff1614156105b5576040517f08c379a00000000000000000000000000000000000000000000000000000000081526004016105ac906126f8565b60405180910390fd5b8073ffffffffffffffffffffffffffffffffffffffff166105d4610d0f565b73ffffffffffffffffffffffffffffffffffffffff1614806106035750610602816105fd610d0f565b610b42565b5b610642576040517f08c379a00000000000000000000000000000000000000000000000000000000081526004016106399061278a565b60405180910390fd5b61064c8383610d17565b505050565b61066261065c610d0f565b82610dd0565b6106a1576040517f08c379a00000000000000000000000000000000000000000000000000000000081526004016106989061281c565b60405180910390fd5b6106ac838383610e65565b505050565b60004290506040518060a00160405280868152602001858152602001848152602001428152602001600081525060096000838152602001908152602001600020600082015181600001908051906020019061070d929190611e63565b50602082015181600101908051906020019061072a929190611e63565b506040820151816002019080519060200190610747929190611e63565b50606082015181600301556080820151816004015590505061076933826110cc565b61077b81610776836110ea565b6111a4565b610786338383610651565b5050505050565b6107a883838360405180602001604052806000815250610ace565b505050565b600860009054906101000a900473ffffffffffffffffffffffffffffffffffffffff1673ffffffffffffffffffffffffffffffffffffffff163373ffffffffffffffffffffffffffffffffffffffff161461083d576040517f08c379a000000000000000000000000000000000000000000000000000000000815260040161083490612888565b60405180910390fd5b600960008281526020019081526020016000206004016000815480929190610864906128d7565b919050555061087b81610876836110ea565b6111a4565b50565b6000806002600084815260200190815260200160002060009054906101000a900473ffffffffffffffffffffffffffffffffffffffff169050600073ffffffffffffffffffffffffffffffffffffffff168173ffffffffffffffffffffffffffffffffffffffff161415610927576040517f08c379a000000000000000000000000000000000000000000000000000000000815260040161091e9061296c565b60405180910390fd5b80915050919050565b60008073ffffffffffffffffffffffffffffffffffffffff168273ffffffffffffffffffffffffffffffffffffffff1614156109a1576040517f08c379a0000000000000000000000000000000000000000000000000000000008152600401610998906129fe565b60405180910390fd5b600360008373ffffffffffffffffffffffffffffffffffffffff1673ffffffffffffffffffffffffffffffffffffffff168152602001908152602001600020549050919050565b6109f0611218565b6109fa6000611296565b565b6000600760009054906101000a900473ffffffffffffffffffffffffffffffffffffffff16905090565b606060018054610a3590612654565b80601f0160208091040260200160405190810160405280929190818152602001828054610a6190612654565b8015610aae5780601f10610a8357610100808354040283529160200191610aae565b820191906000526020600020905b815481529060010190602001808311610a9157829003601f168201915b5050505050905090565b610aca610ac3610d0f565b838361135c565b5050565b610adf610ad9610d0f565b83610dd0565b610b1e576040517f08c379a0000000000000000000000000000000000000000000000000000000008152600401610b159061281c565b60405180910390fd5b610b2a848484846114c9565b50505050565b6060610b3b82611525565b9050919050565b6000600560008473ffffffffffffffffffffffffffffffffffffffff1673ffffffffffffffffffffffffffffffffffffffff16815260200190815260200160002060008373ffffffffffffffffffffffffffffffffffffffff1673ffffffffffffffffffffffffffffffffffffffff16815260200190815260200160002060009054906101000a900460ff16905092915050565b610bde611218565b600073ffffffffffffffffffffffffffffffffffffffff168173ffffffffffffffffffffffffffffffffffffffff161415610c4e576040517f08c379a0000000000000000000000000000000000000000000000000000000008152600401610c4590612a90565b60405180910390fd5b610c5781611296565b50565b60007f01ffc9a7000000000000000000000000000000000000000000000000000000007bffffffffffffffffffffffffffffffffffffffffffffffffffffffff1916827bffffffffffffffffffffffffffffffffffffffffffffffffffffffff1916149050919050565b610ccd81611638565b610d0c576040517f08c379a0000000000000000000000000000000000000000000000000000000008152600401610d039061296c565b60405180910390fd5b50565b600033905090565b816004600083815260200190815260200160002060006101000a81548173ffffffffffffffffffffffffffffffffffffffff021916908373ffffffffffffffffffffffffffffffffffffffff160217905550808273ffffffffffffffffffffffffffffffffffffffff16610d8a8361087e565b73ffffffffffffffffffffffffffffffffffffffff167f8c5be1e5ebec7d5bd14f71427d1e84f3dd0314c0f7b2291e5b200ac8c7c3b92560405160405180910390a45050565b600080610ddc8361087e565b90508073ffffffffffffffffffffffffffffffffffffffff168473ffffffffffffffffffffffffffffffffffffffff161480610e1e5750610e1d8185610b42565b5b80610e5c57508373ffffffffffffffffffffffffffffffffffffffff16610e44846104f3565b73ffffffffffffffffffffffffffffffffffffffff16145b91505092915050565b8273ffffffffffffffffffffffffffffffffffffffff16610e858261087e565b73ffffffffffffffffffffffffffffffffffffffff1614610edb576040517f08c379a0000000000000000000000000000000000000000000000000000000008152600401610ed290612b22565b60405180910390fd5b600073ffffffffffffffffffffffffffffffffffffffff168273ffffffffffffffffffffffffffffffffffffffff161415610f4b576040517f08c379a0000000000000000000000000000000000000000000000000000000008152600401610f4290612bb4565b60405180910390fd5b610f568383836116a4565b610f61600082610d17565b6001600360008573ffffffffffffffffffffffffffffffffffffffff1673ffffffffffffffffffffffffffffffffffffffff1681526020019081526020016000206000828254610fb19190612bd4565b925050819055506001600360008473ffffffffffffffffffffffffffffffffffffffff1673ffffffffffffffffffffffffffffffffffffffff16815260200190815260200160002060008282546110089190612c08565b92505081905550816002600083815260200190815260200160002060006101000a81548173ffffffffffffffffffffffffffffffffffffffff021916908373ffffffffffffffffffffffffffffffffffffffff160217905550808273ffffffffffffffffffffffffffffffffffffffff168473ffffffffffffffffffffffffffffffffffffffff167fddf252ad1be2c89b69c2b068fc378daa952ba7f163c4a11628f55a4df523b3ef60405160405180910390a46110c78383836116a9565b505050565b6110e68282604051806020016040528060008152506116ae565b5050565b60606000600960008481526020019081526020016000206000016009600085815260200190815260200160002060010161112385611709565b60096000878152602001908152602001600020600201600960008881526020019081526020016000206002016040516020016111639594939291906130e4565b604051602081830303815290604052905061117d8161178b565b60405160200161118d91906131df565b604051602081830303815290604052915050919050565b6111ad82611638565b6111ec576040517f08c379a00000000000000000000000000000000000000000000000000000000081526004016111e390613268565b60405180910390fd5b80600660008481526020019081526020016000209080519060200190611213929190611e63565b505050565b611220610d0f565b73ffffffffffffffffffffffffffffffffffffffff1661123e6109fc565b73ffffffffffffffffffffffffffffffffffffffff1614611294576040517f08c379a000000000000000000000000000000000000000000000000000000000815260040161128b906132d4565b60405180910390fd5b565b6000600760009054906101000a900473ffffffffffffffffffffffffffffffffffffffff16905081600760006101000a81548173ffffffffffffffffffffffffffffffffffffffff021916908373ffffffffffffffffffffffffffffffffffffffff1602179055508173ffffffffffffffffffffffffffffffffffffffff168173ffffffffffffffffffffffffffffffffffffffff167f8be0079c531659141344cd1fd0a4f28419497f9722a3daafe3b4186f6b6457e060405160405180910390a35050565b8173ffffffffffffffffffffffffffffffffffffffff168373ffffffffffffffffffffffffffffffffffffffff1614156113cb576040517f08c379a00000000000000000000000000000000000000000000000000000000081526004016113c290613340565b60405180910390fd5b80600560008573ffffffffffffffffffffffffffffffffffffffff1673ffffffffffffffffffffffffffffffffffffffff16815260200190815260200160002060008473ffffffffffffffffffffffffffffffffffffffff1673ffffffffffffffffffffffffffffffffffffffff16815260200190815260200160002060006101000a81548160ff0219169083151502179055508173ffffffffffffffffffffffffffffffffffffffff168373ffffffffffffffffffffffffffffffffffffffff167f17307eab39ab6107e8899845ad3d59bd9653f200f220920489ca2b5937696c31836040516114bc9190611fba565b60405180910390a3505050565b6114d4848484610e65565b6114e0848484846118ef565b61151f576040517f08c379a0000000000000000000000000000000000000000000000000000000008152600401611516906133d2565b60405180910390fd5b50505050565b606061153082610cc4565b600060066000848152602001908152602001600020805461155090612654565b80601f016020809104026020016040519081016040528092919081815260200182805461157c90612654565b80156115c95780601f1061159e576101008083540402835291602001916115c9565b820191906000526020600020905b8154815290600101906020018083116115ac57829003601f168201915b5050505050905060006115da611a86565b90506000815114156115f0578192505050611633565b60008251111561162557808260405160200161160d9291906133f2565b60405160208183030381529060405292505050611633565b61162e84611a9d565b925050505b919050565b60008073ffffffffffffffffffffffffffffffffffffffff166002600084815260200190815260200160002060009054906101000a900473ffffffffffffffffffffffffffffffffffffffff1673ffffffffffffffffffffffffffffffffffffffff1614159050919050565b505050565b505050565b6116b88383611b05565b6116c560008484846118ef565b611704576040517f08c379a00000000000000000000000000000000000000000000000000000000081526004016116fb906133d2565b60405180910390fd5b505050565b60606000600960008481526020019081526020016000206000016009600085815260200190815260200160002060020160405160200161174a92919061383e565b60405160208183030381529060405290506117648161178b565b60405160200161177491906131df565b604051602081830303815290604052915050919050565b60606000825114156117ae576040518060200160405280600081525090506118ea565b6000604051806060016040528060408152602001613ba660409139905060006003600285516117dd9190612c08565b6117e791906138ff565b60046117f39190613930565b67ffffffffffffffff81111561180c5761180b612218565b5b6040519080825280601f01601f19166020018201604052801561183e5781602001600182028036833780820191505090505b509050600182016020820185865187015b808210156118aa576003820191508151603f8160121c168501518453600184019350603f81600c1c168501518453600184019350603f8160061c168501518453600184019350603f811685015184536001840193505061184f565b50506003865106600181146118c657600281146118d9576118e1565b603d6001830353603d60028303536118e1565b603d60018303535b50505080925050505b919050565b60006119108473ffffffffffffffffffffffffffffffffffffffff16611cdf565b15611a79578373ffffffffffffffffffffffffffffffffffffffff1663150b7a02611939610d0f565b8786866040518563ffffffff1660e01b815260040161195b94939291906139df565b602060405180830381600087803b15801561197557600080fd5b505af19250505080156119a657506040513d601f19601f820116820180604052508101906119a39190613a40565b60015b611a29573d80600081146119d6576040519150601f19603f3d011682016040523d82523d6000602084013e6119db565b606091505b50600081511415611a21576040517f08c379a0000000000000000000000000000000000000000000000000000000008152600401611a18906133d2565b60405180910390fd5b805181602001fd5b63150b7a0260e01b7bffffffffffffffffffffffffffffffffffffffffffffffffffffffff1916817bffffffffffffffffffffffffffffffffffffffffffffffffffffffff191614915050611a7e565b600190505b949350505050565b606060405180602001604052806000815250905090565b6060611aa882610cc4565b6000611ab2611a86565b90506000815111611ad25760405180602001604052806000815250611afd565b80611adc84611d02565b604051602001611aed9291906133f2565b6040516020818303038152906040525b915050919050565b600073ffffffffffffffffffffffffffffffffffffffff168273ffffffffffffffffffffffffffffffffffffffff161415611b75576040517f08c379a0000000000000000000000000000000000000000000000000000000008152600401611b6c90613ab9565b60405180910390fd5b611b7e81611638565b15611bbe576040517f08c379a0000000000000000000000000000000000000000000000000000000008152600401611bb590613b25565b60405180910390fd5b611bca600083836116a4565b6001600360008473ffffffffffffffffffffffffffffffffffffffff1673ffffffffffffffffffffffffffffffffffffffff1681526020019081526020016000206000828254611c1a9190612c08565b92505081905550816002600083815260200190815260200160002060006101000a81548173ffffffffffffffffffffffffffffffffffffffff021916908373ffffffffffffffffffffffffffffffffffffffff160217905550808273ffffffffffffffffffffffffffffffffffffffff16600073ffffffffffffffffffffffffffffffffffffffff167fddf252ad1be2c89b69c2b068fc378daa952ba7f163c4a11628f55a4df523b3ef60405160405180910390a4611cdb600083836116a9565b5050565b6000808273ffffffffffffffffffffffffffffffffffffffff163b119050919050565b60606000821415611d4a576040518060400160405280600181526020017f30000000000000000000000000000000000000000000000000000000000000008152509050611e5e565b600082905060005b60008214611d7c578080611d65906128d7565b915050600a82611d7591906138ff565b9150611d52565b60008167ffffffffffffffff811115611d9857611d97612218565b5b6040519080825280601f01601f191660200182016040528015611dca5781602001600182028036833780820191505090505b5090505b60008514611e5757600182611de39190612bd4565b9150600a85611df29190613b45565b6030611dfe9190612c08565b60f81b818381518110611e1457611e13613b76565b5b60200101907effffffffffffffffffffffffffffffffffffffffffffffffffffffffffffff1916908160001a905350600a85611e5091906138ff565b9450611dce565b8093505050505b919050565b828054611e6f90612654565b90600052602060002090601f016020900481019282611e915760008555611ed8565b82601f10611eaa57805160ff1916838001178555611ed8565b82800160010185558215611ed8579182015b82811115611ed7578251825591602001919060010190611ebc565b5b509050611ee59190611ee9565b5090565b5b80821115611f02576000816000905550600101611eea565b5090565b6000604051905090565b600080fd5b600080fd5b60007fffffffff0000000000000000000000000000000000000000000000000000000082169050919050565b611f4f81611f1a565b8114611f5a57600080fd5b50565b600081359050611f6c81611f46565b92915050565b600060208284031215611f8857611f87611f10565b5b6000611f9684828501611f5d565b91505092915050565b60008115159050919050565b611fb481611f9f565b82525050565b6000602082019050611fcf6000830184611fab565b92915050565b600081519050919050565b600082825260208201905092915050565b60005b8381101561200f578082015181840152602081019050611ff4565b8381111561201e576000848401525b50505050565b6000601f19601f8301169050919050565b600061204082611fd5565b61204a8185611fe0565b935061205a818560208601611ff1565b61206381612024565b840191505092915050565b600060208201905081810360008301526120888184612035565b905092915050565b6000819050919050565b6120a381612090565b81146120ae57600080fd5b50565b6000813590506120c08161209a565b92915050565b6000602082840312156120dc576120db611f10565b5b60006120ea848285016120b1565b91505092915050565b600073ffffffffffffffffffffffffffffffffffffffff82169050919050565b600061211e826120f3565b9050919050565b61212e81612113565b82525050565b60006020820190506121496000830184612125565b92915050565b61215881612113565b811461216357600080fd5b50565b6000813590506121758161214f565b92915050565b6000806040838503121561219257612191611f10565b5b60006121a085828601612166565b92505060206121b1858286016120b1565b9150509250929050565b6000806000606084860312156121d4576121d3611f10565b5b60006121e286828701612166565b93505060206121f386828701612166565b9250506040612204868287016120b1565b9150509250925092565b600080fd5b600080fd5b7f4e487b7100000000000000000000000000000000000000000000000000000000600052604160045260246000fd5b61225082612024565b810181811067ffffffffffffffff8211171561226f5761226e612218565b5b80604052505050565b6000612282611f06565b905061228e8282612247565b919050565b600067ffffffffffffffff8211156122ae576122ad612218565b5b6122b782612024565b9050602081019050919050565b82818337600083830152505050565b60006122e66122e184612293565b612278565b90508281526020810184848401111561230257612301612213565b5b61230d8482856122c4565b509392505050565b600082601f83011261232a5761232961220e565b5b813561233a8482602086016122d3565b91505092915050565b6000806000806080858703121561235d5761235c611f10565b5b600085013567ffffffffffffffff81111561237b5761237a611f15565b5b61238787828801612315565b945050602085013567ffffffffffffffff8111156123a8576123a7611f15565b5b6123b487828801612315565b935050604085013567ffffffffffffffff8111156123d5576123d4611f15565b5b6123e187828801612315565b92505060606123f287828801612166565b91505092959194509250565b60006020828403121561241457612413611f10565b5b600061242284828501612166565b91505092915050565b61243481612090565b82525050565b600060208201905061244f600083018461242b565b92915050565b61245e81611f9f565b811461246957600080fd5b50565b60008135905061247b81612455565b92915050565b6000806040838503121561249857612497611f10565b5b60006124a685828601612166565b92505060206124b78582860161246c565b9150509250929050565b600067ffffffffffffffff8211156124dc576124db612218565b5b6124e582612024565b9050602081019050919050565b6000612505612500846124c1565b612278565b90508281526020810184848401111561252157612520612213565b5b61252c8482856122c4565b509392505050565b600082601f8301126125495761254861220e565b5b81356125598482602086016124f2565b91505092915050565b6000806000806080858703121561257c5761257b611f10565b5b600061258a87828801612166565b945050602061259b87828801612166565b93505060406125ac878288016120b1565b925050606085013567ffffffffffffffff8111156125cd576125cc611f15565b5b6125d987828801612534565b91505092959194509250565b600080604083850312156125fc576125fb611f10565b5b600061260a85828601612166565b925050602061261b85828601612166565b9150509250929050565b7f4e487b7100000000000000000000000000000000000000000000000000000000600052602260045260246000fd5b6000600282049050600182168061266c57607f821691505b602082108114156126805761267f612625565b5b50919050565b7f4552433732313a20617070726f76616c20746f2063757272656e74206f776e6560008201527f7200000000000000000000000000000000000000000000000000000000000000602082015250565b60006126e2602183611fe0565b91506126ed82612686565b604082019050919050565b60006020820190508181036000830152612711816126d5565b9050919050565b7f4552433732313a20617070726f76652063616c6c6572206973206e6f7420746f60008201527f6b656e206f776e6572206e6f7220617070726f76656420666f7220616c6c0000602082015250565b6000612774603e83611fe0565b915061277f82612718565b604082019050919050565b600060208201905081810360008301526127a381612767565b9050919050565b7f4552433732313a2063616c6c6572206973206e6f7420746f6b656e206f776e6560008201527f72206e6f7220617070726f766564000000000000000000000000000000000000602082015250565b6000612806602e83611fe0565b9150612811826127aa565b604082019050919050565b60006020820190508181036000830152612835816127f9565b9050919050565b7f4e6f7420616e206f776e65722021210000000000000000000000000000000000600082015250565b6000612872600f83611fe0565b915061287d8261283c565b602082019050919050565b600060208201905081810360008301526128a181612865565b9050919050565b7f4e487b7100000000000000000000000000000000000000000000000000000000600052601160045260246000fd5b60006128e282612090565b91507fffffffffffffffffffffffffffffffffffffffffffffffffffffffffffffffff821415612915576129146128a8565b5b600182019050919050565b7f4552433732313a20696e76616c696420746f6b656e2049440000000000000000600082015250565b6000612956601883611fe0565b915061296182612920565b602082019050919050565b6000602082019050818103600083015261298581612949565b9050919050565b7f4552433732313a2061646472657373207a65726f206973206e6f74206120766160008201527f6c6964206f776e65720000000000000000000000000000000000000000000000602082015250565b60006129e8602983611fe0565b91506129f38261298c565b604082019050919050565b60006020820190508181036000830152612a17816129db565b9050919050565b7f4f776e61626c653a206e6577206f776e657220697320746865207a65726f206160008201527f6464726573730000000000000000000000000000000000000000000000000000602082015250565b6000612a7a602683611fe0565b9150612a8582612a1e565b604082019050919050565b60006020820190508181036000830152612aa981612a6d565b9050919050565b7f4552433732313a207472616e736665722066726f6d20696e636f72726563742060008201527f6f776e6572000000000000000000000000000000000000000000000000000000602082015250565b6000612b0c602583611fe0565b9150612b1782612ab0565b604082019050919050565b60006020820190508181036000830152612b3b81612aff565b9050919050565b7f4552433732313a207472616e7366657220746f20746865207a65726f2061646460008201527f7265737300000000000000000000000000000000000000000000000000000000602082015250565b6000612b9e602483611fe0565b9150612ba982612b42565b604082019050919050565b60006020820190508181036000830152612bcd81612b91565b9050919050565b6000612bdf82612090565b9150612bea83612090565b925082821015612bfd57612bfc6128a8565b5b828203905092915050565b6000612c1382612090565b9150612c1e83612090565b9250827fffffffffffffffffffffffffffffffffffffffffffffffffffffffffffffffff03821115612c5357612c526128a8565b5b828201905092915050565b600081905092915050565b7f7b00000000000000000000000000000000000000000000000000000000000000600082015250565b6000612c9f600183612c5e565b9150612caa82612c69565b600182019050919050565b7f226e616d65223a202257617272616e7479204f776e6572202300000000000000600082015250565b6000612ceb601983612c5e565b9150612cf682612cb5565b601982019050919050565b60008190508160005260206000209050919050565b60008154612d2381612654565b612d2d8186612c5e565b94506001821660008114612d485760018114612d5957612d8c565b60ff19831686528186019350612d8c565b612d6285612d01565b60005b83811015612d8457815481890152600182019150602081019050612d65565b838801955050505b50505092915050565b7f222c000000000000000000000000000000000000000000000000000000000000600082015250565b6000612dcb600283612c5e565b9150612dd682612d95565b600282019050919050565b7f226465736372697074696f6e223a2022546869732077617272616e747920697360008201527f20666f7220000000000000000000000000000000000000000000000000000000602082015250565b6000612e3d602583612c5e565b9150612e4882612de1565b602582019050919050565b7f22696d616765223a202200000000000000000000000000000000000000000000600082015250565b6000612e89600a83612c5e565b9150612e9482612e53565b600a82019050919050565b6000612eaa82611fd5565b612eb48185612c5e565b9350612ec4818560208601611ff1565b80840191505092915050565b7f2200000000000000000000000000000000000000000000000000000000000000600082015250565b6000612f06600183612c5e565b9150612f1182612ed0565b600182019050919050565b7f2261747472696275746573223a205b0000000000000000000000000000000000600082015250565b6000612f52600f83612c5e565b9150612f5d82612f1c565b600f82019050919050565b7f7b2274726169745f74797065223a202253657269616c204e756d626572222c00600082015250565b6000612f9e601f83612c5e565b9150612fa982612f68565b601f82019050919050565b7f2276616c756522203a2022000000000000000000000000000000000000000000600082015250565b6000612fea600b83612c5e565b9150612ff582612fb4565b600b82019050919050565b7f7d7b2274726169745f74797065223a202252657061697273222c000000000000600082015250565b6000613036601a83612c5e565b915061304182613000565b601a82019050919050565b7f7d5d000000000000000000000000000000000000000000000000000000000000600082015250565b6000613082600283612c5e565b915061308d8261304c565b600282019050919050565b7f7d00000000000000000000000000000000000000000000000000000000000000600082015250565b60006130ce600183612c5e565b91506130d982613098565b600182019050919050565b60006130ef82612c92565b91506130fa82612cde565b91506131068288612d16565b915061311182612dbe565b915061311c82612e30565b91506131288287612d16565b915061313382612dbe565b915061313e82612e7c565b915061314a8286612e9f565b915061315582612ef9565b915061316082612f45565b915061316b82612f91565b915061317682612fdd565b91506131828285612d16565b915061318d82612ef9565b915061319882613029565b91506131a382612fdd565b91506131af8284612d16565b91506131ba82612ef9565b91506131c582613075565b91506131d0826130c1565b91508190509695505050505050565b60006131eb8284612e9f565b915081905092915050565b7f45524337323155524953746f726167653a2055524920736574206f66206e6f6e60008201527f6578697374656e7420746f6b656e000000000000000000000000000000000000602082015250565b6000613252602e83611fe0565b915061325d826131f6565b604082019050919050565b6000602082019050818103600083015261328181613245565b9050919050565b7f4f776e61626c653a2063616c6c6572206973206e6f7420746865206f776e6572600082015250565b60006132be602083611fe0565b91506132c982613288565b602082019050919050565b600060208201905081810360008301526132ed816132b1565b9050919050565b7f4552433732313a20617070726f766520746f2063616c6c657200000000000000600082015250565b600061332a601983611fe0565b9150613335826132f4565b602082019050919050565b600060208201905081810360008301526133598161331d565b9050919050565b7f4552433732313a207472616e7366657220746f206e6f6e20455243373231526560008201527f63656976657220696d706c656d656e7465720000000000000000000000000000602082015250565b60006133bc603283611fe0565b91506133c782613360565b604082019050919050565b600060208201905081810360008301526133eb816133af565b9050919050565b60006133fe8285612e9f565b915061340a8284612e9f565b91508190509392505050565b7f3c73766720786d6c6e733d22687474703a2f2f7777772e77332e6f72672f323060008201527f30302f73766722207072657365727665417370656374526174696f3d22784d6960208201527f6e594d696e206d656574222076696577426f783d22302030203335302033353060408201527f223e000000000000000000000000000000000000000000000000000000000000606082015250565b60006134be606283612c5e565b91506134c982613416565b606282019050919050565b7f3c7374796c653e2e62617365207b2066696c6c3a20636f72616c3b20666f6e7460008201527f2d66616d696c793a2073657269663b20666f6e742d73697a653a20313470783b60208201527f207d3c2f7374796c653e00000000000000000000000000000000000000000000604082015250565b6000613556604a83612c5e565b9150613561826134d4565b604a82019050919050565b7f3c726563742077696474683d223130302522206865696768743d22313030252260008201527f2066696c6c3d22626c61636b22202f3e00000000000000000000000000000000602082015250565b60006135c8603083612c5e565b91506135d38261356c565b603082019050919050565b7f3c7465787420783d223530252220793d223430252220636c6173733d2262617360008201527f652220646f6d696e616e742d626173656c696e653d226d6964646c652220746560208201527f78742d616e63686f723d226d6964646c65223e00000000000000000000000000604082015250565b6000613660605383612c5e565b915061366b826135de565b605382019050919050565b7f4f776e6572203a20000000000000000000000000000000000000000000000000600082015250565b60006136ac600883612c5e565b91506136b782613676565b600882019050919050565b7f3c2f746578743e00000000000000000000000000000000000000000000000000600082015250565b60006136f8600783612c5e565b9150613703826136c2565b600782019050919050565b7f3c7465787420783d223530252220793d223530252220636c6173733d2262617360008201527f652220646f6d696e616e742d626173656c696e653d226d6964646c652220746560208201527f78742d616e63686f723d226d6964646c65223e00000000000000000000000000604082015250565b6000613790605383612c5e565b915061379b8261370e565b605382019050919050565b7f53657269616c204e756d626572203a2000000000000000000000000000000000600082015250565b60006137dc601083612c5e565b91506137e7826137a6565b601082019050919050565b7f3c2f7376673e0000000000000000000000000000000000000000000000000000600082015250565b6000613828600683612c5e565b9150613833826137f2565b600682019050919050565b6000613849826134b1565b915061385482613549565b915061385f826135bb565b915061386a82613653565b91506138758261369f565b91506138818285612d16565b915061388c826136eb565b915061389782613783565b91506138a2826137cf565b91506138ae8284612d16565b91506138b9826136eb565b91506138c48261381b565b91508190509392505050565b7f4e487b7100000000000000000000000000000000000000000000000000000000600052601260045260246000fd5b600061390a82612090565b915061391583612090565b925082613925576139246138d0565b5b828204905092915050565b600061393b82612090565b915061394683612090565b9250817fffffffffffffffffffffffffffffffffffffffffffffffffffffffffffffffff048311821515161561397f5761397e6128a8565b5b828202905092915050565b600081519050919050565b600082825260208201905092915050565b60006139b18261398a565b6139bb8185613995565b93506139cb818560208601611ff1565b6139d481612024565b840191505092915050565b60006080820190506139f46000830187612125565b613a016020830186612125565b613a0e604083018561242b565b8181036060830152613a2081846139a6565b905095945050505050565b600081519050613a3a81611f46565b92915050565b600060208284031215613a5657613a55611f10565b5b6000613a6484828501613a2b565b91505092915050565b7f4552433732313a206d696e7420746f20746865207a65726f2061646472657373600082015250565b6000613aa3602083611fe0565b9150613aae82613a6d565b602082019050919050565b60006020820190508181036000830152613ad281613a96565b9050919050565b7f4552433732313a20746f6b656e20616c7265616479206d696e74656400000000600082015250565b6000613b0f601c83611fe0565b9150613b1a82613ad9565b602082019050919050565b60006020820190508181036000830152613b3e81613b02565b9050919050565b6000613b5082612090565b9150613b5b83612090565b925082613b6b57613b6a6138d0565b5b828206905092915050565b7f4e487b7100000000000000000000000000000000000000000000000000000000600052603260045260246000fdfe4142434445464748494a4b4c4d4e4f505152535455565758595a6162636465666768696a6b6c6d6e6f707172737475767778797a303132333435363738392b2fa264697066735822122089b0679af3a69736bda7bbd58ad35de9b6103f01ba3c1c911ceb81e0fb1fdb9664736f6c63430008090033",
  "linkReferences": {},
  "deployedLinkReferences": {}
}